:020000040800F2
:100000000050002079120008151200081D12000887
:10001000251200082D12000835120008000000000B
:100020000000000000000000000000003D12000879
:100030004912000800000000551200086112000873
:10004000C1120008C1120008C1120008C112000844
:10005000C1120008C1120008C1120008C112000834
:10006000C1120008C1120008C1120008C112000824
:10007000C1120008C1120008C1120008C112000814
:10008000C1120008C1120008C1120008C112000804
:10009000C1120008C1120008C1120008C1120008F4
:1000A000C1120008C1120008C1120008C1120008E4
:1000B000C1120008C1120008C1120008C1120008D4
:1000C000C1120008C1120008C1120008C1120008C4
:1000D000C1120008C1120008C1120008C1120008B4
:1000E000C1120008C1120008C1120008000000007F
:1000F0000000000000000000000000000000000000
:0C01000000000000000000005FF808F1A3
:10010C0010B5054C237833B9044B13B10448AFF345
:10011C0000800123237010BD0C00002000000000A3
:10012C00383D000808B5034B1BB103490348AFF336
:10013C00008008BD0000000010000020383D0008C1
:10014C0080B582B002AF01F0B7F800F0CFF800F044
:10015C0001FB00F027F900F031FA00F07BFA00F017
:10016C005FF900F08BF90021554803F027F8544B48
:10017C001B6800225A63534802F07EFF002152484C
:10018C0003F01CF80421504803F018F800F0FAFCB6
:10019C00002000F061FD00F077FD4FF4FA7001F0E3
:1001AC00EDF80021002000F065FB4FF400514748AA
:1001BC0001F09AFD002000F04FFD1421052000F005
:1001CC0095FE434B012200920ECB424800F068FE94
:1001DC0000F05AFD00F098FB4FF47A7001F0CEF865
:1001EC00002000F039FD1421052000F07FFE384B73
:1001FC00012200920ECB384800F052FE00F044FD74
:10020C0000F059FC4FF47A7001F0B8F8002000F0BF
:10021C0023FD1421052000F069FE2D4B01220092D4
:10022C000ECB2E4800F03CFE00F02EFD00F095FBAE
:10023C004FF47A7001F0A2F8002000F00DFD1421AB
:10024C00052000F053FE224B012200920ECB2448D5
:10025C0000F026FE00F018FD00F0A0FB4FF47A70C1
:10026C0001F08CF8002000F0F7FC1421052000F0C0
:10027C003DFE174B012200920ECB1A4800F010FEE7
:10028C0000F002FD00F0BBFB4FF47A7001F076F841
:10029C00002000F0E1FC1421052000F027FE0C4B9F
:1002AC00012200920ECB104800F0FAFD00F0ECFC9D
:1002BC0000F0CFFB40F2DC5001F060F800BF74E7B7
:1002CC00AC000020F40000203C0100200010014094
:1002DC0024450008503D0008603D0008703D0008B2
:1002EC00803D0008943D0008A43D000880B594B002
:1002FC0000AF07F1280328220021184603F0E9FC7F
:10030C0007F1140300221A605A609A60DA601A61CD
:10031C003B1D00221A605A609A60DA600123BB62AE
:10032C004FF48033FB6200233B630123BB63022346
:10033C007B644FF48033BB644FF4E013FB6407F130
:10034C002803184602F096F90346002B01D000F062
:10035C00DBFB0F237B610223BB610023FB614FF4AA
:10036C0080633B6200237B6207F114030221184671
:10037C0002F002FC0346002B01D000F0C5FB022367
:10038C007B604FF40043FB603B1D184602F06EFD92
:10039C000346002B01D000F0B7FB00BF5037BD4621
:1003AC0080BD000080B584B000AF3B1D00221A60F8
:1003BC005A609A60184B194A1A60174B00229A60BF
:1003CC00154B00221A73144B00221A75124B4FF462
:1003DC006022DA61104B00225A600F4B01221A6125
:1003EC000D4800F0EFFF0346002B01D000F08CFB12
:1003FC0000237B600123BB600523FB603B1D19467A
:10040C00054801F0B7F80346002B01D000F07CFB47
:10041C0000BF1037BD4680BD2800002000240140DD
:10042C0080B500AF124B134A1A60114B124A5A6036
:10043C000F4B00229A600E4B0022DA600C4B4FF4EB
:10044C0080421A610A4B00225A61094B00229A61C0
:10045C00074B0022DA61064B00221A62044801F0B5
:10046C005DFC0346002B01D000F04EFB00BF80BDAD
:10047C005800002000540040A086010080B596B0C2
:10048C0000AF07F1480300221A605A609A60DA60E4
:10049C0007F1400300221A605A6007F1240300227E
:1004AC001A605A609A60DA601A615A619A613B1D4F
:1004BC0020220021184603F00CFC3E4B3E4A1A60E9
:1004CC003C4B47225A603B4B00229A60394B40F21E
:1004DC00E732DA60374B00221A61364B00225A6140
:1004EC00344B00229A61334802F076FD0346002B10
:1004FC0001D000F009FB4FF48053BB6407F14803B3
:10050C0019462C4802F0BEFF0346002B01D000F028
:10051C00FBFA284802F0FAFD0346002B01D000F04C
:10052C00F3FA00233B6400237B6407F14003194674
:10053C00204803F01FFB0346002B01D000F0E4FA27
:10054C0060237B620023BB620023FB6200233B63BE
:10055C0000237B630023BB630023FB6307F12403AD
:10056C0000221946134802F0CBFE0346002B01D0A3
:10057C0000F0CAFA00237B600023BB600023FB6001
:10058C0000233B6100237B614FF40053BB610023CC
:10059C003B623B1D1946074803F04AFB0346002B00
:1005AC0001D000F0B1FA034800F0DAFD00BF583773
:1005BC00BD4680BDAC000020002C014080B586B04B
:1005CC0000AF07F1080300221A605A609A60DA60E3
:1005DC003B4600221A605A601D4B4FF080421A6055
:1005EC001B4B47225A601A4B00229A60184B4FF64D
:1005FC00FF72DA60164B00221A61154B00229A61C9
:10060C00134802F0E9FC0346002B01D000F07CFA01
:10061C004FF48053BB6007F1080319460C4802F0F5
:10062C0031FF0346002B01D000F06EFA00233B6033
:10063C0000237B603B461946054803F09BFA0346B2
:10064C00002B01D000F060FA00BF1837BD4680BD0A
:10065C00F400002080B58EB000AF07F12803002213
:10066C001A605A609A60DA6007F1200300221A605F
:10067C005A603B1D00221A605A609A60DA601A6157
:10068C005A619A61314B324A1A60304B47225A6098
:10069C002E4B00229A602D4B6322DA602B4B0022EA
:1006AC001A612A4B00229A61284802F095FC0346F5
:1006BC00002B01D000F028FA4FF48053BB6207F1F5
:1006CC0028031946214802F0DDFE0346002B01D019
:1006DC0000F01AFA1D4802F019FD0346002B01D058
:1006EC0000F012FA00233B6200237B6207F1200327
:1006FC001946164803F03EFA0346002B01D000F0D1
:10070C0003FA60237B600023BB600023FB600023A3
:10071C007B613B1D002219460C4802F0F1FD03469B
:10072C00002B01D000F0F0F93B1D042219460748BC
:10073C0002F0E6FD0346002B01D000F0E5F903487A
:10074C0000F00EFD00BF3837BD4680BD3C010020D7
:10075C000004004080B588B000AF07F11003002200
:10076C001A605A609A60DA603E4B9B693D4A43F0CE
:10077C00100393613B4B9B6903F01003FB60FB6818
:10078C00384B9B69374A43F020039361354B9B6987
:10079C0003F02003BB60BB68324B9B69314A43F0CA
:1007AC00040393612F4B9B6903F004037B607B680C
:1007BC002C4B9B692B4A43F008039361294B9B6993
:1007CC0003F008033B603B6800224FF400512648BD
:1007DC0001F072FA00223021244801F06DFA002257
:1007EC0043F20301224801F067FA4FF400533B61D6
:1007FC0001237B610023BB610223FB6107F1100322
:10080C001946194801F0D4F830233B6101237B6170
:10081C000023BB610223FB6107F110031946134847
:10082C0001F0C6F843F203033B6101237B61002313
:10083C00BB610223FB6107F1100319460C4801F060
:10084C00B7F84FF440433B6100237B610023BB614D
:10085C0007F110031946064801F0AAF800BF20372B
:10086C00BD4680BD00100240001001400008014050
:10087C00000C014080B483B000AF78603960054A49
:10088C007B681360044A3B68136000BF0C37BD469D
:10089C0080BC7047840100208801002080B584B0A2
:1008AC0000AF03460A46FB801346BB80FB88002B37
:1008BC0008D1134B1B6800225A63BB88184600F002
:1008CC005DFD19E0FB880F4A92FBF3F3013BFB60E3
:1008DC000B4B1B68FA68DA62094AFB68D360084B59
:1008EC001B68FA6852085A63BB88184600F046FD2C
:1008FC00034B1B6800225A631037BD4680BD00BFF6
:10090C00AC00002040420F0080B500AF64214FF4D2
:10091C002F70FFF7C3FF282000F030FD64214FF447
:10092C006170FFF7BBFF282000F028FD642140F226
:10093C004C40FFF7B3FF282000F020FD78214FF446
:10094C00AF60FFF7ABFF282000F018FDB4214FF487
:10095C00E160FFF7A3FF00BF80BD80B500AF502161
:10096C004FF4E160FFF79AFF282000F007FD5A21B1
:10097C004FF41670FFF792FF282000F0FFFC502177
:10098C004FF4E160FFF78AFF282000F0F7FC782194
:10099C004FF4FA70FFF782FF00BF80BD80B500AF47
:1009AC0064214FF46170FFF779FF282000F0E6FC1A
:1009BC00642140F24C40FFF771FF282000F0DEFC70
:1009CC00642140F21450FFF769FF282000F0D6FC98
:1009DC0078214FF4C860FFF761FF282000F0CEFCAF
:1009EC0096214FF4FA60FFF759FF3C2000F0C6FC4B
:1009FC00DC2140F6FC00FFF751FF00BF80BD80B545
:100A0C0000AF96214FF4E160FFF748FF462000F05D
:100A1C00B5FC962140F2DC50FFF740FF462000F079
:100A2C00ADFCB4214FF49660FFF738FF462000F080
:100A3C00A5FCC8214FF46170FFF730FF462000F091
:100A4C009DFC4FF496714FF41670FFF727FF00BF13
:100A5C0080BD80B500AF64214FF47A70FFF71EFFA4
:100A6C00502000F08BFC64214FF47A70FFF716FFD6
:100A7C00502000F083FC64214FF47A70FFF70EFFD6
:100A8C004FF4C87000F07AFC64214FF47A70FFF7D1
:100A9C0005FF502000F072FC64214FF47A70FFF7D0
:100AAC00FDFE502000F06AFC64214FF47A70FFF7D1
:100ABC00F5FE00BF80BD80B500AF46214FF49660B7
:100ACC00FFF7ECFE1E2000F059FC462140F2DC50F2
:100ADC00FFF7E4FE1E2000F051FC46214FF4E160CC
:100AEC00FFF7DCFE1E2000F049FC642140F6980064
:100AFC00FFF7D4FE1E2000F041FC782140F6C41014
:100B0C00FFF7CCFE00BF80BD80B400AF72B600BF53
:100B1C0000BFFDE780B400AF00BFBD4680BC70478E
:100B2C0080B586B004AF0346FB714FF0FF330293E0
:100B3C0001230193FB1D009301230022782103481C
:100B4C0001F030FA00BF0837BD4680BD58000020C8
:100B5C0080B586B004AF786039603B689BB24FF0CB
:100B6C00FF32029201937B6800930123402278218B
:100B7C00034801F017FA00BF0837BD4680BD00BF1F
:100B8C005800002080B500AFFFF7C4FF642000F0D0
:100B9C00F5FB002000F0D6F92020FFF7C1FF002064
:100BAC00FFF7BEFFB020FFF7BBFFC820FFF7B8FF71
:100BBC000020FFF7B5FF1020FFF7B2FF4020FFF732
:100BCC00AFFFFF2000F0AAF9A120FFF7A9FFA62094
:100BDC00FFF7A6FFA820FFF7A3FF3F20FFF7A0FF1A
:100BEC00A420FFF79DFFD320FFF79AFF0020FFF70B
:100BFC0097FFD520FFF794FFF020FFF791FFD92046
:100C0C00FFF78EFF2220FFF78BFFDA20FFF788FF1C
:100C1C001220FFF785FFDB20FFF782FF2020FFF774
:100C2C007FFF8D20FFF77CFF1420FFF779FF012059
:100C3C0000F088F9002000F00FF800F025F8054BC3
:100C4C0000221A80034B00225A80024B01221A7197
:100C5C0000BF80BD8C05002080B582B000AF03467C
:100C6C00FB71FB79002B01D1002300E0FF234FF433
:100C7C0080621946034803F02CF800BF0837BD46C4
:100C8C0080BD00BF8C01002080B582B000AF002376
:100C9C00FB7116E0FB79503BDBB21846FFF740FFC7
:100CAC000020FFF73DFF1020FFF73AFFFB79DB0137
:100CBC00084A134480211846FFF74AFFFB79013399
:100CCC00FB71FB79072BE5D900BF00BF0837BD4688
:100CDC0080BD00BF8C01002080B483B000AF034600
:100CEC00FB710B46BB7113467B7197F90730002BD8
:100CFC003DDBBB793F2B3AD87B79012B1AD1FA79A2
:100D0C00BB79DB08D8B20346DB0113441A4AD35C27
:100D1C005AB2BB7903F00703012101FA03F35BB26A
:100D2C00134359B2FA790346DB011344C9B2124A90
:100D3C00D1541DE0FA79BB79DB08D8B20346DB014C
:100D4C0013440D4AD35C5AB2BB7903F0070301215B
:100D5C0001FA03F35BB2DB435BB2134059B2FA798D
:100D6C000346DB011344C9B2034AD15400E000BF6F
:100D7C000C37BD4680BC70478C01002090B589B003
:100D8C0000AF0446384680E80E002346FB73FB7B1D
:100D9C001F2B02D9FB7B7E2B01D9002379E0BB688A
:100DAC00002B05D0BA68FB7B203B13441B7800E07A
:100DBC003B78FB75394B1B881A46FB7D1344802B03
:100DCC0006DC364B5B881A467B781344402B01DDDE
:100DDC0000235EE00023FB614DE07A68FB7B203B47
:100DEC00797801FB03F31946FB690B445B00134450
:100DFC001B883B610023BB6136E03A69BB6902FA90
:100E0C0003F303F40043002B13D0244B1B88DAB2FA
:100E1C00BB69DBB21344D8B2204B5B88DAB2FB69F6
:100E2C00DBB21344DBB297F830201946FFF754FFBE
:100E3C0017E01A4B1B88DAB2BB69DBB21344D8B289
:100E4C00164B5B88DAB2FB69DBB21344D9B297F864
:100E5C003030002B0CBF01230023DBB21A46FFF706
:100E6C003BFFBB690133BB61FB7DBA699A42C4D3BA
:100E7C00FB690133FB617B781A46FB699342ACD367
:100E8C00064B1A88FB7D9BB213449AB2034B1A8013
:100E9C00FB7B18462437BD4690BD00BF8C05002057
:100EAC0080B586B002AFF860384680E80E0013E0DB
:100EBC00FB6818783B7E00933B460ECBFFF75EFF3A
:100ECC0003461A46FB681B789A4202D0FB681B78D3
:100EDC0008E0FB680133FB60FB681B78002BE7D153
:100EEC00FB681B7818461037BD4680BD80B483B0B4
:100EFC0000AF03460A46FB711346BB71FB799AB2ED
:100F0C00054B1A80BB799AB2034B5A8000BF0C3741
:100F1C00BD4680BC704700BF8C05002080B584B0F6
:100F2C0000AF0346FB718123FB73FB7B1846FFF775
:100F3C00F7FDFB791846FFF7F3FD00BF1037BD46F0
:100F4C0080BD000080B584B000AF0346FB71FB7917
:100F5C00002B05D0AF23FB73084B01225A7104E020
:100F6C00AE23FB73054B00225A71FB7B1846FFF72F
:100F7C00D7FD00BF1037BD4680BD00BF8C050020DB
:100F8C0080B485B000AF154B9B69144A43F0010344
:100F9C009361124B9B6903F00103BB60BB680F4B61
:100FAC00DB690E4A43F08053D3610C4BDB6903F0D1
:100FBC0080537B607B680A4B5B68FB60FB6823F0AB
:100FCC00E063FB60FB6843F00073FB60044AFB6862
:100FDC00536000BF1437BD4680BC70470010024000
:100FEC000000014080B588B000AF786007F11003B5
:100FFC0000221A605A609A60DA607B681B68144A97
:10100C00934221D1134B9B69124A43F400739361B1
:10101C00104B9B6903F40073FB60FB680D4B9B69E1
:10102C000C4A43F0040393610A4B9B6903F00403DD
:10103C00BB60BB6801233B6103237B6107F1100399
:10104C001946054800F0B4FC00BF2037BD4680BDF2
:10105C0000240140001002400008014080B588B017
:10106C0000AF786007F1100300221A605A609A6092
:10107C00DA607B681B68154A934223D1144B9B6939
:10108C00134A43F008039361114B9B6903F0080367
:10109C00FB60FB68C0233B6112237B610323FB6174
:1010AC0007F1100319460B4800F082FC084BDB6972
:1010BC00074A43F40013D361054BDB6903F40013B7
:1010CC00BB60BB6800BF2037BD4680BD00540040EC
:1010DC0000100240000C014080B487B000AF786073
:1010EC007B681B681B4A93420CD11B4B9B691A4AA9
:1010FC0043F400639361184B9B6903F400637B61B9
:10110C007B6922E07B681B68B3F1804F0CD1124BDA
:10111C00DB69114A43F00103D3610F4BDB6903F028
:10112C0001033B613B6910E07B681B680B4A9342EF
:10113C000BD1094BDB69084A43F00203D361064B20
:10114C00DB6903F00203FB60FB6800BF1C37BD4684
:10115C0080BC7047002C014000100240000400408D
:10116C0080B588B000AF786007F1100300221A60D8
:10117C005A609A60DA607B681B681F4A934219D1E7
:10118C001E4B9B691D4A43F0040393611B4B9B69E7
:10119C0003F00403FB60FB684FF480733B61022394
:1011AC007B610223FB6107F110031946144800F020
:1011BC00FFFB1CE07B681B68124A934217D10F4B54
:1011CC009B690E4A43F0040393610C4B9B6903F03B
:1011DC000403BB60BB68C0233B6102237B61022319
:1011EC00FB6107F110031946054800F0E1FB00BF55
:1011FC002037BD4680BD00BF002C014000100240CE
:10120C00000801400004004080B400AF00BFFDE7BF
:10121C0080B400AF00BFFDE780B400AF00BFFDE7B6
:10122C0080B400AF00BFFDE780B400AF00BFFDE7A6
:10123C0080B400AF00BFBD4680BC704780B400AF27
:10124C0000BFBD4680BC704780B400AF00BFBD4638
:10125C0080BC704780B500AF00F074F800BF80BD53
:10126C0080B400AF00BFBD4680BC7047FFF7F8FFED
:10127C000B480C490C4A002302E0D458C4500433E8
:10128C00C4188C42F9D3094A094C002301E01360BD
:10129C000432A242FBD302F025FDFEF751FF70474A
:1012AC00000000200C000020644500080C00002009
:1012BC0098050020FEE7000080B500AF084B1B68C6
:1012CC00074A43F010031360032000F03DFB0F208E
:1012DC0000F008F8FFF754FE0023184680BD00BF4D
:1012EC000020024080B582B000AF7860124B1A68C3
:1012FC00124B1B7819464FF47A73B3FBF1F3B2FB24
:10130C00F3F3184600F047FB0346002B01D00123F2
:10131C000EE07B680F2B0AD8002279684FF0FF3063
:10132C0000F01DFB064A7B681360002300E00123DC
:10133C0018460837BD4680BD00000020080000207C
:10134C000400002080B400AF054B1B781A46054BF7
:10135C001B681344034A136000BFBD4680BC704732
:10136C00080000209405002080B400AF024B1B68DD
:10137C001846BD4680BC70479405002080B584B0EB
:10138C0000AF7860FFF7F0FFB8607B68FB60FB682C
:10139C00B3F1FF3F05D00A4B1B781A46FB68134488
:1013AC00FB6000BFFFF7E0FF0246BB68D31AFA6888
:1013BC009A42F7D800BF00BF1037BD4680BD00BFB2
:1013CC000800002080B586B000AF78600023FB7564
:1013DC0000233B610023BB600023FB607B68002B78
:1013EC0001D10123BEE07B689B68002B7B689B6A64
:1013FC00002B09D17B680022DA627B68002283F81B
:10140C0024207868FFF7EEFD786800F0ABF903460E
:10141C00FB757B689B6A03F01003002B40F09980EE
:10142C00FB7D002B40F095807B689B6A23F48853EE
:10143C0023F0020343F002027B689A627B685A68CD
:10144C007B68DB691A437B681B7B5B001343BA68C0
:10145C001343BB607B689B68B3F5807F03D07B68CC
:10146C009B68012B02D14FF4807300E000233A6992
:10147C0013433B617B681B7D012B19D17B681B7B64
:10148C00002B09D17B689B69013B5A033B691343D1
:10149C0043F400633B610BE07B689B6A43F02002E2
:1014AC007B689A627B68DB6A43F001027B68DA62D4
:1014BC007B681B685B6823F469417B681B683A692D
:1014CC000A435A607B681B689A68284B13407A68F9
:1014DC001268B9680B4393607B689B68B3F5807F97
:1014EC0003D07B689B68012B04D17B681B69013B93
:1014FC001B05FB607B681B68DB6A23F470017B684F
:10150C001B68FA680A43DA627B681B689A68184B96
:10151C001340BA689A420BD17B680022DA627B686E
:10152C009B6A23F0030343F001027B689A6218E084
:10153C007B689B6A23F0120343F010027B689A626B
:10154C007B68DB6A43F001027B68DA620123FB757E
:10155C0007E07B689B6A43F010027B689A62012368
:10156C00FB75FB7D18461837BD4680BDFDF7E1FFC6
:10157C00FE0E1FFF80B485B000AF78603960002389
:10158C00FB730023BB607B6893F82430012B01D1E3
:10159C000223DCE07B68012283F824203B685B6833
:1015AC00062B1CD87B681B68596B3B685A68134622
:1015BC009B001344053B1F2202FA03F3DB43194043
:1015CC003B6818683B685A6813469B001344053BFC
:1015DC0000FA03F27B681B680A435A633CE03B68E1
:1015EC005B680C2B1CD87B681B68196B3B685A68B2
:1015FC0013469B001344233B1F2202FA03F3DB43E5
:10160C0019403B6818683B685A6813469B001344A2
:10161C00233B00FA03F27B681B680A431A631BE046
:10162C007B681B68D96A3B685A6813469B00134455
:10163C00413B1F2202FA03F3DB4319403B68186855
:10164C003B685A6813469B001344413B00FA03F273
:10165C007B681B680A43DA623B681B68092B1CD940
:10166C007B681B68D9683B681A6813465B00134497
:10167C001E3B072202FA03F3DB4319403B689868D0
:10168C003B681A6813465B0013441E3B00FA03F2D6
:10169C007B681B680A43DA6019E07B681B68196970
:1016AC003B681A6813465B001344072202FA03F3E3
:1016BC00DB4319403B6898683B681A6813465B002B
:1016CC00134400FA03F27B681B680A431A613B68F7
:1016DC001B68102B03D03B681B68112B32D17B6825
:1016EC001B681D4A934225D17B681B689B6803F4D9
:1016FC000003002B26D17B681B689A687B681B68EB
:10170C0042F400029A603B681B68102B1AD1134BF1
:10171C001B68134AA2FB03239A0C13469B00134429
:10172C005B00BB6002E0BB68013BBB60BB68002B8D
:10173C00F9D107E07B689B6A43F020027B689A62D0
:10174C000123FB737B68002283F82420FB7B184663
:10175C001437BD4680BC70470024014000000020B7
:10176C0083DE1B4380B584B000AF78600023FB6040
:10177C007B681B689B6803F00103012B2ED17B68EF
:10178C001B689A687B681B6822F001029A60FFF75D
:10179C00EBFDF8601BE0FFF7E7FD0246FB68D31A90
:1017AC00022B14D97B681B689B6803F00103012B87
:1017BC000DD17B689B6A43F010027B689A627B6850
:1017CC00DB6A43F001027B68DA62012307E07B6885
:1017DC001B689B6803F00103012BDCD00023184627
:1017EC001037BD4680BD000080B485B000AF786076
:1017FC007B6803F00703FB600C4BDB68BB60BA68CB
:10180C004FF6FF031340BB60FB681A02BB6813431F
:10181C0043F0BF6343F40033BB60044ABB68D3603E
:10182C0000BF1437BD4680BC704700BF00ED00E020
:10183C0080B400AF044BDB681B0A03F007031846A7
:10184C00BD4680BC704700BF00ED00E080B483B0A3
:10185C0000AF03463960FB7197F90730002B0ADBA8
:10186C003B68DAB20C4997F907301201D2B20B443B
:10187C0083F800230AE03B68DAB20849FB7903F0ED
:10188C000F03043B1201D2B20B441A7600BF0C3783
:10189C00BD4680BC704700BF00E100E000ED00E0F9
:1018AC0080B489B000AFF860B9607A60FB6803F06F
:1018BC000703FB61FB69C3F10703042B28BF042357
:1018CC00BB61FB690433062B02D9FB69033B00E0C7
:1018DC0000237B614FF0FF32BB6902FA03F3DA435A
:1018EC00BB681A407B699A404FF0FF317B6901FA63
:1018FC0003F3D9437B680B40134318462437BD468A
:10190C0080BC704780B582B000AF78607B68013BCB
:10191C00B3F1807F01D301230FE00A4A7B68013BBE
:10192C0053600F214FF0FF30FFF790FF054B002263
:10193C009A60044B07221A60002318460837BD46EC
:10194C0080BD00BF10E000E080B582B000AF7860D1
:10195C007868FFF749FF00BF0837BD4680BD80B5EA
:10196C0086B000AF0346B9607A60FB7300237B61DD
:10197C00FFF75EFF78617A68B9687869FFF790FFC6
:10198C00024697F90F3011461846FFF75FFF00BF6C
:10199C001837BD4680BD80B582B000AF78607868DE
:1019AC00FFF7B0FF034618460837BD4680BD000060
:1019BC0080B48BB000AF7860396000237B62002369
:1019CC003B6269E101227B6A02FA03F3FB613B682B
:1019DC001B68FA691340BB61BA69FB699A4240F013
:1019EC0058813B685B689A4A93425ED0984A93420E
:1019FC0075D8984A934258D0964A93426FD8964AD3
:101A0C00934252D0944A934269D8944A93424CD010
:101A1C00924A934263D8924A934246D0904A934258
:101A2C005DD8122B2AD8122B59D801A252F823F0C8
:101A3C00B71A0008911A0008A31A0008E51A000842
:101A4C00EB1A0008EB1A0008EB1A0008EB1A000856
:101A5C00EB1A0008EB1A0008EB1A0008EB1A000846
:101A6C00EB1A0008EB1A0008EB1A0008EB1A000836
:101A7C00EB1A0008991A0008AD1A0008794A93422B
:101A8C0013D02CE03B68DB683B6229E03B68DB68E9
:101A9C0004333B6224E03B68DB6808333B621FE0A5
:101AAC003B68DB680C333B621AE03B689B68002B9D
:101ABC0002D104233B6213E03B689B68012B05D1E8
:101ACC0008233B627B68FA691A6109E008233B62D0
:101ADC007B68FA695A6103E000233B6200E000BFB7
:101AEC00BB69FF2B01D87B6801E07B6804337B6109
:101AFC00BB69FF2B02D87B6A9B0002E07B6A083B28
:101B0C009B003B617B691A680F213B6901FA03F367
:101B1C00DB431A40396A3B6901FA03F31A437B69C8
:101B2C001A603B685B6803F08053002B00F0B180B7
:101B3C004D4B9B694C4A43F0010393614A4B9B69A3
:101B4C0003F00103BB60BB68484A7B6A9B08023305
:101B5C0052F82330FB607B6A03F003039B000F22D7
:101B6C0002FA03F3DB43FA681340FB607B68404ADC
:101B7C00934213D07B683F4A93420DD07B683E4A18
:101B8C00934207D07B683D4A934201D1032306E080
:101B9C00042304E0022302E0012300E000237A6A1C
:101BAC0002F0030292009340FA681343FB602F4942
:101BBC007B6A9B080233FA6841F823203B685B6818
:101BCC0003F48013002B06D02D4B9A682C49BB696B
:101BDC0013438B6006E02A4B9A68BB69DB432849A8
:101BEC0013408B603B685B6803F40013002B06D03A
:101BFC00234BDA682249BB691343CB6006E0204BC8
:101C0C00DA68BB69DB431E491340CB603B685B68F9
:101C1C0003F40033002B06D0194B5A681849BB69E2
:101C2C0013434B6006E0164B5A68BB69DB431449FF
:101C3C0013404B603B685B6803F48033002B21D06E
:101C4C000F4B1A680E49BB6913430B6021E000BFB0
:101C5C000000321000003110000022100000211092
:101C6C000000121000001110001002400000014092
:101C7C0000080140000C014000100140001401401C
:101C8C00000401400B4B1A68BB69DB430949134044
:101C9C000B607B6A01337B623B681A687B6A22FAB1
:101CAC0003F3002B7FF48EAE00BF00BF2C37BD4674
:101CBC0080BC70470004014080B483B000AF7860F2
:101CCC000B467B8013467B707B78002B03D07A8885
:101CDC007B681A6103E07B881A047B681A6100BF79
:101CEC000C37BD4680BC704780B485B000AF7860BF
:101CFC000B467B807B68DB68FB607A88FB68134053
:101D0C001A04FB68D9437B880B401A437B681A6121
:101D1C0000BF1437BD4680BC7047000080B584B04E
:101D2C0000AF78607B68002B01D101232BE17B682D
:101D3C0093F83D30DBB2002B06D17B68002283F890
:101D4C003C207868FFF78AF97B68242283F83D20D1
:101D5C007B681B681A687B681B6822F001021A609A
:101D6C007B681B681A687B681B6842F400421A6027
:101D7C007B681B681A687B681B6822F400421A6037
:101D8C0001F042F8F8607B685B68814A934207D89F
:101D9C00FB68804A934294BF01230023DBB206E028
:101DAC00FB687D4A934294BF01230023DBB2002BD6
:101DBC0001D00123E7E0FB68784AA2FB03239B0CCC
:101DCC00BB607B681B685B6823F03F017B681B680A
:101DDC00BA680A435A607B681B681B6A23F03F0190
:101DEC007B685B686A4A934202D8BB68013309E09E
:101DFC00BB684FF4967202FB03F3694AA2FB032300
:101E0C009B0901337A6812680B4313627B681B6869
:101E1C00DB6923F44F4222F0FF027B685B685C496C
:101E2C008B4219D8FB68591E7B685B685B00B1FB61
:101E3C00F3F3591C40F6FC730B40002B0AD0FB68E3
:101E4C00591E7B685B685B00B1FBF3F30133C3F392
:101E5C000B0351E004234FE07B689B68002B11D1EE
:101E6C00FB68581E7B6859680B465B000B44B0FB43
:101E7C00F3F30133C3F30B03002B0CBF012300233B
:101E8C00DBB212E0FB68581E7B6859680B469B005E
:101E9C000B4499000B44B0FBF3F30133C3F30B0376
:101EAC00002B0CBF01230023DBB2002B01D001233C
:101EBC0022E07B689B68002B0ED1FB68581E7B6868
:101ECC0059680B465B000B44B0FBF3F30133C3F3CF
:101EDC000B0343F400430FE0FB68581E7B68596802
:101EEC000B469B000B4499000B44B0FBF3F30133FE
:101EFC00C3F30B0343F44043796809681343CB6184
:101F0C007B681B681B6823F0C0017B68DA697B68FF
:101F1C001B6A1A437B681B680A431A607B681B6840
:101F2C009B6823F4034323F0FF037A6811697A68F2
:101F3C00D26811437A6812680B4393607B681B6804
:101F4C00DB6823F0FF017B685A697B689B691A4345
:101F5C007B681B680A43DA607B681B681A687B68BD
:101F6C001B6842F001021A607B6800221A647B68CD
:101F7C00202283F83D207B6800221A637B680022B4
:101F8C0083F83E20002318461037BD4680BD00BFA5
:101F9C00A08601007F841E00FF083D0083DE1B43EA
:101FAC00D34D621080B588B002AFF8600846114678
:101FBC001A4603467B810B463B811346FB80FFF799
:101FCC00D3F97861FB6893F83D30DBB2202B40F0FD
:101FDC00D9807B690093192301226D49F86800F0C0
:101FEC0071F90346002B01D00223CCE0FB6893F877
:101FFC003C30012B01D10223C5E0FB68012283F8A0
:10200C003C20FB681B681B6803F00103012B07D005
:10201C00FB681B681A68FB681B6842F001021A60B7
:10202C00FB681B681A68FB681B6822F400621A6064
:10203C00FB68212283F83D20FB68402283F83E2078
:10204C00FB6800221A64FB683A6A5A62FB68BA8C15
:10205C005A85FB685B8D9AB2FB681A85FB684D4A02
:10206C00DA62F8883A8979897B690193BB6A0093B3
:10207C000346F86800F090F80346002B52D0012379
:10208C0081E07A69B96AF86800F036FA0346002BE9
:10209C000DD0FB681B6C042B07D1FB681B681A68FE
:1020AC00FB681B6842F400721A6001236BE0FB684A
:1020BC005B6A1A78FB681B681A61FB685B6A5A1CBE
:1020CC00FB685A62FB681B8D013B9AB2FB681A8550
:1020DC00FB685B8D9BB2013B9AB2FB685A85FB682F
:1020EC001B685B6903F00403042B1BD1FB681B8D7D
:1020FC00002B17D0FB685B6A1A78FB681B681A61A7
:10210C00FB685B6A5A1CFB685A62FB681B8D013BBF
:10211C009AB2FB681A85FB685B8D9BB2013B9AB245
:10212C00FB685A85FB681B8D002BAAD17A69B96AAA
:10213C00F86800F029FA0346002B0DD0FB681B6CE5
:10214C00042B07D1FB681B681A68FB681B6842F4F8
:10215C0000721A60012316E0FB681B681A68FB68A2
:10216C001B6842F400721A60FB68202283F83D2041
:10217C00FB68002283F83E20FB68002283F83C2099
:10218C00002300E0022318461837BD4680BD00BF6F
:10219C00020010000000FFFF80B588B002AFF860AD
:1021AC00084611461A4603467B810B463B81134673
:1021BC00FB80FB681B681A68FB681B6842F4807222
:1021CC001A607B6A00933B6A00224FF00111F86899
:1021DC0000F078F80346002B0DD0FB681B681B68D9
:1021EC0003F48073B3F5807F03D1FB684FF4007266
:1021FC001A6403235FE07B89DBB21A46FB681B6819
:10220C0002F0FE021A617B6A3A6A2D49F86800F006
:10221C00D3F80346002B01D001234CE000237B6153
:10222C00FB681B685B697B61FB681B689B697B6156
:10223C007B697A6A396AF86800F05EF90346002B0C
:10224C000DD0FB681B6C042B07D1FB681B681A684C
:10225C00FB681B6842F400721A6001232BE0FB88B8
:10226C00012B05D13B89DAB2FB681B681A6121E0AE
:10227C003B891B0A9BB2DAB2FB681B681A617A6A4B
:10228C00396AF86800F038F90346002B0DD0FB686A
:10229C001B6C042B07D1FB681B681A68FB681B6856
:1022AC0042F400721A60012305E03B89DAB2FB6844
:1022BC001B681A61002318461837BD4680BD00BF45
:1022CC000200010080B584B000AFF860B9603B60DB
:1022DC001346FB7148E03B68B3F1FF3F44D0FFF776
:1022EC0043F80246BB69D31A3A689A4202D33B6858
:1022FC00002B39D1BB681B0CDBB2012B0DD1FB6859
:10230C001B685B69DA43BB6813409BB2002B0CBFA4
:10231C0001230023DBB21A460CE0FB681B689B69A7
:10232C00DA43BB6813409BB2002B0CBF0123002384
:10233C00DBB21A46FB799A4216D1FB6800221A636B
:10234C00FB68202283F83D20FB68002283F83E20A6
:10235C00FB681B6C43F02002FB681A64FB680022CC
:10236C0083F83C20012323E0BB681B0CDBB2012B60
:10237C000DD1FB681B685B69DA43BB6813409BB2E9
:10238C00002B0CBF01230023DBB21A460CE0FB68C8
:10239C001B689B69DA43BB6813409BB2002B0CBFD4
:1023AC0001230023DBB21A46FB799A4293D0002317
:1023BC0018461037BD4680BD80B584B000AFF860BC
:1023CC00B9607A603B6071E0FB681B685B6903F481
:1023DC008063B3F5806F23D1FB681B681A68FB68B8
:1023EC001B6842F400721A60FB681B686FF4806211
:1023FC005A61FB6800221A63FB68202283F83D2097
:10240C00FB68002283F83E20FB681B6C43F004023F
:10241C00FB681A64FB68002283F83C20012367E008
:10242C007B68B3F1FF3F41D0FEF79EFF02463B684D
:10243C00D31A7A689A4202D37B68002B36D1BB68D8
:10244C001B0CDBB2012B0CD1FB681B685B69DA43FC
:10245C00BB6813409BB2002B14BF01230023DBB2DB
:10246C000BE0FB681B689B69DA43BB6813409BB2AB
:10247C00002B14BF01230023DBB2002B16D0FB680A
:10248C0000221A63FB68202283F83D20FB6800229F
:10249C0083F83E20FB681B6C43F02002FB681A6437
:1024AC00FB68002283F83C20012321E0BB681B0C55
:1024BC00DBB2012B0CD1FB681B685B69DA43BB6890
:1024CC0013409BB2002B14BF01230023DBB20BE0A3
:1024DC00FB681B689B69DA43BB6813409BB2002BFB
:1024EC0014BF01230023DBB2002B7FF46DAF00235C
:1024FC0018461037BD4680BD80B584B000AFF8607B
:10250C00B9607A6034E0F86800F086F80346002B76
:10251C0001D0012334E0BB68B3F1FF3F28D0FEF7B4
:10252C0023FF02467B68D31ABA689A4202D3BB686F
:10253C00002B1DD1FB681B685B6903F08003802BAB
:10254C0016D0FB6800221A63FB68202283F83D201A
:10255C00FB68002283F83E20FB681B6C43F02002D2
:10256C00FB681A64FB68002283F83C20012307E017
:10257C00FB681B685B6903F08003802BC3D10023CD
:10258C0018461037BD4680BD80B584B000AFF860EA
:10259C00B9607A6034E0F86800F03EF80346002B2E
:1025AC0001D0012334E0BB68B3F1FF3F28D0FEF724
:1025BC00DBFE02467B68D31ABA689A4202D3BB6828
:1025CC00002B1DD1FB681B685B6903F00403042B13
:1025DC0016D0FB6800221A63FB68202283F83D208A
:1025EC00FB68002283F83E20FB681B6C43F0200242
:1025FC00FB681A64FB68002283F83C20012307E087
:10260C00FB681B685B6903F00403042BC3D1002334
:10261C0018461037BD4680BD80B483B000AF7860DB
:10262C007B681B685B6903F48063B3F5806F1BD117
:10263C007B681B686FF480625A617B6800221A63A6
:10264C007B68202283F83D207B68002283F83E20A3
:10265C007B681B6C43F004027B681A647B68002265
:10266C0083F83C20012300E0002318460C37BD46BC
:10267C0080BC704780B586B000AF78607B68002B5B
:10268C0001D1012372E27B681B6803F00103002B6C
:10269C0000F08780924B5B6803F00C03042B0CD08A
:1026AC008F4B5B6803F00C03082B12D18C4B5B68CF
:1026BC0003F48033B3F5803F0BD1894B1B6803F4D3
:1026CC000033002B6CD07B685B68002B68D1012336
:1026DC004CE27B685B68B3F5803F06D1804B1B688E
:1026EC007F4A43F4803313602EE07B685B68002BD9
:1026FC000CD17B4B1B687A4A23F480331360784BE4
:10270C001B68774A23F4802313601DE07B685B68A9
:10271C00B3F5A02F0CD1724B1B68714A43F4802384
:10272C0013606F4B1B686E4A43F4803313600BE0ED
:10273C006B4B1B686A4A23F480331360684B1B682D
:10274C00674A23F4802313607B685B68002B13D0EB
:10275C00FEF70AFE386108E0FEF706FE02463B690A
:10276C00D31A642B01D9032300E25D4B1B6803F4DD
:10277C000033002BF0D014E0FEF7F6FD386108E0D2
:10278C00FEF7F2FD02463B69D31A642B01D90323F1
:10279C00ECE1534B1B6803F40033002BF0D100E049
:1027AC0000BF7B681B6803F00203002B63D04C4B0B
:1027BC005B6803F00C03002B0BD0494B5B6803F0F8
:1027CC000C03082B1CD1464B5B6803F48033002BA5
:1027DC0016D1434B1B6803F00203002B05D07B681A
:1027EC001B69012B01D00123C0E13D4B1B6823F079
:1027FC00F8027B685B69DB00394913430B603AE0F4
:10280C007B681B69002B20D0364B01221A60FEF727
:10281C00ABFD386108E0FEF7A7FD02463B69D31A11
:10282C00022B01D90323A1E12D4B1B6803F00203FA
:10283C00002BF0D02A4B1B6823F0F8027B685B69F5
:10284C00DB00274913430B6015E0264B00221A606E
:10285C00FEF78AFD386108E0FEF786FD02463B690B
:10286C00D31A022B01D9032380E11D4B1B6803F003
:10287C000203002BF0D17B681B6803F00803002BCC
:10288C003AD07B689B69002B19D0174B01221A6038
:10289C00FEF76AFD386108E0FEF766FD02463B690B
:1028AC00D31A022B01D9032360E10D4B5B6A03F0B1
:1028BC000203002BF0D0012000F0BAFA1CE00A4B06
:1028CC0000221A60FEF750FD38610FE0FEF74CFD58
:1028DC0002463B69D31A022B08D9032346E100BFF9
:1028EC00001002400000424280044242924B5B6A5C
:1028FC0003F00203002BE9D17B681B6803F004038F
:10290C00002B00F0A6800023FB758B4BDB6903F0DA
:10291C008053002B0DD1884BDB69874A43F08053E1
:10292C00D361854BDB6903F08053BB60BB6801232B
:10293C00FB75824B1B6803F48073002B18D17F4B03
:10294C001B687E4A43F480731360FEF70DFD3861FB
:10295C0008E0FEF709FD02463B69D31A642B01D946
:10296C00032303E1754B1B6803F48073002BF0D039
:10297C007B68DB68012B06D16F4B1B6A6E4A43F0F8
:10298C00010313622DE07B68DB68002B0CD16A4BD2
:10299C001B6A694A23F001031362674B1B6A664A80
:1029AC0023F0040313621CE07B68DB68052B0CD15D
:1029BC00614B1B6A604A43F0040313625E4B1B6A53
:1029CC005D4A43F0010313620BE05B4B1B6A5A4AEE
:1029DC0023F001031362584B1B6A574A23F004037C
:1029EC0013627B68DB68002B15D0FEF7BDFC3861E9
:1029FC000AE0FEF7B9FC02463B69D31A41F2883271
:102A0C00934201D90323B1E04B4B1B6A03F0020341
:102A1C00002BEED014E0FEF7A7FC38610AE0FEF7BD
:102A2C00A3FC02463B69D31A41F28832934201D986
:102A3C0003239BE0404B1B6A03F00203002BEED1F7
:102A4C00FB7D012B05D13C4BDB693B4A23F08053CA
:102A5C00D3617B68DB69002B00F08780364B5B68A9
:102A6C0003F00C03082B61D07B68DB69022B46D189
:102A7C00334B00221A60FEF777FC386108E0FEF752
:102A8C0073FC02463B69D31A022B01D903236DE078
:102A9C00294B1B6803F00073002BF0D17B681B6A79
:102AAC00B3F5803F08D1244B5B6823F400327B687C
:102ABC009B68214913434B601F4B5B6823F47412D2
:102ACC007B68196A7B685B6A0B431B4913434B6039
:102ADC001B4B01221A60FEF747FC386108E0FEF739
:102AEC0043FC02463B69D31A022B01D903233DE078
:102AFC00114B1B6803F00073002BF0D035E0104B2A
:102B0C0000221A60FEF730FC386108E0FEF72CFC5E
:102B1C0002463B69D31A022B01D9032326E0064B4C
:102B2C001B6803F00073002BF0D11EE07B68DB699F
:102B3C00012B07D1012319E0001002400070004066
:102B4C00600042420B4B5B68FB60FB6803F4803215
:102B5C007B681B6A9A4206D1FB6803F470127B688F
:102B6C005B6A9A4201D0012300E000231846183713
:102B7C00BD4680BD0010024080B584B000AF7860C7
:102B8C0039607B68002B01D10123D0E06A4B1B68B4
:102B9C0003F007033A689A4210D9674B1B6823F07D
:102BAC00070265493B6813430B60634B1B6803F0DA
:102BBC0007033A689A4201D00123B8E07B681B688E
:102BCC0003F00203002B20D07B681B6803F0040386
:102BDC00002B05D0594B5B68584A43F4E0635360B3
:102BEC007B681B6803F00803002B05D0534B5B6814
:102BFC00524A43F460535360504B5B6823F0F0022D
:102C0C007B689B684D4913434B607B681B6803F0E2
:102C1C000103002B40D07B685B68012B07D1474B2D
:102C2C001B6803F40033002B15D101237FE07B6874
:102C3C005B68022B07D1414B1B6803F00073002B20
:102C4C0009D1012373E03D4B1B6803F00203002BF9
:102C5C0001D101236BE0394B5B6823F003027B68E5
:102C6C005B68364913434B60FEF77EFBF8600AE065
:102C7C00FEF77AFB0246FB68D31A41F28832934284
:102C8C0001D9032353E02D4B5B6803F00C027B68E6
:102C9C005B689B009A42EBD1274B1B6803F0070340
:102CAC003A689A4210D2244B1B6823F0070222493F
:102CBC003B6813430B60204B1B6803F007033A6817
:102CCC009A4201D0012332E07B681B6803F00403B5
:102CDC00002B08D0194B5B6823F4E0627B68DB683F
:102CEC00164913434B607B681B6803F00803002BE9
:102CFC0009D0124B5B6823F460527B681B69DB00C4
:102D0C000E4913434B6000F021F802460B4B5B68F5
:102D1C001B0903F00F030A49CB5C22FA03F3094A9F
:102D2C001360094B1B681846FEF7DCFA00231846A3
:102D3C001037BD4680BD00BF00200240001002408D
:102D4C0030450008000000200400002080B487B04B
:102D5C0000AF0023FB600023BB6000237B610023DA
:102D6C007B6000233B611E4B5B68FB60FB6803F0E0
:102D7C000C03042B02D0082B03D027E0194B3B612A
:102D8C0027E0FB689B0C03F00F03174AD35C7B60B6
:102D9C00FB6803F48033002B10D0114B5B685B0C89
:102DAC0003F00103114AD35CBB607B680D4A03FB43
:102DBC0002F2BB68B2FBF3F37B6104E07B680C4A64
:102DCC0002FB03F37B617B693B6102E0054B3B61DA
:102DDC0000BF3B6918461C37BD4680BC704700BF1E
:102DEC000010024000127A004845000858450008BF
:102DFC0000093D0080B400AF024B1B681846BD466D
:102E0C0080BC70470000002080B500AFFFF7F2FFD8
:102E1C000246054B5B681B0A03F007030349CB5CB6
:102E2C0022FA03F3184680BD00100240404500080A
:102E3C0080B485B000AF78600A4B1B680A4AA2FBCD
:102E4C0003235B0A7A6802FB03F3FB6000BFFB6899
:102E5C005A1EFA60002BF9D100BF00BF1437BD46D3
:102E6C0080BC704700000020D34D621080B586B046
:102E7C0000AF786000233B610023FB607B681B681C
:102E8C0003F00103002B7DD00023FB754F4BDB6956
:102E9C0003F08053002B0DD14C4BDB694B4A43F0B4
:102EAC008053D361494BDB6903F08053BB60BB6833
:102EBC000123FB75464B1B6803F48073002B18D160
:102ECC00434B1B68424A43F480731360FEF74CFA81
:102EDC00386108E0FEF748FA02463B69D31A642BC6
:102EEC0001D903236DE03A4B1B6803F48073002B6C
:102EFC00F0D0364B1B6A03F44073FB60FB68002B6D
:102F0C002ED07B685B6803F44073FA689A4227D032
:102F1C002E4B1B6A23F44073FB602E4B01221A606C
:102F2C002C4B00221A60294AFB681362FB6803F0E1
:102F3C000103002B14D0FEF717FA38610AE0FEF7F4
:102F4C0013FA02463B69D31A41F28832934201D9F3
:102F5C00032336E01D4B1B6A03F00203002BEED05B
:102F6C001A4B1B6A23F440727B685B681749134346
:102F7C000B62FB7D012B05D1144BDB69134A23F04B
:102F8C008053D3617B681B6803F00203002B08D0CD
:102F9C000E4B5B6823F440427B689B680B491343E0
:102FAC004B607B681B6803F01003002B08D0074BA9
:102FBC005B6823F480027B68DB68044913434B6035
:102FCC00002318461837BD4680BD00BF00100240D4
:102FDC00007000404004424280B582B000AF78607F
:102FEC007B68002B01D1012341E07B6893F83D30D5
:102FFC00DBB2002B06D17B68002283F83C2078687A
:10300C00FEF76AF87B68022283F83D207B681A6819
:10301C007B6804331946104600F0FCFA7B680122E9
:10302C0083F846207B68012283F83E207B680122CE
:10303C0083F83F207B68012283F840207B680122C3
:10304C0083F841207B68012283F842207B680122AF
:10305C0083F843207B68012283F844207B6801229B
:10306C0083F845207B68012283F83D200023184615
:10307C000837BD4680BD000080B485B000AF7860D5
:10308C007B6893F83D30DBB2012B01D0012332E099
:10309C007B68022283F83D207B681B68184A9342A8
:1030AC000ED07B681B68B3F1804F09D07B681B681E
:1030BC00144A934204D07B681B68134A934211D183
:1030CC007B681B689B6803F00703FB60FB68062B9F
:1030DC0010D07B681B681A687B681B6842F0010281
:1030EC001A6007E07B681B681A687B681B6842F0F3
:1030FC0001021A60002318461437BD4680BC704785
:10310C00002C0140000400400008004080B582B053
:10311C0000AF78607B68002B01D1012341E07B6814
:10312C0093F83D30DBB2002B06D17B68002283F88C
:10313C003C20786800F039F87B68022283F83D2047
:10314C007B681A687B6804331946104600F062FAF3
:10315C007B68012283F846207B68012283F83E209D
:10316C007B68012283F83F207B68012283F8402092
:10317C007B68012283F841207B68012283F842207E
:10318C007B68012283F843207B68012283F844206A
:10319C007B68012283F845207B68012283F83D205F
:1031AC00002318460837BD4680BD80B483B000AFFD
:1031BC00786000BF0C37BD4680BC704780B584B0CA
:1031CC0000AF786039603B68002B09D17B6893F8BD
:1031DC003E30DBB2012B14BF01230023DBB222E013
:1031EC003B68042B09D17B6893F83F30DBB2012B91
:1031FC0014BF01230023DBB215E03B68082B09D177
:10320C007B6893F84030DBB2012B14BF0123002301
:10321C00DBB208E07B6893F84130DBB2012B14BFC2
:10322C0001230023DBB2002B01D001235EE03B68BD
:10323C00002B04D17B68022283F83E2013E03B680C
:10324C00042B04D17B68022283F83F200BE03B68FF
:10325C00082B04D17B68022283F8402003E07B68B2
:10326C00022283F841207B681B68012239681846CA
:10327C0000F05CFC7B681B681E4A934207D17B689C
:10328C001B685A6C7B681B6842F400425A647B686A
:10329C001B68184A93420ED07B681B68B3F1804FB1
:1032AC0009D07B681B68144A934204D07B681B6866
:1032BC00124A934211D17B681B689B6803F0070389
:1032CC00FB60FB68062B10D07B681B681A687B6858
:1032DC001B6842F001021A6007E07B681B681A68E1
:1032EC007B681B6842F001021A60002318461037F5
:1032FC00BD4680BD002C0140000400400008004089
:10330C0080B586B000AFF860B9607A600023FB75B9
:10331C00FB6893F83C30012B01D10223AEE0FB6833
:10332C00012283F83C207B680C2B00F29F8001A2C9
:10333C0052F823F07533000879340008793400080A
:10334C0079340008B5330008793400087934000862
:10335C0079340008F7330008793400087934000810
:10336C007934000837340008FB681B68B9681846C4
:10337C0000F0BEF9FB681B689A69FB681B6842F099
:10338C0008029A61FB681B689A69FB681B6822F04B
:10339C0004029A61FB681B689969BB681A69FB682F
:1033AC001B680A439A6164E0FB681B68B96818469D
:1033BC0000F004FAFB681B689A69FB681B6842F40E
:1033CC0000629A61FB681B689A69FB681B6822F4AF
:1033DC0080629A61FB681B689969BB681B691A0259
:1033EC00FB681B680A439A6143E0FB681B68B96879
:1033FC00184600F04DFAFB681B68DA69FB681B681D
:10340C0042F00802DA61FB681B68DA69FB681B682A
:10341C0022F00402DA61FB681B68D969BB681A697F
:10342C00FB681B680A43DA6123E0FB681B68B96818
:10343C00184600F097FAFB681B68DA69FB681B6892
:10344C0042F40062DA61FB681B68DA69FB681B688E
:10345C0022F48062DA61FB681B68D969BB681B695E
:10346C001A02FB681B680A43DA6102E00123FB7550
:10347C0000BFFB68002283F83C20FB7D1846183700
:10348C00BD4680BD80B584B000AF78603960002344
:10349C00FB737B6893F83C30012B01D10223B4E021
:1034AC007B68012283F83C207B68022283F83D2054
:1034BC007B681B689B68BB60BB6823F07703BB60B1
:1034CC00BB6823F47F43BB607B681B68BA689A6057
:1034DC003B681B68B3F5005F3ED0B3F5005F00F2AC
:1034EC008780B3F5805F00F08680B3F5805F7FD86E
:1034FC00702B1AD0702B7BD8602B50D0602B77D8C8
:10350C00502B3CD0502B73D8402B58D0402B6FD81D
:10351C00302B64D0302B6BD8202B60D0202B67D86D
:10352C00002B5CD0102B5AD062E07B6818683B688B
:10353C0099683B685A683B68DB6800F0D8FA7B688E
:10354C001B689B68BB60BB6843F07703BB607B6800
:10355C001B68BA689A604FE07B6818683B6899688A
:10356C003B685A683B68DB6800F0C1FA7B681B68F3
:10357C009A687B681B6842F480429A603CE07B68E6
:10358C0018683B6859683B68DB681A4600F038FAE3
:10359C007B681B685021184600F08FFA2CE07B6882
:1035AC0018683B6859683B68DB681A4600F056FAA5
:1035BC007B681B686021184600F07FFA1CE07B6872
:1035CC0018683B6859683B68DB681A4600F018FAC3
:1035DC007B681B684021184600F06FFA0CE07B6892
:1035EC001A683B681B681946104600F066FA03E03F
:1035FC000123FB7300E000BF7B68012283F83D20B0
:10360C007B68002283F83C20FB7B18461037BD46B4
:10361C0080BD000080B485B000AF786039607B68F5
:10362C001B68FB607B682F4A93420BD07B68B3F11D
:10363C00804F07D07B682C4A934203D07B682B4A7F
:10364C00934208D1FB6823F07003FB603B685B6816
:10365C00FA681343FB607B68224A93420BD07B6869
:10366C00B3F1804F07D07B681F4A934203D07B682D
:10367C001E4A934208D1FB6823F44073FB603B68FD
:10368C00DB68FA681343FB60FB6823F080023B683D
:10369C005B691343FB607B68FA681A603B689A6845
:1036AC007B68DA623B681A687B689A627B680D4AB1
:1036BC00934203D13B681A697B681A637B680122C9
:1036CC005A617B681B6903F00103002B05D07B68F2
:1036DC001B6923F001027B681A6100BF1437BD46D9
:1036EC0080BC7047002C01400004004000080040E2
:1036FC0080B487B000AF786039607B681B6A7B61EF
:10370C007B681B6A23F001027B681A627B685B682A
:10371C003B617B689B69FB60FB6823F07003FB607B
:10372C00FB6823F00303FB603B681B68FA681343D8
:10373C00FB607B6923F002037B613B689B687A69C1
:10374C0013437B617B681C4A93420CD17B6923F049
:10375C0008037B613B68DB687A6913437B617B6997
:10376C0023F004037B617B68134A934211D13B69BC
:10377C0023F480733B613B6923F400733B613B682A
:10378C005B693A6913433B613B689B693A69134334
:10379C003B617B683A695A607B68FA689A613B685E
:1037AC005A687B685A637B687A691A6200BF1C3757
:1037BC00BD4680BC704700BF002C014080B487B070
:1037CC0000AF786039607B681B6A7B617B681B6A21
:1037DC0023F010027B681A627B685B683B617B6834
:1037EC009B69FB60FB6823F4E043FB60FB6823F4FC
:1037FC004073FB603B681B681B02FA681343FB6059
:10380C007B6923F020037B613B689B681B017A6911
:10381C0013437B617B681D4A93420DD17B6923F076
:10382C0080037B613B68DB681B017A6913437B6116
:10383C007B6923F040037B617B68144A934213D16C
:10384C003B6923F480633B613B6923F400633B6178
:10385C003B685B699B003A6913433B613B689B691E
:10386C009B003A6913433B617B683A695A607B68F9
:10387C00FA689A613B685A687B689A637B687A69D4
:10388C001A6200BF1C37BD4680BC7047002C01403B
:10389C0080B487B000AF786039607B681B6A7B614D
:1038AC007B681B6A23F480727B681A627B685B6896
:1038BC003B617B68DB69FB60FB6823F07003FB609A
:1038CC00FB6823F00303FB603B681B68FA68134337
:1038DC00FB607B6923F400737B613B689B681B0274
:1038EC007A6913437B617B681D4A93420DD17B69D6
:1038FC0023F400637B613B68DB681B027A6913432A
:10390C007B617B6923F480637B617B68144A9342FF
:10391C0013D13B6923F480533B613B6923F400537F
:10392C003B613B685B691B013A6913433B613B6834
:10393C009B691B013A6913433B617B683A695A6086
:10394C007B68FA68DA613B685A687B68DA637B6883
:10395C007A691A6200BF1C37BD4680BC704700BF35
:10396C00002C014080B487B000AF786039607B6870
:10397C001B6A3B617B681B6A23F480527B681A626A
:10398C007B685B687B617B68DB69FB60FB6823F4AD
:10399C00E043FB60FB6823F44073FB603B681B68EF
:1039AC001B02FA681343FB603B6923F400533B6131
:1039BC003B689B681B033A6913433B617B680F4A66
:1039CC00934209D17B6923F480437B613B685B693B
:1039DC009B017A6913437B617B687A695A607B68C7
:1039EC00FA68DA613B685A687B681A647B683A69E2
:1039FC001A6200BF1C37BD4680BC7047002C0140CA
:103A0C0080B487B000AFF860B9607A60FB681B6A5D
:103A1C007B61FB681B6A23F00102FB681A62FB687E
:103A2C009B693B613B6923F0F0033B617B681B01A5
:103A3C003A6913433B617B6923F00A037B617A6922
:103A4C00BB6813437B61FB683A699A61FB687A69CE
:103A5C001A6200BF1C37BD4680BC704780B487B06B
:103A6C0000AFF860B9607A60FB681B6A7B61FB6829
:103A7C001B6A23F01002FB681A62FB689B693B61AE
:103A8C003B6923F470433B617B681B033A69134326
:103A9C003B617B6923F0A0037B61BB681B017A69E6
:103AAC0013437B61FB683A699A61FB687A691A6215
:103ABC0000BF1C37BD4680BC704780B485B000AFDA
:103ACC00786039607B689B68FB60FB6823F070034F
:103ADC00FB603A68FB68134343F00703FB607B68A9
:103AEC00FA689A6000BF1437BD4680BC704780B43A
:103AFC0087B000AFF860B9607A603B60FB689B6888
:103B0C007B617B6923F47F437B613B681A027B6892
:103B1C001A43BB6813437A6913437B61FB687A6968
:103B2C009A6000BF1C37BD4680BC704780B487B01C
:103B3C0000AFF860B9607A60BB6803F01F03012224
:103B4C0002FA03F37B61FB681A6A7B69DB431A4058
:103B5C00FB681A62FB681A6ABB6803F01F0379687A
:103B6C0001FA03F31A43FB681A6200BF1C37BD4607
:103B7C0080BC704780B485B000AF786039607B68DA
:103B8C0093F83C30012B01D1022346E07B680122E3
:103B9C0083F83C207B68022283F83D207B681B68FD
:103BAC005B68FB607B681B689B68BB60FB6823F0F1
:103BBC007003FB603B681B68FA681343FB607B680F
:103BCC001B68FA685A607B681B68164A93420ED0D1
:103BDC007B681B68B3F1804F09D07B681B68124A65
:103BEC00934204D07B681B68104A93420CD1BB688B
:103BFC0023F08003BB603B685B68BA681343BB600F
:103C0C007B681B68BA689A607B68012283F83D2048
:103C1C007B68002283F83C20002318461437BD46ED
:103C2C0080BC7047002C014000040040000800409C
:103C3C0080B485B000AF786039600023FB607B688E
:103C4C0093F83C30012B01D102233DE07B6801222B
:103C5C0083F83C20FB6823F0FF023B68DB681343CE
:103C6C00FB60FB6823F440723B689B681343FB606A
:103C7C00FB6823F480623B685B681343FB60FB6862
:103C8C0023F400623B681B681343FB60FB6823F45E
:103C9C0080523B681B691343FB60FB6823F40052A2
:103CAC003B685B691343FB60FB6823F480423B6811
:103CBC00DB691343FB607B681B68FA685A647B689A
:103CCC00002283F83C20002318461437BD4680BCE4
:103CDC00704703460244934200D1704703F8011B1E
:103CEC00F9E7000070B500260C4D0D4C641BA410B8
:103CFC00A64209D100F01AF800260A4D0A4C641BA2
:103D0C00A410A64205D170BD55F8043B9847013666
:103D1C00EEE755F8043B98470136F2E75C4500089E
:103D2C005C4500085C45000860450008F8B500BF1C
:103D3C00F8BC08BC9E467047F8B500BFF8BC08BC80
:043D4C009E467047D8
:103D500042555A5A45523A20494E4943494F00006C
:103D600042555A5A45523A20415441515545000056
:103D700042555A5A45523A20494D504143544F00FA
:103D800042555A5A45523A20564943544F52494196
:103D90000000000042555A5A45523A2044455252BA
:103DA0004F54410042555A5A45523A2042415420FC
:103DB00042414A41000000000000000000000000F5
:103DC00000000000000000000000000000100010D3
:103DD0000010001000100010000000100000000093
:103DE000002800280028000000000000000000005B
:103DF0000000000000240024007C00240048007C17
:103E0000004800480000000000380054005000380E
:103E1000001400540054003800100000002000542A
:103E20000058003000280054001400080000000072
:103E3000001000280028001000340048004800341A
:103E40000000000000100010001000000000000042
:103E5000000000000000000000080010002000200A
:103E6000002000200020002000100008002000108A
:103E700000080008000800080008000800100020E2
:103E800000100038001000280000000000000000B2
:103E9000000000000000000000100010007C001076
:103EA0000010000000000000000000000000000002
:103EB00000000000000000100010001000000000D2
:103EC00000000000000000380000000000000000BA
:103ED00000000000000000000000000000000010D2
:103EE0000000000000080008001000100010001082
:103EF000002000200000000000380044004400546E
:103F0000004400440044003800000000001000306D
:103F10000050001000100010001000100000000001
:103F20000038004400440004000800100020007C19
:103F300000000000003800440004001800040004E1
:103F40000044003800000000000800180028002885
:103F50000048007C0008000800000000007C0040D1
:103F60000040007800040004004400380000000015
:103F70000038004400400078004400440044003809
:103F800000000000007C0004000800100010002069
:103F900000200020000000000038004400440038E9
:103FA0000044004400440038000000000038004491
:103FB00000440044003C00040044003800000000BD
:103FC00000000000001000000000000000000010D1
:103FD00000000000000000000000001000000000D1
:103FE000000000100010001000000000000C003065
:103FF00000400030000C0000000000000000000045
:104000000000007C0000007C0000000000000000B8
:1040100000000000006000180004001800600000AC
:1040200000000000003800440004000800100010E8
:10403000000000100000000000380044004C005454
:10404000005C004000400038000000000010002824
:10405000002800280028007C0044004400000000E4
:104060000078004400440078004400440044007894
:1040700000000000003800440040004000400040C4
:104080000044003800000000007000480044004474
:10409000004400440048007000000000007C004024
:1040A0000040007C004000400040007C0000000018
:1040B000007C00400040007800400040004000408C
:1040C000000000000038004400400040005C004454
:1040D0000044003800000000004400440044007C1C
:1040E0000044004400440044000000000038001078
:1040F0000010001000100010001000380000000038
:10410000000400040004000400040004004400381B
:1041100000000000004400480050006000500048CB
:104120000048004400000000004000400040004003
:10413000004000400040007C000000000044006C93
:10414000006C00540044004400440044000000009F
:1041500000440064006400540054004C004C0044CF
:1041600000000000003800440044004400440044C3
:10417000004400380000000000780044004400447F
:10418000007800400040004000000000003800447B
:10419000004400440044004400540038000400007F
:1041A000007800440044004400780048004800447F
:1041B0000000000000380044004000300008000407
:1041C0000044003800000000007C001000100010C7
:1041D0000010001000100010000000000044004417
:1041E0000044004400440044004400380000000043
:1041F000004400440044002800280028001000105B
:104200000000000000440044005400540054006CBE
:1042100000280028000000000044002800280010AA
:104220000010002800280044000000000044004462
:1042300000280028001000100010001000000000EE
:10424000007C000400080010001000200040007CEA
:1042500000000000001800100010001000100010F6
:1042600000100010001000180020002000100010A6
:1042700000100010000800080000000000300010CE
:10428000001000100010001000100010001000308E
:10429000001000280028004400000000000000007A
:1042A000000000000000000000000000000000000E
:1042B00000000000000000FE0020001000000000D0
:1042C00000000000000000000000000000000000EE
:1042D00000380044003C0044004C00340000000062
:1042E000004000400058006400440044006400584E
:1042F00000000000000000000038004400400040C2
:104300000044003800000000000400040034004CA9
:1043100000440044004C0034000000000000000095
:1043200000380044007C00400044003800000000D9
:10433000000C0010007C0010001000100010001095
:1043400000000000000000000034004C0044004465
:10435000004C003400040078004000400058006425
:10436000004400440044004400000000001000002D
:10437000007000100010001000100010000000007D
:10438000001000000070001000100010001000105D
:10439000001000E000400040004800500060005065
:1043A00000480044000000000070001000100010E1
:1043B00000100010001000100000000000000000BD
:1043C00000780054005400540054005400000000D1
:1043D0000000000000580064004400440044004411
:1043E00000000000000000000038004400440044C9
:1043F0000044003800000000000000000058006485
:1044000000440044006400580040004000000000E8
:104410000034004C00440044004C0034000400040C
:1044200000000000005800640040004000400040D0
:1044300000000000000000000038004400300008C8
:104440000044003800000000002000200078002018
:1044500000200020002000180000000000000000E4
:104460000044004400440044004C003400000000BC
:10447000000000000044004400280028002800102C
:104480000000000000000000005400540054006CC4
:104490000028002800000000000000000044002860
:1044A0000010001000280044000000000000000080
:1044B0000044004400280028001000100010006094
:1044C00000000000007C0008001000200040007C7C
:1044D0000000000000180010001000100020002054
:1044E0000010001000100018001000100010001044
:1044F000001000100010001000100010003000101C
:10450000001000100008000800100010001000301B
:104510000000000000000074004C000000000000DB
:1045200000000000070A0000B83D0008000000007D
:104530000000000000000000010203040607080953
:104540000000000001020304020304050607080935
:0C4550000A0B0C0D0E0F101001020000F1
:04455C003101000821
:044560000D01000841
:0C45640000127A001000000001000000AE
:040000050800127964
:00000001FF
