:020000040800F2
:1000000000500020FD2000081D20000825200008C9
:100010002D200008352000083D20000800000000C9
:100020000000000000000000000000004520000863
:1000300051200008000000005D2000086920000831
:1000400045210008452100084521000845210008F8
:1000500045210008452100084521000845210008E8
:1000600045210008452100084521000845210008D8
:1000700045210008452100084521000845210008C8
:1000800045210008452100084521000845210008B8
:1000900045210008452100084521000845210008A8
:1000A0004521000845210008452100084521000898
:1000B0004521000845210008452100084521000888
:1000C0004521000845210008452100084521000878
:1000D0004521000845210008452100084521000868
:1000E0007520000845210008452100080000000097
:1000F0000000000000000000000000000000000000
:0C01000000000000000000005FF808F1A3
:10010C0010B5054C237833B9044B13B10448AFF345
:10011C0000800123237010BD60000020000000004F
:10012C00C465000808B5034B1BB103490348AFF382
:10013C00008008BD0000000064000020C4650008B9
:10014C0080B582B000AF01F0F9FF00F03DF900F08E
:10015C00FBFB00F095F900F09FFA00F027FB00F094
:10016C00CDF900F0F9F900F0A1FB0021854804F06D
:10017C00E7FF844B1B6800225A63834804F03EFF60
:10018C000021824804F0DCFF0421804804F0D8FFF1
:10019C0004217F4804F0D4FF08217D4804F0D0FFEF
:1001AC000C217B4804F0CCFF794B1B6800229A632E
:1001BC00774B1B680022DA63754B1B6800221A64AC
:1001CC0001F0B2FB002001F019FC01F02FFC01F052
:1001DC0039F94FF4FA7002F013F80021002000F006
:1001EC0031FD02F003F878606A4B1B78DBB2002B10
:1001FC0014D001F0FBFF0246674B1B68D31A312B5E
:10020C000CD9644B00221A704FF48061634802F0E1
:10021C0005FF0346002B01D101F0A0FA604B1B78BF
:10022C00DBB2002B12D14FF480615C4802F0F6FE79
:10023C000346012B0AD101F0D9FF0246564B1B682D
:10024C00D31AF92B02D9564B01221A70554B1B6845
:10025C007A68D31AB3F5FA7F07D3524A7B681360D6
:10026C004FF40051504802F008FF00F0CDFF4F4B07
:10027C001B687A68D31AB3F57A7F04D34B4A7B6830
:10028C00136001F0D3F94A4B1B78002B13D00021DB
:10029C00002000F0D7FC002000F040FC002000F013
:1002AC0087FC444B00221A60434B00221A60032047
:1002BC0000F0F6FE95E7414B1B78DBB2002B10D11A
:1002CC000021002000F0BEFC002000F027FC0020E4
:1002DC0000F06EFC374B00221A60374B00221A607C
:1002EC007FE7364B1B78DBB2012B13D100210020AA
:1002FC0000F0A8FC002000F011FC002000F058FCDD
:10030C002C4B00221A602C4B00221A60022000F0A9
:10031C00C7FE66E7294B1B78DBB2022B17D1284BA3
:10032C001B687A68D31A4F2B04D9254A7B68136053
:10033C0000F0A6FD234B1B687A68D31A092B7FF6B5
:10034C0050AF204A7B68136000F090FC49E71B4BD0
:10035C001B78DBB2032B7FF444AF0021002000F0AC
:10036C0071FC002000F0DAFB002000F021FC114BA6
:10037C0000221A60104B00221A60002000F090FE40
:10038C002FE700BF00010020D801002090010020C1
:10039C00480100204C02002050020020000C0140BB
:1003AC0001000020540200200010014058020020DF
:1003BC004902002020020020240200204B020020D1
:1003CC005C0200206002002080B594B000AF07F101
:1003DC00280328220021184605F060FC07F11403BD
:1003EC0000221A605A609A60DA601A613B1D002282
:1003FC001A605A609A60DA600123BB624FF4803352
:10040C00FB6200233B630123BB6302237B644FF439
:10041C008033BB644FF4E013FB6407F128031846E8
:10042C0004F020F80346002B01D001F03FFA0F2313
:10043C007B610223BB610023FB614FF480633B6251
:10044C0000237B6207F114030221184604F08CFA96
:10045C000346002B01D001F029FA02237B604FF4F4
:10046C000043FB603B1D184604F00CFC0346002BBC
:10047C0001D001F01BFA00BF5037BD4680BD000013
:10048C0080B584B000AF3B1D00221A605A609A60A0
:10049C00184B194A1A60174B00229A60154B002210
:1004AC001A73144B00221A75124B4FF46022DA6146
:1004BC00104B00225A600F4B01221A610D4801F0BB
:1004CC00C3FE0346002B01D001F0F0F900237B6042
:1004DC000123BB600523FB603B1D1946054802F058
:1004EC0077F90346002B01D001F0E0F900BF10377B
:1004FC00BD4680BD7C0000200024014080B500AFCB
:10050C00124B134A1A60114B124A5A600F4B0022BD
:10051C009A600E4B0022DA600C4B4FF480421A6149
:10052C000A4B00225A61094B00229A61074B0022A8
:10053C00DA61064B00221A62044802F0CFFD034632
:10054C00002B01D001F0B2F900BF80BDAC0000203F
:10055C0000540040A086010080B596B000AF07F1B2
:10056C00480300221A605A609A60DA6007F140036F
:10057C0000221A605A6007F1240300221A605A60A4
:10058C009A60DA601A615A619A613B1D202200213F
:10059C00184605F083FB3E4B3E4A1A603C4B472203
:1005AC005A603B4B00229A60394B40F2E732DA60DA
:1005BC00374B00221A61364B00225A61344B002211
:1005CC009A61334804F0CAFC0346002B01D001F0B9
:1005DC006DF94FF48053BB6407F1480319462C485E
:1005EC0004F012FF0346002B01D001F05FF92848FC
:1005FC0004F04EFD0346002B01D001F057F9002307
:10060C003B6400237B6407F140031946204805F046
:10061C0073FA0346002B01D001F048F960237B628A
:10062C000023BB620023FB6200233B6300237B633C
:10063C000023BB630023FB6307F12403002219464C
:10064C00134804F01FFE0346002B01D001F02EF9D5
:10065C0000237B600023BB600023FB6000233B6115
:10066C0000237B614FF40053BB6100233B623B1DB5
:10067C001946074805F09EFA0346002B01D001F0FD
:10068C0015F9034801F052FC00BF5837BD4680BD38
:10069C0000010020002C014080B58EB000AF07F1A6
:1006AC00280300221A605A609A60DA6007F120036E
:1006BC0000221A605A603B1D00221A605A609A6030
:1006CC00DA601A615A619A61374B4FF080421A60B6
:1006DC00354B47225A60344B00229A60324B6322CE
:1006EC00DA60314B00221A612F4B00229A612E489E
:1006FC0004F034FC0346002B01D001F0D7F84FF482
:10070C008053BB6207F128031946274804F07CFE8E
:10071C000346002B01D001F0C9F8234804F0B8FCC3
:10072C000346002B01D001F0C1F800233B620023EB
:10073C007B6207F1200319461B4805F0DDF90346DF
:10074C00002B01D001F0B2F860237B600023BB606A
:10075C000023FB6000237B613B1D042219461248D9
:10076C0004F090FD0346002B01D001F09FF83B1DD7
:10077C00082219460C4804F085FD0346002B01D0D5
:10078C0001F094F83B1D0C221946074804F07AFD41
:10079C000346002B01D001F089F8034801F0C6FB99
:1007AC0000BF3837BD4680BD4801002080B58EB0F3
:1007BC0000AF07F1280300221A605A609A60DA60D1
:1007CC0007F1200300221A605A603B1D00221A60B8
:1007DC005A609A60DA601A615A619A61314B324AF6
:1007EC001A60304B47225A602E4B00229A602D4BD8
:1007FC006322DA602B4B00221A612A4B00229A6189
:10080C00284804F0ABFB0346002B01D001F04EF856
:10081C004FF48053BB6207F128031946214804F0BA
:10082C00F3FD0346002B01D001F040F81D4804F005
:10083C002FFC0346002B01D001F038F800233B625B
:10084C0000237B6207F120031946164805F054F982
:10085C000346002B01D001F029F860237B600023B4
:10086C00BB600023FB6000237B613B1D002219460B
:10087C000C4804F007FD0346002B01D001F016F8DC
:10088C003B1D04221946074804F0FCFC0346002BD0
:10089C0001D001F00BF8034801F048FB00BF3837DA
:1008AC00BD4680BD900100200004004080B586B09C
:1008BC0000AF07F1080300221A605A609A60DA60F0
:1008CC003B4600221A605A601D4B1E4A1A601C4B94
:1008DC0047225A601A4B00229A60194B4FF6FF724E
:1008EC00DA60174B00221A61154B00229A611448EA
:1008FC0004F034FB0346002B01D000F0D7FF4FF47B
:10090C008053BB6007F1080319460D4804F07CFDC9
:10091C000346002B01D000F0C9FF00233B600023ED
:10092C007B603B461946064805F0E6F80346002B6B
:10093C0001D000F0BBFF00BF1837BD4680BD00BF23
:10094C00D80100200008004080B588B000AF07F146
:10095C00100300221A605A609A60DA60494B9B6956
:10096C00484A43F010039361464B9B6903F0100314
:10097C00FB60FB68434B9B69424A43F02003936145
:10098C00404B9B6903F02003BB60BB683D4B9B69EC
:10099C003C4A43F0040393613A4B9B6903F0040314
:1009AC007B607B68374B9B69364A43F00803936145
:1009BC00344B9B6903F008033B603B6800224FF407
:1009CC000051314802F041FB002230212F4802F047
:1009DC003CFB002243F203012D4802F036FB4FF49E
:1009EC0000533B6101237B610023BB610223FB614C
:1009FC0007F110031946244802F08CF930233B61AF
:100A0C0001237B610023BB610223FB6107F110030F
:100A1C0019461E4802F07EF943F203033B610123A1
:100A2C007B610023BB610223FB6107F110031946B4
:100A3C00174802F06FF94FF480633B61154B7B61F3
:100A4C000123BB6107F110031946114802F062F94A
:100A5C004FF440433B6100237B610023BB6107F1F2
:100A6C00100319460A4802F055F9002200212820EB
:100A7C0002F019F9282002F032F900BF2037BD46E8
:100A8C0080BD00BF00100240001001400008014072
:100A9C00000C01400000211080B485B000AF7860DC
:100AAC0039603B68002B01DA00233B603B68642B08
:100ABC0001DD64233B603A6813465B0013445A0122
:100ACC001344144A82FB03125211DB17D31AFB6036
:100ADC007B68002B04D1104B1B68FA685A6313E037
:100AEC007B68042B04D10C4B1A68FB6893630BE0F6
:100AFC007B68082B04D1084B1A68FB68D36303E0AE
:100B0C00054B1A68FB68136400BF1437BD4680BCE4
:100B1C00704700BF1F85EB519001002080B582B05B
:100B2C0000AF78607B68642B01DD64237B607B689D
:100B3C0013F1640F02DA6FF063037B607B68002BA8
:100B4C000EDD01220121194802F07FFA0022022158
:100B5C00164802F07AFA79680020FFF79DFF21E031
:100B6C007B68002B10DA00220121104802F06DFA8C
:100B7C00012202210D4802F068FA7B685B4219469B
:100B8C000020FFF789FF0DE000220121074802F049
:100B9C005CFA00220221054802F057FA00210020DD
:100BAC00FFF77AFF00BF0837BD4680BD000C01403F
:100BBC0080B582B000AF78607B68642B01DD642364
:100BCC007B607B6813F1640F02DA6FF063037B6068
:100BDC007B68002B0EDD01221021194802F035FA3A
:100BEC0000222021164802F030FA79680420FFF721
:100BFC0053FF21E07B68002B10DA002210211048F3
:100C0C0002F023FA012220210D4802F01EFA7B6823
:100C1C005B4219460420FFF73FFF0DE00022102134
:100C2C00074802F012FA00222021054802F00DFAC2
:100C3C0000210420FFF730FF00BF0837BD4680BD00
:100C4C000008014080B483B000AF78603960054A79
:100C5C007B681360044A3B68136000BF0C37BD46C9
:100C6C0080BC7047280200202C02002080B500AF09
:100C7C00304B1A68304B1B689A420FDA2D4B1B68AD
:100C8C000A332C4A13602B4B1A682B4B1B689A4265
:100C9C0019DD294B1B68274A136014E0254B1A6891
:100CAC00254B1B689A420EDD224B1B680A3B214ADE
:100CBC001360204B1A68204B1B689A4203DA1E4BB8
:100CCC001B681C4A13601D4B1A681D4B1B689A420B
:100CDC000FDA1A4B1B680A33184A1360174B1A6841
:100CEC00174B1B689A4219DD154B1B68134A13608E
:100CFC0014E0124B1A68124B1B689A420EDD0F4B14
:100D0C001B680A3B0D4A13600C4B1A680C4B1B6892
:100D1C009A4203DA0A4B1B68084A1360054B1B689E
:100D2C001846FFF7FBFE054B1B681846FFF740FF04
:100D3C0000BF80BD200200202802002024020020D9
:100D4C002C02002080B483B000AF0346FB80084B1C
:100D5C001B6800225A6200BF054B1B685A6AFB884D
:100D6C009A42F9D300BF00BF0C37BD4680BC704718
:100D7C00D801002080B586B000AFF8607A601A46C2
:100D8C000B467B8113463B8100237B6100233B6137
:100D9C007B8900221946F86802F057F90220FFF708
:100DAC00D1FF7B8901221946F86802F04EF90A201E
:100DBC00FFF7C8FF7B8900221946F86802F045F955
:100DCC0000233B610AE03B6901333B613B6947F21D
:100DDC003052934202D940F2E7332AE03B8919465C
:100DEC00786802F01BF90346002BECD0134B1B6800
:100DFC0000225A6200233B610EE0104B1B685B6AB9
:100E0C007B613B6901333B613B6947F23052934252
:100E1C0002D940F2E7330CE03B891946786802F0BE
:100E2C00FDF80346012BE8D07B69054AA2FB03239E
:100E3C005B0918461837BD4680BD00BFD80100209D
:100E4C0009CB3D8D80B582B000AF0023FB800B48F1
:100E5C0001F0D2FA0A21094801F0A8FB0346002B45
:100E6C0004D1064801F0A8FC0346FB80034801F0BE
:100E7C0071FBFB8818460837BD4680BD7C000020FE
:100E8C0080B582B000AFFFF7DDFF03461A46374B43
:100E9C001A804FF48043364A4FF480513448FFF7A0
:100EAC0069FF0346334A1360322001F0A9F94FF46D
:100EBC0000432F4A4FF400512D48FFF75BFF0346C8
:100ECC002D4A13600023FB710023BB7100237B713F
:100EDC00264B1B88B3F5966F01D90123FB71254B6B
:100EEC001B68022B05D9234B1B682C2B01D8012323
:100EFC00BB71214B1B68022B05D91F4B1B682C2B7C
:100F0C0001D801237B71FB79002B04D05F215F207A
:100F1C00FFF798FE26E0BB79002B07D07B79002BDE
:100F2C0004D155212D20FFF78DFE1BE07B79002B82
:100F3C0007D0BB79002B04D12D215520FFF782FE61
:100F4C0010E0BB79002B07D07B79002B04D05F21FC
:100F5C005F20FFF777FE05E06FF02C012D20FFF7E7
:100F6C0071FEFFE700BF0837BD4680BD3802002088
:100F7C00000C0140300200203402002080B584B007
:100F8C0000AF03460A46FB801346BB80FB88002B50
:100F9C0008D1134B1B6800225A63BB88184601F01A
:100FAC002FF919E0FB880F4A92FBF3F3013BFB602E
:100FBC000B4B1B68FA68DA62094AFB68D360084B72
:100FCC001B68FA6852085A63BB88184601F018F976
:100FDC00034B1B6800225A631037BD4680BD00BF0F
:100FEC000001002040420F0080B500AF64214FF497
:100FFC002F70FFF7C3FF282001F002F964214FF492
:10100C006170FFF7BBFF282001F0FAF8642140F271
:10101C004C40FFF7B3FF282001F0F2F878214FF491
:10102C00AF60FFF7ABFF282001F0EAF8B4214FF4D2
:10103C00E160FFF7A3FF00BF80BD80B500AF642166
:10104C004FF47A70FFF79AFF502001F0D9F8642121
:10105C004FF47A70FFF792FF502001F0D1F8642121
:10106C004FF47A70FFF78AFF4FF4C87001F0C8F89C
:10107C0064214FF47A70FFF781FF502001F0C0F823
:10108C0064214FF47A70FFF779FF502001F0B8F823
:10109C0064214FF47A70FFF771FF00BF80BD000030
:1010AC0080B582B000AF0346FB710A4B1B78FA790E
:1010BC009A420AD0074AFB79137001F097F803465D
:1010CC00054A1360054B00221A7000BF0837BD4655
:1010DC0080BD00BF000000203C0200204002002028
:1010EC0080B487B000AF0346FB710B46BB7113464F
:1010FC007B71FB79642B01D96423FB71BB79642B65
:10110C0001D96423BB717B79642B01D964237B7176
:10111C00FA7913465B0013445A011344184A82FBB4
:10112C0003125211DB17D31A7B61BA7913465B0099
:10113C0013445A011344124A82FB03125211DB1757
:10114C00D31A3B617A7913465B0013445A0113445A
:10115C000B4A82FB03125211DB17D31AFB60094BAB
:10116C001B687A699A63074B1B683A69DA63054B0B
:10117C001B68FA681A6400BF1C37BD4680BC7047F8
:10118C001F85EB514801002080B500AF00220021E3
:10119C000020FFF7A5FF00BF80BD80B500AF002287
:1011AC0000216420FFF79CFF00BF80BD80B500AF1D
:1011BC00002264210020FFF793FF00BF80BD80B5A3
:1011CC0000AF642200210020FFF78AFF00BF80BD22
:1011DC0080B500AF002223216420FFF781FF00BF00
:1011EC0080BD80B500AF642200214620FFF778FF58
:1011FC0000BF80BD80B500AF64222D215020FFF7C9
:10120C006FFF00BF80BD000080B582B000AF00F062
:10121C00EDFF7860584B1B78002B0BD0574B1B689D
:10122C007A68D31AB32B02D8FFF7E4FFA0E0524B35
:10123C0000221A70524B1B78072B00F2968001A2E9
:10124C0052F823F071120008771200087D12000882
:10125C00B9120008F5120008311300086B130008CE
:10126C0071130008FFF7ABFF82E0FFF79FFF7FE0F1
:10127C00444B1B687A68D31AB3F5FA7F0CD3414AF6
:10128C007B681360404B1B78002B0CBF01230023A1
:10129C00DBB21A463C4B1A703B4B1B78002B02D02E
:1012AC00FFF796FF64E0FFF76FFF61E0354B1B68BB
:1012BC007A68D31AB3F5967F0CD3324A7B681360E5
:1012CC00314B1B78002B0CBF01230023DBB21A46D9
:1012DC002D4B1A702C4B1B78002B02D0FFF75DFFA7
:1012EC0046E0FFF751FF43E0264B1B687A68D31AA0
:1012FC00B3F5C87F0CD3234A7B681360224B1B7851
:10130C00002B0CBF01230023DBB21A461E4B1A70B4
:10131C001D4B1B78002B02D0FFF763FF28E0FFF773
:10132C0033FF25E0174B1B687A68D31A772B0CD93F
:10133C00144A7B681360144B1B78002B0CBF0123E1
:10134C000023DBB21A46104B1A700F4B1B78002B84
:10135C0002D0FFF72BFF0BE0FFF716FF08E0FFF7BB
:10136C001CFF05E0FFF746FF02E0FFF70DFF00BF93
:10137C000837BD4680BD00BF480200204402002053
:10138C00000000203C0200204002002080B586B006
:10139C0002AF03460A46FB711346BB80FB793B73D5
:1013AC00BB881B0A9BB2DBB27B73BB88DBB2BB7303
:1013BC0007F10C026423009303238021064801F0FB
:1013CC00D1FF0346002B01D1012300E00023184676
:1013DC001037BD4680BD00BFAC00002080B586B084
:1013EC0002AF03463960FB71FA1D6423009301239D
:1013FC008021134801F0B6FF0346002B01D00023D7
:10140C0019E007F10C0264230093022380210C489D
:10141C0002F0A6F80346002B01D000230BE03B7B27
:10142C001BB21B021AB27B7B1BB213431BB29AB2C8
:10143C003B681A80012318461037BD4680BD00BF9B
:10144C00AC00002080B500AF43F69F110020FFF7E1
:10145C009DFF0346002B01D100230AE04FF480517D
:10146C000520FFF793FF0346002B01D1002300E07A
:10147C000123184680BD80B582B000AF0023FB80ED
:10148C00BB1D19460220FFF7A9FF0346002B01D113
:10149C00002306E0FB88DB089BB2FB80FB889B00EB
:1014AC009BB218460837BD4680BD80B582B000AFF0
:1014BC000023FB80BB1D19460420FFF78FFF03465A
:1014CC00002B01D1002301E0FB881BB21846083722
:1014DC00BD4680BD90B58BB002AF0346FB800B467A
:1014EC00BB801346FB70002000F088FA002100201E
:1014FC0000F0CEFB434B012200920ECB424800F091
:10150C00A1FB1021002000F0C3FBFB883F4AA2FB8B
:10151C0003239B099BB21C46FB883C4AA2FB03128B
:10152C0092094FF47A7101FB02F29B1A9BB207F1FC
:10153C0008002246364904F08FFB324B07F10800B5
:10154C00012200920ECB00F07DFB1E21002000F04A
:10155C009FFBB7F904302F4A82FB03129210DB1762
:10156C00D31A1BB21C46B7F904202A4B83FB021377
:10157C009910D317C91A0B469B000B445B00D31A66
:10158C001BB207F108002246234904F065FB1D4BF2
:10159C0007F10800012200920ECB00F053FB302122
:1015AC00002000F075FBFB78002B07D1154B0122B6
:1015BC0000920ECB194800F045FB1CE0FB78012B88
:1015CC0007D1104B012200920ECB154800F03AFBCC
:1015DC0011E0FB78022B07D10A4B012200920ECBB3
:1015EC00104800F02FFB06E0064B012200920ECBB8
:1015FC000D4800F027FB00F019FA00BF2437BD4658
:10160C0090BD00BFE46D0008DC650008D34D62108E
:10161C00EC65000867666666FC65000808660008ED
:10162C0014660008246600083466000880B582B091
:10163C0000AFFFF720FF0346BB80FFF736FF0346E2
:10164C007B800023FB71BB8841F26F72934208D9F7
:10165C000023FB712B4B00221A702B4B00221A70AB
:10166C0044E0BB88B3F5AF5F08D30123FB71254B76
:10167C0000221A70244B00221A7037E0BB8841F20A
:10168C004F42934211D90223FB711F4B00221A7057
:10169C000320FFF705FD1B4B1B78002B26D1FFF712
:1016AC00CCFC184B01221A7020E00323FB71164B63
:1016BC0001221A700320FFF7F3FC124B1B78002B4E
:1016CC0004D1FFF7BAFC0F4B01221A700021002045
:1016DC00FFF7B8FA0020FFF721FA0020FFF768FAAD
:1016EC000A4B00221A600A4B00221A60FA79B7F9E9
:1016FC000210BB881846FFF7EDFE00BF0837BD4649
:10170C0080BD00BF4A0200204902002020020020B8
:10171C002402002080B582B000AF0346FB80FB881A
:10172C00B3F5806F0FD10A4B1B78DBB2002B0AD0BC
:10173C0000F05CFD0346074A1360074B01221A7048
:10174C00034B00221A7000BF0837BD4680BD00BF96
:10175C0001000020500200204C02002080B582B015
:10176C0002AF494B1B78DBB2002B03D1464B012255
:10177C001A7014E0444B1B78DBB2012B03D1424BA3
:10178C0002221A700BE0404B1B78DBB2022B03D108
:10179C003D4B03221A7002E03B4B00221A700021D1
:1017AC000020FFF74FFA0020FFF7B8F90020FFF7F1
:1017BC00FFF9364B00221A60354B00221A600020CC
:1017CC0000F01CF90A21002000F062FA314B0122D2
:1017DC0000920ECB304800F035FA2B4B1B78DBB265
:1017EC00002B0ED12021002000F052FA294B0122AF
:1017FC0000920ECB294800F025FA0020FFF750FC90
:10180C003CE0214B1B78DBB2012B0ED120210020B8
:10181C0000F03EFA1F4B012200920ECB204800F044
:10182C0011FA0220FFF73CFC28E0174B1B78DBB2C7
:10183C00022B10D12021002000F02AFA154B012296
:10184C0000920ECB174800F0FDF90120FFF728FCA1
:10185C00FFF7CAFB12E00C4B1B78DBB2032B0DD14C
:10186C002021002000F014FA0A4B012200920ECB2A
:10187C000D4800F0E7F90020FFF712FC00F0D6F855
:10188C0000BFBD4680BD00BF4B02002020020020DF
:10189C0024020020E46D0008446600084C66000831
:1018AC00546600085C6600086866000880B400AFE7
:1018BC0072B600BF00BFFDE780B400AF00BFBD46ED
:1018CC0080BC704780B586B004AF0346FB714FF007
:1018DC00FF33029301230193FB1D0093012300228C
:1018EC007821034802F0A8F800BF0837BD4680BD38
:1018FC00AC00002080B586B004AF786039603B68DE
:10190C009BB24FF0FF32029201937B68009301234C
:10191C0040227821034802F08FF800BF0837BD46FB
:10192C0080BD00BFAC00002080B500AFFFF7C4FF46
:10193C00642000F065FC002000F0D6F92020FFF7B1
:10194C00C1FF0020FFF7BEFFB020FFF7BBFFC82090
:10195C00FFF7B8FF0020FFF7B5FF1020FFF7B2FF2D
:10196C004020FFF7AFFFFF2000F0AAF9A120FFF7FE
:10197C00A9FFA620FFF7A6FFA820FFF7A3FF3F2093
:10198C00FFF7A0FFA420FFF79DFFD320FFF79AFFDE
:10199C000020FFF797FFD520FFF794FFF020FFF70B
:1019AC0091FFD920FFF78EFF2220FFF78BFFDA2063
:1019BC00FFF788FF1220FFF785FFDB20FFF782FF80
:1019CC002020FFF77FFF8D20FFF77CFF1420FFF70F
:1019DC0079FF012000F088F9002000F00FF800F0EA
:1019EC0025F8054B00221A80034B00225A80024B2B
:1019FC0001221A7100BF80BD6406002080B582B040
:101A0C0000AF0346FB71FB79002B01D1002300E0F2
:101A1C00FF234FF480621946034804F03FF900BFDE
:101A2C000837BD4680BD00BF6402002080B582B07F
:101A3C0000AF0023FB7116E0FB79503BDBB218467C
:101A4C00FFF740FF0020FFF73DFF1020FFF73AFFA4
:101A5C00FB79DB01084A134480211846FFF74AFF43
:101A6C00FB790133FB71FB79072BE5D900BF00BF74
:101A7C000837BD4680BD00BF6402002080B483B02F
:101A8C0000AF0346FB710B46BB7113467B7197F994
:101A9C000730002B3DDBBB793F2B3AD87B79012BF0
:101AAC001AD1FA79BB79DB08D8B20346DB011344AF
:101ABC001A4AD35C5AB2BB7903F00703012101FA2D
:101ACC0003F35BB2134359B2FA790346DB011344B7
:101ADC00C9B2124AD1541DE0FA79BB79DB08D8B2ED
:101AEC000346DB0113440D4AD35C5AB2BB7903F0B5
:101AFC000703012101FA03F35BB2DB435BB2134032
:101B0C0059B2FA790346DB011344C9B2034AD154E2
:101B1C0000E000BF0C37BD4680BC7047640200205B
:101B2C0090B589B000AF0446384680E80E002346D5
:101B3C00FB73FB7B1F2B02D9FB7B7E2B01D9002374
:101B4C0079E0BB68002B05D0BA68FB7B203B1344C3
:101B5C001B7800E03B78FB75394B1B881A46FB7DE4
:101B6C001344802B06DC364B5B881A467B78134477
:101B7C00402B01DD00235EE00023FB614DE07A6821
:101B8C00FB7B203B797801FB03F31946FB690B4483
:101B9C005B0013441B883B610023BB6136E03A6950
:101BAC00BB6902FA03F303F40043002B13D0244B5C
:101BBC001B88DAB2BB69DBB21344D8B2204B5B880A
:101BCC00DAB2FB69DBB21344DBB297F8302019466A
:101BDC00FFF754FF17E01A4B1B88DAB2BB69DBB274
:101BEC001344D8B2164B5B88DAB2FB69DBB21344F0
:101BFC00D9B297F83030002B0CBF01230023DBB295
:101C0C001A46FFF73BFFBB690133BB61FB7DBA6929
:101C1C009A42C4D3FB690133FB617B781A46FB699A
:101C2C009342ACD3064B1A88FB7D9BB213449AB2F9
:101C3C00034B1A80FB7B18462437BD4690BD00BF72
:101C4C006406002080B586B002AFF860384680E8A4
:101C5C000E0013E0FB6818783B7E00933B460ECBDE
:101C6C00FFF75EFF03461A46FB681B789A4202D0C8
:101C7C00FB681B7808E0FB680133FB60FB681B7892
:101C8C00002BE7D1FB681B7818461037BD4680BD8A
:101C9C0080B483B000AF03460A46FB711346BB7198
:101CAC00FB799AB2054B1A80BB799AB2034B5A80D6
:101CBC0000BF0C37BD4680BC704700BF64060020D7
:101CCC0080B584B000AF0346FB718123FB73FB7BB3
:101CDC001846FFF7F7FDFB791846FFF7F3FD00BF39
:101CEC001037BD4680BD000080B584B000AF034600
:101CFC00FB71FB79002B05D0AF23FB73084B012242
:101D0C005A7104E0AE23FB73054B00225A71FB7B26
:101D1C001846FFF7D7FD00BF1037BD4680BD00BF8A
:101D2C006406002080B485B000AF154B9B69144A43
:101D3C0043F001039361124B9B6903F00103BB60F9
:101D4C00BB680F4BDB690E4A43F08053D3610C4BDD
:101D5C00DB6903F080537B607B680A4B5B68FB603C
:101D6C00FB6823F0E063FB60FB6843F00073FB60EF
:101D7C00044AFB68536000BF1437BD4680BC7047F3
:101D8C00001002400000014080B588B000AF7860C0
:101D9C0007F1100300221A605A609A60DA607B68BF
:101DAC001B68144A934221D1134B9B69124A43F48A
:101DBC0000739361104B9B6903F40073FB60FB6829
:101DCC000D4B9B690C4A43F0040393610A4B9B69CE
:101DDC0003F00403BB60BB6801233B6103237B61FD
:101DEC0007F110031946054800F094FF00BF203797
:101DFC00BD4680BD00240140001002400008014097
:101E0C0080B588B000AF786007F1100300221A602B
:101E1C005A609A60DA607B681B68154A934223D13A
:101E2C00144B9B69134A43F008039361114B9B6954
:101E3C0003F00803FB60FB68C0233B6112237B614A
:101E4C000323FB6107F1100319460B4800F062FFF6
:101E5C00084BDB69074A43F40013D361054BDB697C
:101E6C0003F40013BB60BB6800BF2037BD4680BDC8
:101E7C000054004000100240000C014080B487B0B8
:101E8C0000AF78607B681B68244A93420CD1244BCA
:101E9C009B69234A43F400639361214B9B6903F4D0
:101EAC0000637B617B6934E07B681B68B3F1804F16
:101EBC000CD11B4BDB691A4A43F00103D361184B5D
:101ECC00DB6903F001033B613B6922E07B681B6823
:101EDC00144A93420CD1124BDB69114A43F00203B2
:101EEC00D3610F4BDB6903F00203FB60FB6810E06E
:101EFC007B681B680C4A93420BD1094BDB69084A7F
:101F0C0043F00403D361064BDB6903F00403BB60AD
:101F1C00BB6800BF1C37BD4680BC7047002C01401D
:101F2C0000100240000400400008004080B58AB058
:101F3C0000AF786007F1180300221A605A609A60AB
:101F4C00DA607B681B682E4A934219D12D4B9B6932
:101F5C002C4A43F0040393612A4B9B6903F004035E
:101F6C007B617B694FF48073BB610223FB610223AD
:101F7C007B6207F118031946234800F0CBFE3AE0C8
:101F8C007B681B68B3F1804F18D11E4B9B691D4AAF
:101F9C0043F0040393611B4B9B6903F004033B6107
:101FAC003B690E23BB610223FB6102237B6207F1B9
:101FBC0018031946144800F0ADFE1CE07B681B6842
:101FCC00124A934217D10F4B9B690E4A43F00403FC
:101FDC0093610C4B9B6903F00403FB60FB68C0230B
:101FEC00BB610223FB6102237B6207F118031946D4
:101FFC00054800F08FFE00BF2837BD4680BD00BFEE
:10200C00002C014000100240000801400004004078
:10201C0080B400AF00BFFDE780B400AF00BFFDE7A8
:10202C0080B400AF00BFFDE780B400AF00BFFDE798
:10203C0080B400AF00BFFDE780B400AF00BFBD4669
:10204C0080BC704780B400AF00BFBD4680BC7047F9
:10205C0080B400AF00BFBD4680BC704780B500AFF8
:10206C0000F0B2F800BF80BD80B500AF4FF48060C7
:10207C0001F01CF800BF80BD80B586B000AF786061
:10208C00144A154BD31A7B617B693B61134B1B685C
:10209C00002B02D1114B124A1A60104B1A687B6844
:1020AC0013443A699A4207D203F000FE03460C220D
:1020BC001A604FF0FF3309E0084B1B68FB60074BBD
:1020CC001A687B681344054A1360FB681846183776
:1020DC00BD4680BD00500020000400006C060020AE
:1020EC00C007002080B400AF00BFBD4680BC704765
:1020FC00FFF7F8FF0B480C490C4A002302E0D458B8
:10210C00C4500433C4188C42F9D3094A094C002337
:10211C0001E013600432A242FBD303F0CDFDFEF7C5
:10212C000FF8704700000020600000206C6E000863
:10213C0060000020BC070020FEE7000080B500AF67
:10214C00084B1B68074A43F010031360032000F090
:10215C009FFD0F2000F008F8FFF7E4FD0023184660
:10216C0080BD00BF0020024080B582B000AF786017
:10217C00124B1A68124B1B7819464FF47A73B3FB47
:10218C00F1F3B2FBF3F3184600F0B7FD0346002B56
:10219C0001D001230EE07B680F2B0AD8002279684E
:1021AC004FF0FF3000F07FFD064A7B681360002380
:1021BC0000E0012318460837BD4680BD040000200E
:1021CC000C0000200800002080B400AF054B1B78E9
:1021DC001A46054B1B681344034A136000BFBD46E7
:1021EC0080BC70470C0000207006002080B400AF4B
:1021FC00024B1B681846BD4680BC70477006002019
:10220C0080B584B000AF7860FFF7F0FFB8607B68F2
:10221C00FB60FB68B3F1FF3F05D00A4B1B781A46F5
:10222C00FB681344FB6000BFFFF7E0FF0246BB688E
:10223C00D31AFA689A42F7D800BF00BF1037BD46D0
:10224C0080BD00BF0C00002080B586B000AF786068
:10225C000023FB7500233B610023BB600023FB6064
:10226C007B68002B01D10123BEE07B689B68002BAF
:10227C007B689B6A002B09D17B680022DA627B6841
:10228C00002283F824207868FFF77EFD786800F040
:10229C00F1FB0346FB757B689B6A03F01003002B74
:1022AC0040F09980FB7D002B40F095807B689B6A09
:1022BC0023F4885323F0020343F002027B689A62F2
:1022CC007B685A687B68DB691A437B681B7B5B0005
:1022DC001343BA681343BB607B689B68B3F5807F7C
:1022EC0003D07B689B68012B02D14FF4807300E014
:1022FC0000233A6913433B617B681B7D012B19D189
:10230C007B681B7B002B09D17B689B69013B5A03C3
:10231C003B69134343F400633B610BE07B689B6AAE
:10232C0043F020027B689A627B68DB6A43F001020F
:10233C007B68DA627B681B685B6823F469417B68A5
:10234C001B683A690A435A607B681B689A68284B79
:10235C0013407A681268B9680B4393607B689B687A
:10236C00B3F5807F03D07B689B68012B04D17B681D
:10237C001B69013B1B05FB607B681B68DB6A23F454
:10238C0070017B681B68FA680A43DA627B681B6819
:10239C009A68184B1340BA689A420BD17B6800229A
:1023AC00DA627B689B6A23F0030343F001027B68CB
:1023BC009A6218E07B689B6A23F0120343F01002C8
:1023CC007B689A627B68DB6A43F001027B68DA62A5
:1023DC000123FB7507E07B689B6A43F010027B6866
:1023EC009A620123FB75FB7D18461837BD4680BDEC
:1023FC00FDF7E1FFFE0E1FFF80B584B000AF7860E3
:10240C000023FB737B6893F82430012B01D102234A
:10241C0098E07B68012283F82420786800F0D0FAD9
:10242C000346FB73FB7B002B40F087807B689B6A29
:10243C0023F4407323F0010343F480727B689A62A7
:10244C007B681B68414A934205D1414B5B6803F49E
:10245C007023002B15D17B689B6A23F480127B6858
:10246C009A627B681B685B6803F48063002B26D040
:10247C007B689B6A23F4405343F480527B689A62D6
:10248C001DE07B689B6A43F480127B689A627B68D0
:10249C001B682F4A934204D07B681B682B4A9342DB
:1024AC000DD12B4B5B6803F48063002B07D07B684A
:1024BC009B6A23F4405343F480527B689A627B6896
:1024CC009B6A03F48053002B06D07B68DB6A23F0F5
:1024DC0006027B68DA6202E07B680022DA627B68C3
:1024EC00002283F824207B681B686FF002021A60BC
:1024FC007B681B689B6803F46023B3F5602F13D1D2
:10250C007B681B68114A934205D1114B5B6803F43D
:10251C007023002B08D17B681B689A687B681B684A
:10252C0042F4A0029A600CE07B681B689A687B6896
:10253C001B6842F480129A6003E07B68002283F8E7
:10254C002420FB7B18461037BD4680BD0028014077
:10255C000024014080B584B000AF78600023FB7389
:10256C007B6893F82430012B01D102231AE07B689D
:10257C00012283F82420786800F07CFA0346FB7370
:10258C00FB7B002B09D17B689B6A23F4885323F0D7
:10259C00010343F001027B689A627B68002283F896
:1025AC002420FB7B18461037BD4680BD90B587B004
:1025BC0000AF7860396000237B610023FB6000234F
:1025CC003B61FFF713FE78617B681B689B6803F423
:1025DC008073002B0BD07B689B6A43F020027B68D6
:1025EC009A627B68002283F824200123D3E07B6865
:1025FC001B685B6803F48073002B31D17B681B680C
:10260C00DB6A03F47003002B2AD121E03B68B3F1A1
:10261C00FF3F1DD03B68002B07D0FFF7E7FD0246BC
:10262C007B69D31A3A689A4212D27B681B681B6882
:10263C0003F00203002B0BD17B689B6A43F004026E
:10264C007B689A627B68002283F824200323A2E033
:10265C007B681B681B6803F00203002BD6D070E06C
:10266C004F4B1C68022002F0C3FB0346B4FBF3F291
:10267C007B681B6819694B4B0B40002B18D17B688E
:10268C001B68D968484B0B40002B11D17B681B6829
:10269C001969464B0B40002B08D17B681B68D96825
:1026AC00434B0B40002B01D1142320E029231EE0C7
:1026BC007B681B6819693D4B0B40002B06D17B686E
:1026CC001B68D9683A4B0B40002B0DD07B681B68FC
:1026DC001969384B0B40002B08D17B681B68D968F3
:1026EC00344B0B40002B01D1542300E0FC2302FBA4
:1026FC0003F33B6121E03B68B3F1FF3F1AD03B6829
:10270C00002B07D0FFF772FD02467B69D31A3A689B
:10271C009A420FD2FB683A699A420BD97B689B6A42
:10272C0043F004027B689A627B68002283F82420C1
:10273C00032330E0FB680133FB60FB683A699A4283
:10274C00D9D87B681B686FF012021A607B689B6A91
:10275C0043F400727B689A627B681B689B6803F485
:10276C006023B3F5602F15D17B681B7B002B11D137
:10277C007B689B6A23F480727B689A627B689B6A95
:10278C0003F48053002B05D17B689B6A43F0010254
:10279C007B689A62002318461C37BD4690BD00BF6B
:1027AC0004000020244992242449920092244912C6
:1027BC00922449004992240080B483B000AF786021
:1027CC007B681B68DB6C18460C37BD4680BC7047B9
:1027DC0080B485B000AF786039600023FB730023B0
:1027EC00BB607B6893F82430012B01D10223DCE021
:1027FC007B68012283F824203B685B68062B1CD87D
:10280C007B681B68596B3B685A6813469B001344E2
:10281C00053B1F2202FA03F3DB4319403B6818689F
:10282C003B685A6813469B001344053B00FA03F2BD
:10283C007B681B680A435A633CE03B685B680C2B63
:10284C001CD87B681B68196B3B685A6813469B0045
:10285C001344233B1F2202FA03F3DB4319403B686A
:10286C0018683B685A6813469B001344233B00FAD4
:10287C0003F27B681B680A431A631BE07B681B68C6
:10288C00D96A3B685A6813469B001344413B1F228C
:10289C0002FA03F3DB4319403B6818683B685A683B
:1028AC0013469B001344413B00FA03F27B681B6800
:1028BC000A43DA623B681B68092B1CD97B681B68CE
:1028CC00D9683B681A6813465B0013441E3B072209
:1028DC0002FA03F3DB4319403B6898683B681A68BB
:1028EC0013465B0013441E3B00FA03F27B681B6823
:1028FC000A43DA6019E07B681B6819693B681A683F
:10290C0013465B001344072202FA03F3DB4319401E
:10291C003B6898683B681A6813465B00134400FADE
:10292C0003F27B681B680A431A613B681B68102B17
:10293C0003D03B681B68112B32D17B681B681D4A86
:10294C00934225D17B681B689B6803F40003002B22
:10295C0026D17B681B689A687B681B6842F400026E
:10296C009A603B681B68102B1AD1134B1B68134AD7
:10297C00A2FB03239A0C13469B0013445B00BB6021
:10298C0002E0BB68013BBB60BB68002BF9D107E0E0
:10299C007B689B6A43F020027B689A620123FB737D
:1029AC007B68002283F82420FB7B18461437BD4635
:1029BC0080BC7047002401400400002083DE1B43D0
:1029CC0080B584B000AF78600023FB600023BB604F
:1029DC007B681B689B6803F00103012B40D07B686C
:1029EC001B689A687B681B6842F001029A601F4B57
:1029FC001B681F4AA2FB03239B0CBB6002E0BB6855
:102A0C00013BBB60BB68002BF9D1FFF7EFFBF86013
:102A1C001FE0FFF7EBFB0246FB68D31A022B18D919
:102A2C007B681B689B6803F00103012B11D07B684A
:102A3C009B6A43F010027B689A627B68DB6A43F006
:102A4C0001027B68DA627B68002283F82420012370
:102A5C0007E07B681B689B6803F00103012BD8D14E
:102A6C00002318461037BD4680BD00BF040000206F
:102A7C0083DE1B4380B584B000AF78600023FB601D
:102A8C007B681B689B6803F00103012B2ED17B68CC
:102A9C001B689A687B681B6822F001029A60FFF73A
:102AAC00A5FBF8601BE0FFF7A1FB0246FB68D31AFD
:102ABC00022B14D97B681B689B6803F00103012B64
:102ACC000DD17B689B6A43F010027B689A627B682D
:102ADC00DB6A43F001027B68DA62012307E07B6862
:102AEC001B689B6803F00103012BDCD00023184604
:102AFC001037BD4680BD000080B485B000AF786053
:102B0C007B6803F00703FB600C4BDB68BB60BA68A7
:102B1C004FF6FF031340BB60FB681A02BB681343FC
:102B2C0043F0BF6343F40033BB60044ABB68D3601B
:102B3C0000BF1437BD4680BC704700BF00ED00E0FD
:102B4C0080B400AF044BDB681B0A03F00703184684
:102B5C00BD4680BC704700BF00ED00E080B483B080
:102B6C0000AF0346FB7197F90730002B0BDBFB79A9
:102B7C0003F01F02064997F907305B09012000FAA0
:102B8C0002F241F8232000BF0C37BD4680BC7047D1
:102B9C0000E100E080B483B000AF03463960FB7104
:102BAC0097F90730002B0ADB3B68DAB20C4997F92E
:102BBC0007301201D2B20B4483F800230AE03B68C1
:102BCC00DAB20849FB7903F00F03043B1201D2B2CD
:102BDC000B441A7600BF0C37BD4680BC704700BF53
:102BEC0000E100E000ED00E080B489B000AFF860D7
:102BFC00B9607A60FB6803F00703FB61FB69C3F102
:102C0C000703042B28BF0423BB61FB690433062B89
:102C1C0002D9FB69033B00E000237B614FF0FF32DC
:102C2C00BB6902FA03F3DA43BB681A407B699A402A
:102C3C004FF0FF317B6901FA03F3D9437B680B40FA
:102C4C00134318462437BD4680BC704780B582B00C
:102C5C0000AF78607B68013BB3F1807F01D3012327
:102C6C000FE00A4A7B68013B53600F214FF0FF30A5
:102C7C00FFF790FF054B00229A60044B07221A6065
:102C8C00002318460837BD4680BD00BF10E000E0A9
:102C9C0080B582B000AF78607868FFF72DFF00BF79
:102CAC000837BD4680BD80B586B000AF0346B9601D
:102CBC007A60FB7300237B61FFF742FF78617A68CF
:102CCC00B9687869FFF790FF024697F90F30114603
:102CDC001846FFF75FFF00BF1837BD4680BD80B5B3
:102CEC0082B000AF0346FB7197F907301846FFF727
:102CFC0035FF00BF0837BD4680BD80B582B000AF40
:102D0C0078607868FFF7A2FF034618460837BD467F
:102D1C0080BD000080B48BB000AF786039600023B8
:102D2C007B6200233B6269E101227B6A02FA03F3B6
:102D3C00FB613B681B68FA691340BB61BA69FB69AC
:102D4C009A4240F058813B685B689A4A93425ED045
:102D5C00984A934275D8984A934258D0964A9342CF
:102D6C006FD8964A934252D0944A934269D8944A67
:102D7C0093424CD0924A934263D8924A934246D0A3
:102D8C00904A93425DD8122B2AD8122B59D801A203
:102D9C0052F823F01B2E0008F52D0008072E000812
:102DAC00492E00084F2E00084F2E00084F2E000809
:102DBC004F2E00084F2E00084F2E00084F2E0008F3
:102DCC004F2E00084F2E00084F2E00084F2E0008E3
:102DDC004F2E00084F2E0008FD2D0008112E000864
:102DEC00794A934213D02CE03B68DB683B6229E0C4
:102DFC003B68DB6804333B6224E03B68DB680833E8
:102E0C003B621FE03B68DB680C333B621AE03B68BB
:102E1C009B68002B02D104233B6213E03B689B6848
:102E2C00012B05D108233B627B68FA691A6109E022
:102E3C0008233B627B68FA695A6103E000233B621A
:102E4C0000E000BFBB69FF2B01D87B6801E07B6809
:102E5C0004337B61BB69FF2B02D87B6A9B0002E0C9
:102E6C007B6A083B9B003B617B691A680F213B69BD
:102E7C0001FA03F3DB431A40396A3B6901FA03F3A5
:102E8C001A437B691A603B685B6803F08053002B24
:102E9C0000F0B1804D4B9B694C4A43F001039361A8
:102EAC004A4B9B6903F00103BB60BB68484A7B6AD1
:102EBC009B08023352F82330FB607B6A03F0030358
:102ECC009B000F2202FA03F3DB43FA681340FB600A
:102EDC007B68404A934213D07B683F4A93420DD0A3
:102EEC007B683E4A934207D07B683D4A934201D1AE
:102EFC00032306E0042304E0022302E0012300E0A4
:102F0C0000237A6A02F0030292009340FA6813439A
:102F1C00FB602F497B6A9B080233FA6841F8232037
:102F2C003B685B6803F48013002B06D02D4B9A682A
:102F3C002C49BB6913438B6006E02A4B9A68BB692A
:102F4C00DB43284913408B603B685B6803F4001338
:102F5C00002B06D0234BDA682249BB691343CB60A4
:102F6C0006E0204BDA68BB69DB431E491340CB609B
:102F7C003B685B6803F40033002B06D0194B5A688E
:102F8C001849BB6913434B6006E0164B5A68BB6982
:102F9C00DB43144913404B603B685B6803F480339C
:102FAC00002B21D00F4B1A680E49BB6913430B60E1
:102FBC0021E000BF00003210000031100000221090
:102FCC00000021100000121000001110001002402F
:102FDC000000014000080140000C014000100140BD
:102FEC0000140140000401400B4B1A68BB69DB4321
:102FFC00094913400B607B6A01337B623B681A689A
:10300C007B6A22FA03F3002B7FF48EAE00BF00BF65
:10301C002C37BD4680BC70470004014080B485B09D
:10302C0000AF78600B467B807B689A687B88134086
:10303C00002B02D00123FB7301E00023FB73FB7B0D
:10304C0018461437BD4680BC704780B483B000AFBF
:10305C0078600B467B8013467B707B78002B03D00B
:10306C007A887B681A6103E07B881A047B681A6192
:10307C0000BF0C37BD4680BC704780B485B000AF34
:10308C0078600B467B807B68DB68FB607A88FB682A
:10309C0013401A04FB68D9437B880B401A437B68A6
:1030AC001A6100BF1437BD4680BC704780B582B032
:1030BC0000AF0346FB80084B5A69FB881340002B7A
:1030CC0006D0054AFB885361FB881846FEF722FBA5
:1030DC0000BF0837BD4680BD0004014080B584B0F8
:1030EC0000AF78607B68002B01D101232BE17B685A
:1030FC0093F83D30DBB2002B06D17B68002283F8BD
:10310C003C207868FEF77CFE7B68242283F83D2007
:10311C007B681B681A687B681B6822F001021A60C6
:10312C007B681B681A687B681B6842F400421A6053
:10313C007B681B681A687B681B6822F400421A6063
:10314C0001F05AFDF8607B685B68814A934207D8AE
:10315C00FB68804A934294BF01230023DBB206E054
:10316C00FB687D4A934294BF01230023DBB2002B02
:10317C0001D00123E7E0FB68784AA2FB03239B0CF8
:10318C00BB607B681B685B6823F03F017B681B6836
:10319C00BA680A435A607B681B681B6A23F03F01BC
:1031AC007B685B686A4A934202D8BB68013309E0CA
:1031BC00BB684FF4967202FB03F3694AA2FB03232C
:1031CC009B0901337A6812680B4313627B681B6896
:1031DC00DB6923F44F4222F0FF027B685B685C4999
:1031EC008B4219D8FB68591E7B685B685B00B1FB8E
:1031FC00F3F3591C40F6FC730B40002B0AD0FB6810
:10320C00591E7B685B685B00B1FBF3F30133C3F3BE
:10321C000B0351E004234FE07B689B68002B11D11A
:10322C00FB68581E7B6859680B465B000B44B0FB6F
:10323C00F3F30133C3F30B03002B0CBF0123002367
:10324C00DBB212E0FB68581E7B6859680B469B008A
:10325C000B4499000B44B0FBF3F30133C3F30B03A2
:10326C00002B0CBF01230023DBB2002B01D0012368
:10327C0022E07B689B68002B0ED1FB68581E7B6894
:10328C0059680B465B000B44B0FBF3F30133C3F3FB
:10329C000B0343F400430FE0FB68581E7B6859682E
:1032AC000B469B000B4499000B44B0FBF3F301332A
:1032BC00C3F30B0343F44043796809681343CB61B0
:1032CC007B681B681B6823F0C0017B68DA697B682C
:1032DC001B6A1A437B681B680A431A607B681B686D
:1032EC009B6823F4034323F0FF037A6811697A681F
:1032FC00D26811437A6812680B4393607B681B6831
:10330C00DB6823F0FF017B685A697B689B691A4371
:10331C007B681B680A43DA607B681B681A687B68E9
:10332C001B6842F001021A607B6800221A647B68F9
:10333C00202283F83D207B6800221A637B680022E0
:10334C0083F83E20002318461037BD4680BD00BFD1
:10335C00A08601007F841E00FF083D0083DE1B4316
:10336C00D34D621080B588B002AFF8607A601A460F
:10337C000B467B8113463B81FEF738FF7861FB6877
:10338C0093F83D30DBB2202B40F0E0807B6900935A
:10339C00192301227049F86800F02EFE0346002B19
:1033AC0001D00223D3E0FB6893F83C30012B01D110
:1033BC000223CCE0FB68012283F83C20FB681B68ED
:1033CC001B6803F00103012B07D0FB681B681A680C
:1033DC00FB681B6842F001021A60FB681B681A68E4
:1033EC00FB681B6822F400621A60FB68212283F8D8
:1033FC003D20FB68102283F83E20FB6800221A64F3
:10340C00FB687A685A62FB683A895A85FB685B8D5F
:10341C009AB2FB681A85FB68504ADA6279897B6933
:10342C003A6AF86800F002FC0346002B01D0012335
:10343C008DE000233B61FB681B685B693B61FB68AB
:10344C001B689B693B613B6966E07A69396AF8687D
:10345C0000F0ECFE0346002B0DD0FB681B6C042B1C
:10346C0007D1FB681B681A68FB681B6842F4007282
:10347C001A6001236BE0FB685B6A1A78FB681B68B7
:10348C001A61FB685B6A5A1CFB685A62FB685B8DAD
:10349C009BB2013B9AB2FB685A85FB681B8D013BC2
:1034AC009AB2FB681A85FB681B685B6903F004031E
:1034BC00042B1BD1FB681B8D002B17D0FB685B6AA0
:1034CC001A78FB681B681A61FB685B6A5A1CFB68FC
:1034DC005A62FB685B8D9BB2013B9AB2FB685A85C2
:1034EC00FB681B8D013B9AB2FB681A857A69396AB5
:1034FC00F86800F0E3FE0346002B0DD0FB681B6C54
:10350C00042B07D1FB681B681A68FB681B6842F424
:10351C0000721A6001231AE0FB681B8D002B94D1FA
:10352C00FB681B681A68FB681B6842F400721A601F
:10353C00FB68202283F83D20FB68002283F83E20A4
:10354C00FB68002283F83C20002300E0022318468D
:10355C001837BD4680BD00BF020010000000FFFF01
:10356C0080B58CB002AFF8607A601A460B467B814E
:10357C0013463B8100233B62FEF738FE7862FB6802
:10358C0093F83D30DBB2202B40F04B827B6A0093EA
:10359C00192301227F49F86800F02EFD0346002B09
:1035AC0001D002233EE2FB6893F83C30012B01D1A1
:1035BC00022337E2FB68012283F83C20FB681B687E
:1035CC001B6803F00103012B07D0FB681B681A680A
:1035DC00FB681B6842F001021A60FB681B681A68E2
:1035EC00FB681B6822F400621A60FB68222283F8D5
:1035FC003D20FB68102283F83E20FB6800221A64F1
:10360C00FB687A685A62FB683A895A85FB685B8D5D
:10361C009AB2FB681A85FB685F4ADA6279897B6A21
:10362C003A6BF86800F084FB0346002B01D00123B1
:10363C00F8E1FB681B8D002B13D10023FB61FB68A9
:10364C001B685B69FB61FB681B689B69FB61FB6921
:10365C00FB681B681A68FB681B6842F400721A60EE
:10366C00CCE1FB681B8D012B1ED1FB681B681A6813
:10367C00FB681B6822F480621A6072B600BF0023DC
:10368C00BB61FB681B685B69BB61FB681B689B6962
:10369C00BB61BB69FB681B681A68FB681B6842F45A
:1036AC0000721A6062B635E0FB681B8D022B1ED1CE
:1036BC00FB681B681A68FB681B6842F400621A609E
:1036CC0072B600BF00237B61FB681B685B697B6182
:1036DC00FB681B689B697B617B69FB681B681A68CC
:1036EC00FB681B6822F480621A6062B612E0FB6809
:1036FC001B681A68FB681B6842F480621A6000231E
:10370C003B61FB681B685B693B61FB681B689B69E1
:10371C003B613B6972E1FB681B8D032B00F21F813F
:10372C00FB681B8D012B23D17A6A396BF86800F08A
:10373C000DFE0346002B01D0012373E1FB681B68CF
:10374C001A69FB685B6AD2B21A70FB685B6A5A1C16
:10375C00FB685A62FB681B8D013B9AB2FB681A85A9
:10376C00FB685B8D9BB2013B9AB2FB685A8545E1C5
:10377C00FB681B8D022B52D17B6A00933B6B0022A2
:10378C000649F86800F038FC0346002B08D00123EA
:10379C0048E100BF020010000000FFFF0400010020
:1037AC0072B600BFFB681B681A68FB681B6842F4A2
:1037BC0000721A60FB681B681A69FB685B6AD2B2FC
:1037CC001A70FB685B6A5A1CFB685A62FB681B8D9B
:1037DC00013B9AB2FB681A85FB685B8D9BB2013B7F
:1037EC009AB2FB685A8562B600BFFB681B681A69FF
:1037FC00FB685B6AD2B21A70FB685B6A5A1CFB6886
:10380C005A62FB681B8D013B9AB2FB681A85FB68F8
:10381C005B8D9BB2013B9AB2FB685A85EEE07B6AEA
:10382C0000933B6B00228149F86800F0E5FB0346EE
:10383C00002B01D00123F5E0FB681B681A68FB68BC
:10384C001B6822F480621A6072B600BFFB681B68AA
:10385C001A69FB685B6AD2B21A70FB685B6A5A1C05
:10386C00FB685A62FB681B8D013B9AB2FB681A8598
:10387C00FB685B8D9BB2013B9AB2FB685A856C4B23
:10388C001B68DB086B4AA2FB03231A0A13469B0036
:10389C001344DA00D31A3B623B6A013B3B623B6A3E
:1038AC00002B18D1FB6800221A63FB68202283F8D6
:1038BC003D20FB68002283F83E20FB681B6C43F024
:1038CC002002FB681A6462B600BFFB68002283F812
:1038DC003C200123A6E0FB681B685B6903F0040332
:1038EC00042BD9D1FB681B681A68FB681B6842F46F
:1038FC0000721A60FB681B681A69FB685B6AD2B2BB
:10390C001A70FB685B6A5A1CFB685A62FB681B8D59
:10391C00013B9AB2FB681A85FB685B8D9BB2013B3D
:10392C009AB2FB685A8562B600BFFB681B681A69BD
:10393C00FB685B6AD2B21A70FB685B6A5A1CFB6844
:10394C005A62FB681B8D013B9AB2FB681A85FB68B7
:10395C005B8D9BB2013B9AB2FB685A854EE07A6A4A
:10396C00396BF86800F0F2FC0346002B01D0012300
:10397C0058E0FB681B681A69FB685B6AD2B21A7064
:10398C00FB685B6A5A1CFB685A62FB681B8D013B27
:10399C009AB2FB681A85FB685B8D9BB2013B9AB2AD
:1039AC00FB685A85FB681B685B6903F00403042BF6
:1039BC0024D1FB681B8D032B07D1FB681B681A688D
:1039CC00FB681B6822F480621A60FB681B681A692A
:1039DC00FB685B6AD2B21A70FB685B6A5A1CFB68A4
:1039EC005A62FB681B8D013B9AB2FB681A85FB6817
:1039FC005B8D9BB2013B9AB2FB685A85FB681B8DB1
:103A0C00002B7FF488AEFB68202283F83D20FB68F6
:103A1C00002283F83E20FB68002283F83C20002320
:103A2C0000E0022318462837BD4680BD0400010083
:103A3C000400002089B5F81480B588B002AFF86096
:103A4C00084611461A4603467B810B463B811346BA
:103A5C00FB80FEF7CBFB7861FB6893F83D30DBB263
:103A6C00202B40F0D9807B690093192301226D49EA
:103A7C00F86800F0C1FA0346002B01D00223CCE019
:103A8C00FB6893F83C30012B01D10223C5E0FB68A5
:103A9C00012283F83C20FB681B681B6803F00103C0
:103AAC00012B07D0FB681B681A68FB681B6842F087
:103ABC0001021A60FB681B681A68FB681B6822F419
:103ACC0000621A60FB68212283F83D20FB684022CB
:103ADC0083F83E20FB6800221A64FB683A6A5A623B
:103AEC00FB68BA8C5A85FB685B8D9AB2FB681A85A9
:103AFC00FB684D4ADA62F8883A8979897B690193C7
:103B0C00BB6A00930346F86800F0E0F90346002B0B
:103B1C0052D0012381E07A69B96AF86800F086FB1B
:103B2C000346002B0DD0FB681B6C042B07D1FB68E4
:103B3C001B681A68FB681B6842F400721A60012348
:103B4C006BE0FB685B6A1A78FB681B681A61FB68A0
:103B5C005B6A5A1CFB685A62FB681B8D013B9AB26C
:103B6C00FB681A85FB685B8D9BB2013B9AB2FB68C4
:103B7C005A85FB681B685B6903F00403042B1BD19B
:103B8C00FB681B8D002B17D0FB685B6A1A78FB68EF
:103B9C001B681A61FB685B6A5A1CFB685A62FB68FB
:103BAC001B8D013B9AB2FB681A85FB685B8D9BB23F
:103BBC00013B9AB2FB685A85FB681B8D002BAAD17E
:103BCC007A69B96AF86800F079FB0346002B0DD0CE
:103BDC00FB681B6C042B07D1FB681B681A68FB681D
:103BEC001B6842F400721A60012316E0FB681B6824
:103BFC001A68FB681B6842F400721A60FB6820228A
:103C0C0083F83D20FB68002283F83E20FB680022ED
:103C1C0083F83C20002300E0022318461837BD46E9
:103C2C0080BD00BF020010000000FFFF80B588B00F
:103C3C0002AFF8607A603B600B467B81FB68DB6A05
:103C4C007B617B69082B06D07B69012B03D07B69D8
:103C5C0013F5803F08D1FB681B681A68FB681B686A
:103C6C0042F480721A600BE0FB681B6B122B07D1BD
:103C7C00FB681B681A68FB681B6842F480721A6048
:103C8C003B6800937B6800224FF00111F86800F04C
:103C9C00B3F90346002B0DD0FB681B681B6803F4BB
:103CAC008073B3F5807F03D1FB684FF400721A6404
:103CBC00032335E0FB681B69B3F5804F08D17B8982
:103CCC00DBB21A46FB681B6802F0FE021A611BE0AD
:103CDC007B89DB11DBB203F00603DBB263F00F036D
:103CEC00DAB2FB681B681A613B687A680E49F8689F
:103CFC0000F0FCF90346002B01D0012310E07B8976
:103D0C00DAB2FB681B681A613B687A680749F86885
:103D1C0000F0ECF90346002B01D0012300E0002356
:103D2C0018461837BD4680BD08000100020001008E
:103D3C0080B588B002AFF8607A603B600B467B813F
:103D4C00FB68DB6A7B61FB681B681A68FB681B6895
:103D5C0042F480621A607B69082B06D07B69012BC8
:103D6C0003D07B6913F5803F08D1FB681B681A6888
:103D7C00FB681B6842F480721A600BE0FB681B6BDB
:103D8C00112B07D1FB681B681A68FB681B6842F48F
:103D9C0080721A603B6800937B6800224FF001111F
:103DAC00F86800F029F90346002B0DD0FB681B685E
:103DBC001B6803F48073B3F5807F03D1FB684FF469
:103DCC0000721A64032379E0FB681B69B3F5804F1A
:103DDC0008D17B89DBB243F00103DAB2FB681B68C4
:103DEC001A615FE07B89DB11DBB203F00603DBB207
:103DFC0063F00F03DAB2FB681B681A613B687A68E0
:103E0C003049F86800F072F90346002B01D0012309
:103E1C0054E07B89DAB2FB681B681A613B687A68EC
:103E2C002949F86800F062F90346002B01D0012300
:103E3C0044E000233B61FB681B685B693B61FB68EA
:103E4C001B689B693B613B69FB681B681A68FB68D4
:103E5C001B6842F480721A603B6800937B680022F6
:103E6C004FF00111F86800F0C7F80346002B0DD095
:103E7C00FB681B681B6803F48073B3F5807F03D168
:103E8C00FB684FF400721A64032317E07B89DB1183
:103E9C00DBB203F00603DBB263F00E03DAB2FB68AD
:103EAC001B681A613B687A680749F86800F01EF9CC
:103EBC000346002B01D0012300E0002318461837DD
:103ECC00BD4680BD080001000200010080B588B02D
:103EDC0002AFF860084611461A4603467B810B4632
:103EEC003B811346FB80FB681B681A68FB681B68E8
:103EFC0042F480721A607B6A00933B6A00224FF096
:103F0C000111F86800F078F80346002B0DD0FB681F
:103F1C001B681B6803F48073B3F5807F03D1FB68C7
:103F2C004FF400721A6403235FE07B89DBB21A46FC
:103F3C00FB681B6802F0FE021A617B6A3A6A2D4923
:103F4C00F86800F0D3F80346002B01D001234CE0B5
:103F5C0000237B61FB681B685B697B61FB681B68EA
:103F6C009B697B617B697A6A396AF86800F05EF953
:103F7C000346002B0DD0FB681B6C042B07D1FB6890
:103F8C001B681A68FB681B6842F400721A600123F4
:103F9C002BE0FB88012B05D13B89DAB2FB681B684F
:103FAC001A6121E03B891B0A9BB2DAB2FB681B68E1
:103FBC001A617A6A396AF86800F038F90346002BFE
:103FCC000DD0FB681B6C042B07D1FB681B681A68AF
:103FDC00FB681B6842F400721A60012305E03B8900
:103FEC00DAB2FB681B681A61002318461837BD4605
:103FFC0080BD00BF0200010080B584B000AFF86046
:10400C00B9603B601346FB7148E03B68B3F1FF3F7E
:10401C0044D0FEF7EBF80246BB69D31A3A689A42D1
:10402C0002D33B68002B39D1BB681B0CDBB2012BD4
:10403C000DD1FB681B685B69DA43BB6813409BB20C
:10404C00002B0CBF01230023DBB21A460CE0FB68EB
:10405C001B689B69DA43BB6813409BB2002B0CBFF7
:10406C0001230023DBB21A46FB799A4216D1FB6876
:10407C0000221A63FB68202283F83D20FB68002293
:10408C0083F83E20FB681B6C43F02002FB681A642B
:10409C00FB68002283F83C20012323E0BB681B0C47
:1040AC00DBB2012B0DD1FB681B685B69DA43BB6883
:1040BC0013409BB2002B0CBF01230023DBB21A462A
:1040CC000CE0FB681B689B69DA43BB6813409BB22E
:1040DC00002B0CBF01230023DBB21A46FB799A425A
:1040EC0093D0002318461037BD4680BD80B584B0F0
:1040FC0000AFF860B9607A603B6071E0FB681B68E8
:10410C005B6903F48063B3F5806F23D1FB681B6894
:10411C001A68FB681B6842F400721A60FB681B6823
:10412C006FF480625A61FB6800221A63FB682022DC
:10413C0083F83D20FB68002283F83E20FB681B6C53
:10414C0043F00402FB681A64FB68002283F83C20ED
:10415C00012367E07B68B3F1FF3F41D0FEF746F8DF
:10416C0002463B68D31A7A689A4202D37B68002BCA
:10417C0036D1BB681B0CDBB2012B0CD1FB681B6866
:10418C005B69DA43BB6813409BB2002B14BF01235D
:10419C000023DBB20BE0FB681B689B69DA43BB684E
:1041AC0013409BB2002B14BF01230023DBB2002B66
:1041BC0016D0FB6800221A63FB68202283F83D208E
:1041CC00FB68002283F83E20FB681B6C43F0200246
:1041DC00FB681A64FB68002283F83C20012321E071
:1041EC00BB681B0CDBB2012B0CD1FB681B685B6939
:1041FC00DA43BB6813409BB2002B14BF012300238E
:10420C00DBB20BE0FB681B689B69DA43BB681340AD
:10421C009BB2002B14BF01230023DBB2002B7FF4D5
:10422C006DAF002318461037BD4680BD80B584B0F5
:10423C0000AFF860B9607A6034E0F86800F0E3F839
:10424C000346002B01D0012334E0BB68B3F1FF3FE0
:10425C0028D0FDF7CBFF02467B68D31ABA689A4286
:10426C0002D3BB68002B1DD1FB681B685B6903F094
:10427C008003802B16D0FB6800221A63FB68202277
:10428C0083F83D20FB68002283F83E20FB681B6C02
:10429C0043F02002FB681A64FB68002283F83C2080
:1042AC00012307E0FB681B685B6903F08003802B2C
:1042BC00C3D1002318461037BD4680BD80B584B0ED
:1042CC0000AFF860B9607A6034E0F86800F09BF8F1
:1042DC000346002B01D0012334E0BB68B3F1FF3F50
:1042EC0028D0FDF783FF02467B68D31ABA689A423E
:1042FC0002D3BB68002B1DD1FB681B685B6903F004
:10430C000403042B16D0FB6800221A63FB682022DE
:10431C0083F83D20FB68002283F83E20FB681B6C71
:10432C0043F02002FB681A64FB68002283F83C20EF
:10433C00012307E0FB681B685B6903F00403042B93
:10434C00C3D1002318461037BD4680BD80B584B05C
:10435C0000AFF860B9607A6049E0FB681B685B6984
:10436C0003F01003102B19D1FB681B686FF01002BF
:10437C005A61FB6800221A63FB68202283F83D20F7
:10438C00FB68002283F83E20FB681A6CFB681A64F9
:10439C00FB68002283F83C20012330E0FDF726FF68
:1043AC0002467B68D31ABA689A4202D3BB68002BC8
:1043BC001DD1FB681B685B6903F04003402B16D0D2
:1043CC00FB6800221A63FB68202283F83D20FB68FF
:1043DC00002283F83E20FB681B6C43F02002FB6834
:1043EC001A64FB68002283F83C20012307E0FB6879
:1043FC001B685B6903F04003402BAED100231846C9
:10440C001037BD4680BD80B483B000AF78607B6848
:10441C001B685B6903F48063B3F5806F1BD17B6809
:10442C001B686FF480625A617B6800221A637B6898
:10443C00202283F83D207B68002283F83E207B6895
:10444C001B6C43F004027B681A647B68002283F8BF
:10445C003C20012300E0002318460C37BD4680BCED
:10446C007047000080B586B000AF78607B68002B89
:10447C0001D1012372E27B681B6803F00103002B5E
:10448C0000F08780924B5B6803F00C03042B0CD07C
:10449C008F4B5B6803F00C03082B12D18C4B5B68C1
:1044AC0003F48033B3F5803F0BD1894B1B6803F4C5
:1044BC000033002B6CD07B685B68002B68D1012328
:1044CC004CE27B685B68B3F5803F06D1804B1B6880
:1044DC007F4A43F4803313602EE07B685B68002BCB
:1044EC000CD17B4B1B687A4A23F480331360784BD6
:1044FC001B68774A23F4802313601DE07B685B689C
:10450C00B3F5A02F0CD1724B1B68714A43F4802376
:10451C0013606F4B1B686E4A43F4803313600BE0DF
:10452C006B4B1B686A4A23F480331360684B1B681F
:10453C00674A23F4802313607B685B68002B13D0DD
:10454C00FDF754FE386108E0FDF750FE02463B696A
:10455C00D31A642B01D9032300E25D4B1B6803F4CF
:10456C000033002BF0D014E0FDF740FE386108E07A
:10457C00FDF73CFE02463B69D31A642B01D9032399
:10458C00ECE1534B1B6803F40033002BF0D100E03B
:10459C0000BF7B681B6803F00203002B63D04C4BFD
:1045AC005B6803F00C03002B0BD0494B5B6803F0EA
:1045BC000C03082B1CD1464B5B6803F48033002B97
:1045CC0016D1434B1B6803F00203002B05D07B680C
:1045DC001B69012B01D00123C0E13D4B1B6823F06B
:1045EC00F8027B685B69DB00394913430B603AE0E6
:1045FC007B681B69002B20D0364B01221A60FDF71B
:10460C00F5FD386108E0FDF7F1FD02463B69D31A70
:10461C00022B01D90323A1E12D4B1B6803F00203EC
:10462C00002BF0D02A4B1B6823F0F8027B685B69E7
:10463C00DB00274913430B6015E0264B00221A6060
:10464C00FDF7D4FD386108E0FDF7D0FD02463B696B
:10465C00D31A022B01D9032380E11D4B1B6803F0F5
:10466C000203002BF0D17B681B6803F00803002BBE
:10467C003AD07B689B69002B19D0174B01221A602A
:10468C00FDF7B4FD386108E0FDF7B0FD02463B696B
:10469C00D31A022B01D9032360E10D4B5B6A03F0A3
:1046AC000203002BF0D0012000F0CEFA1CE00A4BE4
:1046BC0000221A60FDF79AFD38610FE0FDF796FDB8
:1046CC0002463B69D31A022B08D9032346E100BFEB
:1046DC00001002400000424280044242924B5B6A4E
:1046EC0003F00203002BE9D17B681B6803F0040381
:1046FC00002B00F0A6800023FB758B4BDB6903F0CD
:10470C008053002B0DD1884BDB69874A43F08053D3
:10471C00D361854BDB6903F08053BB60BB6801231D
:10472C00FB75824B1B6803F48073002B18D17F4BF5
:10473C001B687E4A43F480731360FDF757FD3861A4
:10474C0008E0FDF753FD02463B69D31A642B01D9EF
:10475C00032303E1754B1B6803F48073002BF0D02B
:10476C007B68DB68012B06D16F4B1B6A6E4A43F0EA
:10477C00010313622DE07B68DB68002B0CD16A4BC4
:10478C001B6A694A23F001031362674B1B6A664A72
:10479C0023F0040313621CE07B68DB68052B0CD14F
:1047AC00614B1B6A604A43F0040313625E4B1B6A45
:1047BC005D4A43F0010313620BE05B4B1B6A5A4AE0
:1047CC0023F001031362584B1B6A574A23F004036E
:1047DC0013627B68DB68002B15D0FDF707FD386191
:1047EC000AE0FDF703FD02463B69D31A41F2883219
:1047FC00934201D90323B1E04B4B1B6A03F0020334
:10480C00002BEED014E0FDF7F1FC38610AE0FDF767
:10481C00EDFC02463B69D31A41F28832934201D92E
:10482C0003239BE0404B1B6A03F00203002BEED1E9
:10483C00FB7D012B05D13C4BDB693B4A23F08053BC
:10484C00D3617B68DB69002B00F08780364B5B689B
:10485C0003F00C03082B61D07B68DB69022B46D17B
:10486C00334B00221A60FDF7C1FC386108E0FDF7FC
:10487C00BDFC02463B69D31A022B01D903236DE020
:10488C00294B1B6803F00073002BF0D17B681B6A6B
:10489C00B3F5803F08D1244B5B6823F400327B686E
:1048AC009B68214913434B601F4B5B6823F47412C4
:1048BC007B68196A7B685B6A0B431B4913434B602B
:1048CC001B4B01221A60FDF791FC386108E0FDF7E3
:1048DC008DFC02463B69D31A022B01D903233DE020
:1048EC00114B1B6803F00073002BF0D035E0104B1C
:1048FC0000221A60FDF77AFC386108E0FDF776FCBF
:10490C0002463B69D31A022B01D9032326E0064B3E
:10491C001B6803F00073002BF0D11EE07B68DB6991
:10492C00012B07D1012319E0001002400070004058
:10493C00600042420B4B5B68FB60FB6803F4803207
:10494C007B681B6A9A4206D1FB6803F470127B6881
:10495C005B6A9A4201D0012300E000231846183705
:10496C00BD4680BD0010024080B584B000AF7860B9
:10497C0039607B68002B01D10123D0E06A4B1B68A6
:10498C0003F007033A689A4210D9674B1B6823F06F
:10499C00070265493B6813430B60634B1B6803F0CC
:1049AC0007033A689A4201D00123B8E07B681B6880
:1049BC0003F00203002B20D07B681B6803F0040378
:1049CC00002B05D0594B5B68584A43F4E0635360A5
:1049DC007B681B6803F00803002B05D0534B5B6806
:1049EC00524A43F460535360504B5B6823F0F0021F
:1049FC007B689B684D4913434B607B681B6803F0D5
:104A0C000103002B40D07B685B68012B07D1474B1F
:104A1C001B6803F40033002B15D101237FE07B6866
:104A2C005B68022B07D1414B1B6803F00073002B12
:104A3C0009D1012373E03D4B1B6803F00203002BEB
:104A4C0001D101236BE0394B5B6823F003027B68D7
:104A5C005B68364913434B60FDF7C8FBF8600AE00E
:104A6C00FDF7C4FB0246FB68D31A41F2883293422D
:104A7C0001D9032353E02D4B5B6803F00C027B68D8
:104A8C005B689B009A42EBD1274B1B6803F0070332
:104A9C003A689A4210D2244B1B6823F00702224931
:104AAC003B6813430B60204B1B6803F007033A6809
:104ABC009A4201D0012332E07B681B6803F00403A7
:104ACC00002B08D0194B5B6823F4E0627B68DB6831
:104ADC00164913434B607B681B6803F00803002BDB
:104AEC0009D0124B5B6823F460527B681B69DB00B6
:104AFC000E4913434B6000F021F802460B4B5B68E8
:104B0C001B0903F00F030A49CB5C22FA03F3094A91
:104B1C001360094B1B681846FDF726FB002318464B
:104B2C001037BD4680BD00BF00200240001002407F
:104B3C00F06D0008040000200800002080B487B04D
:104B4C0000AF0023FB600023BB6000237B610023CC
:104B5C007B6000233B611E4B5B68FB60FB6803F0D2
:104B6C000C03042B02D0082B03D027E0194B3B611C
:104B7C0027E0FB689B0C03F00F03174AD35C7B60A8
:104B8C00FB6803F48033002B10D0114B5B685B0C7B
:104B9C0003F00103114AD35CBB607B680D4A03FB35
:104BAC0002F2BB68B2FBF3F37B6104E07B680C4A56
:104BBC0002FB03F37B617B693B6102E0054B3B61CC
:104BCC0000BF3B6918461C37BD4680BC704700BF10
:104BDC000010024000127A00086E0008186E0008DF
:104BEC0000093D0080B400AF024B1B681846BD465F
:104BFC0080BC70470400002080B500AFFFF7F2FFC7
:104C0C000246054B5B681B0A03F007030349CB5CA8
:104C1C0022FA03F3184680BD00100240006E000813
:104C2C0080B500AFFFF7DEFF0246054B5B68DB0A81
:104C3C0003F007030349CB5C22FA03F3184680BD4B
:104C4C0000100240006E000880B485B000AF7860A0
:104C5C000A4B1B680A4AA2FB03235B0A7A6802FB15
:104C6C0003F3FB6000BFFB685A1EFA60002BF9D1FE
:104C7C0000BF00BF1437BD4680BC70470400002045
:104C8C00D34D621080B586B000AF786000233B61D5
:104C9C000023FB607B681B6803F00103002B7DD0B5
:104CAC000023FB754F4BDB6903F08053002B0DD1B8
:104CBC004C4BDB694B4A43F08053D361494BDB6966
:104CCC0003F08053BB60BB680123FB75464B1B682C
:104CDC0003F48073002B18D1434B1B68424A43F4F6
:104CEC0080731360FDF782FA386108E0FDF77EFAF5
:104CFC0002463B69D31A642B01D903236DE03A4B6E
:104D0C001B6803F48073002BF0D0364B1B6A03F442
:104D1C004073FB60FB68002B2ED07B685B6803F450
:104D2C004073FA689A4227D02E4B1B6A23F44073C7
:104D3C00FB602E4B01221A602C4B00221A60294A70
:104D4C00FB681362FB6803F00103002B14D0FDF722
:104D5C004DFA38610AE0FDF749FA02463B69D31A6D
:104D6C0041F28832934201D9032336E01D4B1B6A72
:104D7C0003F00203002BEED01A4B1B6A23F4407293
:104D8C007B685B68174913430B62FB7D012B05D1D4
:104D9C00144BDB69134A23F08053D3617B681B6887
:104DAC0003F00203002B08D00E4B5B6823F4404247
:104DBC007B689B680B4913434B607B681B6803F053
:104DCC001003002B08D0074B5B6823F480027B6830
:104DDC00DB68044913434B60002318461837BD4663
:104DEC0080BD00BF001002400070004040044242F1
:104DFC0080B588B000AF786000237B610023FB6135
:104E0C0000233B610023FB600023BB617B68102BFC
:104E1C000AD07B68102B00F28A807B68012B45D06E
:104E2C007B68022B75D082E0464B5B68FB60454B80
:104E3C001B6803F08073002B7BD0FB689B0C03F08A
:104E4C000F03414AD35C3B61FB6803F48033002BB6
:104E5C0015D03C4B5B685B0C03F001033B4AD35C05
:104E6C007B61FB6803F48033002B0DD0384A7B69DF
:104E7C00B2FBF3F23B6902FB03F3FB6104E03B6919
:104E8C00344A02FB03F3FB612E4B5B6803F4800393
:104E9C00B3F5800F02D1FB69BB614AE0FB695B0093
:104EAC002D4AA2FB03235B08BB6142E0254B1B6A26
:104EBC00FB60FB6803F44073B3F5807F08D1FB689B
:104ECC0003F00203002B03D04FF40043BB611FE03F
:104EDC00FB6803F44073B3F5007F09D1194B5B6A8F
:104EEC0003F00203002B03D049F64043BB610FE0F3
:104EFC00FB6803F44073B3F5407F1CD1114B1B6866
:104F0C0003F40033002B16D04FF22443BB6112E0A4
:104F1C0011E0FFF785FE02460A4B5B689B0B03F022
:104F2C00030301335B00B2FBF3F3BB6104E000BF8E
:104F3C0002E000BF00E000BFBB6918462037BD4649
:104F4C0080BD00BF001002401C6E00082C6E0008D3
:104F5C0000127A0000093D00ABAAAAAA80B582B063
:104F6C0000AF78607B68002B01D1012341E07B68A6
:104F7C0093F83D30DBB2002B06D17B68002283F81E
:104F8C003C207868FCF77AFF7B68022283F83D208E
:104F9C007B681A687B6804331946104600F0FCFAEB
:104FAC007B68012283F846207B68012283F83E202F
:104FBC007B68012283F83F207B68012283F8402024
:104FCC007B68012283F841207B68012283F8422010
:104FDC007B68012283F843207B68012283F84420FC
:104FEC007B68012283F845207B68012283F83D20F1
:104FFC00002318460837BD4680BD000080B485B03C
:10500C0000AF78607B6893F83D30DBB2012B01D0A8
:10501C00012332E07B68022283F83D207B681B6809
:10502C00184A93420ED07B681B68B3F1804F09D0AD
:10503C007B681B68144A934204D07B681B68134A34
:10504C00934211D17B681B689B6803F00703FB60DC
:10505C00FB68062B10D07B681B681A687B681B6882
:10506C0042F001021A6007E07B681B681A687B68D3
:10507C001B6842F001021A60002318461437BD4623
:10508C0080BC7047002C0140000400400008004028
:10509C0080B582B000AF78607B68002B01D1012312
:1050AC0041E07B6893F83D30DBB2002B06D17B6886
:1050BC00002283F83C20786800F039F87B680222E3
:1050CC0083F83D207B681A687B68043319461046C8
:1050DC0000F062FA7B68012283F846207B6801228B
:1050EC0083F83E207B68012283F83F207B680122F5
:1050FC0083F840207B68012283F841207B680122E1
:10510C0083F842207B68012283F843207B680122CC
:10511C0083F844207B68012283F845207B680122B8
:10512C0083F83D20002318460837BD4680BD80B467
:10513C0083B000AF786000BF0C37BD4680BC7047B1
:10514C0080B584B000AF786039603B68002B09D122
:10515C007B6893F83E30DBB2012B14BF0123002394
:10516C00DBB222E03B68042B09D17B6893F83F301B
:10517C00DBB2012B14BF01230023DBB215E03B682B
:10518C00082B09D17B6893F84030DBB2012B14BF9C
:10519C0001230023DBB208E07B6893F84130DBB2DB
:1051AC00012B14BF01230023DBB2002B01D0012300
:1051BC005EE03B68002B04D17B68022283F83E2022
:1051CC0013E03B68042B04D17B68022283F83F2058
:1051DC000BE03B68082B04D17B68022283F840204B
:1051EC0003E07B68022283F841207B681B68012264
:1051FC003968184600F05CFC7B681B681E4A9342B9
:10520C0007D17B681B685A6C7B681B6842F40042B0
:10521C005A647B681B68184A93420ED07B681B68E3
:10522C00B3F1804F09D07B681B68144A934204D0B9
:10523C007B681B68124A934211D17B681B689B6880
:10524C0003F00703FB60FB68062B10D07B681B6820
:10525C001A687B681B6842F001021A6007E07B68E1
:10526C001B681A687B681B6842F001021A600023F5
:10527C0018461037BD4680BD002C0140000400408C
:10528C000008004080B586B000AFF860B9607A6065
:10529C000023FB75FB6893F83C30012B01D10223F2
:1052AC00AEE0FB68012283F83C207B680C2B00F2FB
:1052BC009F8001A252F823F0F9520008FD53000818
:1052CC00FD530008FD53000839530008FD53000836
:1052DC00FD530008FD5300087B530008FD530008E4
:1052EC00FD530008FD530008BB530008FB681B6806
:1052FC00B968184600F0BEF9FB681B689A69FB6830
:10530C001B6842F008029A61FB681B689A69FB688B
:10531C001B6822F004029A61FB681B689969BB68E0
:10532C001A69FB681B680A439A6164E0FB681B6896
:10533C00B968184600F004FAFB681B689A69FB68A8
:10534C001B6842F400629A61FB681B689A69FB68EF
:10535C001B6822F480629A61FB681B689969BB68C0
:10536C001B691A02FB681B680A439A6143E0FB68DD
:10537C001B68B968184600F04DFAFB681B68DA69BF
:10538C00FB681B6842F00802DA61FB681B68DA698B
:10539C00FB681B6822F00402DA61FB681B68D969A0
:1053AC00BB681A69FB681B680A43DA6123E0FB6877
:1053BC001B68B968184600F097FAFB681B68DA6935
:1053CC00FB681B6842F40062DA61FB681B68DA69EF
:1053DC00FB681B6822F48062DA61FB681B68D96980
:1053EC00BB681B691A02FB681B680A43DA6102E09E
:1053FC000123FB7500BFFB68002283F83C20FB7D7A
:10540C0018461837BD4680BD80B584B000AF7860B3
:10541C0039600023FB737B6893F83C30012B01D17E
:10542C000223B4E07B68012283F83C207B680222D3
:10543C0083F83D207B681B689B68BB60BB6823F0CE
:10544C007703BB60BB6823F47F43BB607B681B683E
:10545C00BA689A603B681B68B3F5005F3ED0B3F541
:10546C00005F00F28780B3F5805F00F08680B3F5B3
:10547C00805F7FD8702B1AD0702B7BD8602B50D0CC
:10548C00602B77D8502B3CD0502B73D8402B58D056
:10549C00402B6FD8302B64D0302B6BD8202B60D0A6
:1054AC00202B67D8002B5CD0102B5AD062E07B6885
:1054BC0018683B6899683B685A683B68DB6800F081
:1054CC00D8FA7B681B689B68BB60BB6843F07703AA
:1054DC00BB607B681B68BA689A604FE07B68186891
:1054EC003B6899683B685A683B68DB6800F0C1FA16
:1054FC007B681B689A687B681B6842F480429A60E0
:10550C003CE07B6818683B6859683B68DB681A4666
:10551C0000F038FA7B681B685021184600F08FFAAF
:10552C002CE07B6818683B6859683B68DB681A4656
:10553C0000F056FA7B681B686021184600F07FFA71
:10554C001CE07B6818683B6859683B68DB681A4646
:10555C0000F018FA7B681B684021184600F06FFABF
:10556C000CE07B681A683B681B681946104600F013
:10557C0066FA03E00123FB7300E000BF7B680122A5
:10558C0083F83D207B68002283F83C20FB7B184687
:10559C001037BD4680BD000080B485B000AF786088
:1055AC0039607B681B68FB607B682F4A93420BD089
:1055BC007B68B3F1804F07D07B682C4A934203D0B1
:1055CC007B682B4A934208D1FB6823F07003FB6085
:1055DC003B685B68FA681343FB607B68224A934222
:1055EC000BD07B68B3F1804F07D07B681F4A934286
:1055FC0003D07B681E4A934208D1FB6823F44073A6
:10560C00FB603B68DB68FA681343FB60FB6823F0C4
:10561C0080023B685B691343FB607B68FA681A6025
:10562C003B689A687B68DA623B681A687B689A62A6
:10563C007B680D4A934203D13B681A697B681A63F5
:10564C007B6801225A617B681B6903F00103002B04
:10565C0005D07B681B6923F001027B681A6100BFCF
:10566C001437BD4680BC7047002C0140000400403C
:10567C000008004080B487B000AF786039607B6868
:10568C001B6A7B617B681B6A23F001027B681A62D0
:10569C007B685B683B617B689B69FB60FB6823F004
:1056AC007003FB60FB6823F00303FB603B681B6823
:1056BC00FA681343FB607B6923F002037B613B6850
:1056CC009B687A6913437B617B681C4A93420CD1BB
:1056DC007B6923F008037B613B68DB687A691343C1
:1056EC007B617B6923F004037B617B68134A9342E3
:1056FC0011D13B6923F480733B613B6923F4007344
:10570C003B613B685B693A6913433B613B689B694E
:10571C003A6913433B617B683A695A607B68FA6863
:10572C009A613B685A687B685A637B687A691A622B
:10573C0000BF1C37BD4680BC704700BF002C014029
:10574C0080B487B000AF786039607B681B6A7B617E
:10575C007B681B6A23F010027B681A627B685B68AB
:10576C003B617B689B69FB60FB6823F4E043FB6057
:10577C00FB6823F44073FB603B681B681B02FA68F0
:10578C001343FB607B6923F020037B613B689B68C0
:10579C001B017A6913437B617B681D4A93420DD1CF
:1057AC007B6923F080037B613B68DB681B017A69B2
:1057BC0013437B617B6923F040037B617B68144A54
:1057CC00934213D13B6923F480633B613B6923F41F
:1057DC0000633B613B685B699B003A6913433B6127
:1057EC003B689B699B003A6913433B617B683A6950
:1057FC005A607B68FA689A613B685A687B689A635E
:10580C007B687A691A6200BF1C37BD4680BC704742
:10581C00002C014080B487B000AF786039607B68A1
:10582C001B6A7B617B681B6A23F480727B681A623B
:10583C007B685B683B617B68DB69FB60FB6823F022
:10584C007003FB60FB6823F00303FB603B681B6881
:10585C00FA681343FB607B6923F400737B613B683C
:10586C009B681B027A6913437B617B681D4A9342D8
:10587C000DD17B6923F400637B613B68DB681B0201
:10588C007A6913437B617B6923F480637B617B685A
:10589C00144A934213D13B6923F480533B613B6917
:1058AC0023F400533B613B685B691B013A6913436A
:1058BC003B613B689B691B013A6913433B617B6805
:1058CC003A695A607B68FA68DA613B685A687B68A7
:1058DC00DA637B687A691A6200BF1C37BD4680BCEC
:1058EC00704700BF002C014080B487B000AF7860D7
:1058FC0039607B681B6A3B617B681B6A23F48052AE
:10590C007B681A627B685B687B617B68DB69FB6028
:10591C00FB6823F4E043FB60FB6823F44073FB60FB
:10592C003B681B681B02FA681343FB603B6923F45A
:10593C0000533B613B689B681B033A6913433B6113
:10594C007B680F4A934209D17B6923F480437B61C6
:10595C003B685B699B017A6913437B617B687A695D
:10596C005A607B68FA68DA613B685A687B681A642B
:10597C007B683A691A6200BF1C37BD4680BC704711
:10598C00002C014080B487B000AFF860B9607A6039
:10599C00FB681B6A7B61FB681B6A23F00102FB68D6
:1059AC001A62FB689B693B613B6923F0F0033B6126
:1059BC007B681B013A6913433B617B6923F00A0343
:1059CC007B617A69BB6813437B61FB683A699A61B6
:1059DC00FB687A691A6200BF1C37BD4680BC7047F1
:1059EC0080B487B000AFF860B9607A60FB681B6A5E
:1059FC007B61FB681B6A23F01002FB681A62FB6870
:105A0C009B693B613B6923F470433B617B681B03DF
:105A1C003A6913433B617B6923F0A0037B61BB684C
:105A2C001B017A6913437B61FB683A699A61FB68D5
:105A3C007A691A6200BF1C37BD4680BC704780B4BF
:105A4C0085B000AF786039607B689B68FB60FB6851
:105A5C0023F07003FB603A68FB68134343F00703C1
:105A6C00FB607B68FA689A6000BF1437BD4680BC47
:105A7C00704780B487B000AFF860B9607A603B6063
:105A8C00FB689B687B617B6923F47F437B613B688C
:105A9C001A027B681A43BB6813437A6913437B6110
:105AAC00FB687A699A6000BF1C37BD4680BC7047A2
:105ABC0080B487B000AFF860B9607A60BB6803F05F
:105ACC001F03012202FA03F37B61FB681A6A7B69EC
