:020000040800F2
:1000000000500020012000089D1F0008A51F0008C7
:10001000AD1F0008B51F0008BD1F0008000000004C
:10002000000000000000000000000000C51F0008E4
:10003000D11F000800000000DD1F0008E91F0008B4
:1000400049200008492000084920000849200008EC
:1000500049200008492000084920000849200008DC
:1000600049200008492000084920000849200008CC
:1000700049200008492000084920000849200008BC
:1000800049200008492000084920000849200008AC
:10009000492000084920000849200008492000089C
:1000A000492000084920000849200008492000088C
:1000B000492000084920000849200008492000087C
:1000C000492000084920000849200008492000086C
:1000D000492000084920000849200008492000085C
:1000E00049200008492000084920000800000000BD
:1000F0000000000000000000000000000000000000
:0C01000000000000000000005FF808F1A3
:10010C0010B5054C237833B9044B13B10448AFF345
:10011C0000800123237010BD0C00002000000000A3
:10012C001856000808B5034B1BB103490348AFF33D
:10013C00008008BD000000001000002018560008C8
:10014C0080F0004002E000BF81F0004142001FBF80
:10015C005FEA410392EA030F7FEA226C7FEA236C89
:10016C006AD04FEA1262D2EB1363C1BFD21841407E
:10017C0048404140B8BF5B42192B88BF704710F014
:10018C00004F40F4000020F07F4018BF404211F0B7
:10019C00004F41F4000121F07F4118BF494292EA1F
:1001AC00030F3FD0A2F1010241FA03FC10EB0C004B
:1001BC00C3F1200301FA03F100F0004302D54942D8
:1001CC0060EB4000B0F5000F13D3B0F1807F06D385
:1001DC0040084FEA310102F10102FE2A51D2B1F17D
:1001EC00004F40EBC25008BF20F0010040EA030072
:1001FC007047490040EB0000013A28BFB0F5000FF2
:10020C00EDD2B0FA80FCACF1080CB2EB0C0200FAA7
:10021C000CF0AABF00EBC25052421843BCBFD040F6
:10022C001843704792F0000F81F4000106BF80F470
:10023C0000000132013BB5E74FEA41037FEA226C33
:10024C0018BF7FEA236C21D092EA030F04D092F0FE
:10025C00000F08BF0846704790EA010F1CBF002032
:10026C00704712F07F4F04D1400028BF40F000408F
:10027C00704712F100723CBF00F50000704700F0AF
:10028C00004343F0FE4040F4000070477FEA2262D6
:10029C0016BF08467FEA23630146420206BF5FEAA7
:1002AC00412390EA010F40F4800070474FF00003A7
:1002BC0004E000BF10F0004348BF40425FEA000C6E
:1002CC0008BF704743F0964301464FF000001CE016
:1002DC0050EA010208BF70474FF000030AE000BF6C
:1002EC0050EA010208BF704711F0004302D54042AA
:1002FC0061EB41015FEA010C02BF8446014600201C
:10030C0043F0B64308BFA3F18053A3F50003BCFA36
:10031C008CF2083AA3EBC25310DB01FA02FC6344E3
:10032C0000FA02FCC2F12002BCF1004F20FA02F2EA
:10033C0043EB020008BF20F00100704702F12002DD
:10034C0001FA02FCC2F1200250EA4C0021FA02F23E
:10035C0043EB020008BF20EADC7070474FF0FF0C43
:10036C001CEAD0521EBF1CEAD15392EA0C0F93EA3E
:10037C000C0F6FD01A4480EA010C400218BF5FEAE0
:10038C0041211ED04FF0006343EA501043EA511153
:10039C00A0FB01310CF00040B1F5000F3EBF49004D
:1003AC0041EAD3715B0040EA010062F17F02FD2A51
:1003BC001DD8B3F1004F40EBC25008BF20F0010034
:1003CC00704790F0000F0CF0004C08BF49024CEA4B
:1003DC00502040EA51207F3AC2BFD2F1FF0340EADD
:1003EC00C250704740F400004FF00003013A5DDC4E
:1003FC0012F1190FDCBF00F000407047C2F100028F
:10040C00410021FA02F1C2F1200200FA02FC5FEA7B
:10041C00310040F1000053EA4C0308BF20EADC70C5
:10042C00704792F0000F00F0004C02BF400010F437
:10043C00000F013AF9D040EA0C0093F0000F01F0E4
:10044C00004C02BF490011F4000F013BF9D041EA06
:10045C000C018FE70CEAD15392EA0C0F18BF93EA08
:10046C000C0F0AD030F0004C18BF31F0004CD8D132
:10047C0080EA010000F00040704790F0000F17BFB9
:10048C0090F0004F084691F0000F91F0004F14D0FF
:10049C0092EA0C0F01D142020FD193EA0C0F03D157
:1004AC004B0218BF084608D180EA010000F000405A
:1004BC0040F0FE4040F40000704740F0FE4040F435
:1004CC00400070474FF0FF0C1CEAD0521EBF1CEAD4
:1004DC00D15392EA0C0F93EA0C0F69D0A2EB0302F2
:1004EC0080EA010C49024FEA402037D04FF080538C
:1004FC0043EA111143EA10130CF000408B4238BF51
:10050C005B0042F17D024FF4000C8B4224BF5B1A5E
:10051C0040EA0C00B3EB510F24BFA3EB510340EAAC
:10052C005C00B3EB910F24BFA3EB910340EA9C005A
:10053C00B3EBD10F24BFA3EBD10340EADC001B01CA
:10054C0018BF5FEA1C1CE0D1FD2A3FF650AF8B426E
:10055C0040EBC25008BF20F0010070470CF0004C7B
:10056C004CEA50207F32C2BFD2F1FF0340EAC250A6
:10057C00704740F400004FF00003013A37E792F067
:10058C00000F00F0004C02BF400010F4000F013AC5
:10059C00F9D040EA0C0093F0000F01F0004C02BFC0
:1005AC00490011F4000F013BF9D041EA0C0195E729
:1005BC000CEAD15392EA0C0F08D142027FF47DAFC2
:1005CC0093EA0C0F7FF470AF084676E793EA0C0FB2
:1005DC0004D14B023FF44CAF08466EE730F0004CB0
:1005EC0018BF31F0004CCAD130F000427FF45CAF40
:1005FC0031F000437FF43CAF5FE700BF4FF0FF3CAE
:10060C0006E000BF4FF0010C02E000BF4FF0010C00
:10061C004DF804CD4FEA40024FEA41037FEA226CC9
:10062C0018BF7FEA236C11D001B052EA530C18BFEB
:10063C0090EA010F58BFB2EB030088BFC81738BF50
:10064C006FEAE17018BF40F0010070477FEA226C3E
:10065C0002D15FEA402C05D17FEA236CE4D15FEA3A
:10066C00412CE1D05DF8040B704700BF844608466E
:10067C006146FFE70FB5FFF7C9FF002848BF10F12F
:10068C00000F0FBD4DF808EDFFF7F4FF0CBF012074
:10069C0000205DF808FB00BF4DF808EDFFF7EAFFFE
:1006AC0034BF012000205DF808FB00BF4DF808EDB9
:1006BC00FFF7E0FF94BF012000205DF808FB00BFAE
:1006CC004DF808EDFFF7D2FF94BF012000205DF834
:1006DC0008FB00BF4DF808EDFFF7C8FF34BF012041
:1006EC0000205DF808FB00BF4FEA4002B2F1FE4F5C
:1006FC000FD34FF09E03B3EB12620DD94FEA0023D8
:10070C0043F0004310F0004F23FA02F018BF4042B0
:10071C0070474FF00000704712F1610F01D1420297
:10072C0005D110F0004008BF6FF0004070474FF04B
:10073C000000704780B500AF01F082FC00F056F865
:10074C0000F0E8F900F0AEF800F018F900F062F9EA
:10075C0000F0E6F8224803F053FB0021214803F097
:10076C00F1FB04211F4803F0EDFB00F055FF0020C6
:10077C0000F0BCFF00F0D2FF4FF4FA7001F0C2FCA5
:10078C000021002000F056FA4FF40051164802F0F8
:10079C006FF900F056FE4FF4967001F0B3FC00F0C8
:1007AC0068FE4FF4967001F0ADFC00F08CFE4FF437
:1007BC00967001F0A7FC00F0A2FE4FF4967001F0C9
:1007CC00A1FC00F0B8FE4FF4967001F09BFC00F019
:1007DC00CEFE4FF4967001F095FC00BFD4E700BF3D
:1007EC00AC000020F40000200010014080B594B053
:1007FC0000AF07F1280328220021184604F0DCF88A
:10080C0007F1140300221A605A609A60DA601A61C8
:10081C003B1D00221A605A609A60DA600123BB62A9
:10082C004FF48033FB6200233B630123BB63022341
:10083C007B644FF48033BB644FF4E013FB6407F12B
:10084C002803184602F0DAFD0346002B01D000F015
:10085C00A4FE0F237B610223BB610023FB614FF4D9
:10086C0080633B6200237B6207F11403022118466C
:10087C0003F046F80346002B01D000F08EFE022355
:10088C007B604FF40043FB603B1D184603F0B2F94C
:10089C000346002B01D000F080FE00BF5037BD4650
:1008AC0080BD000080B584B000AF3B1D00221A60F3
:1008BC005A609A60184B194A1A60174B00229A60BA
:1008CC00154B00221A73144B00221A75124B4FF45D
:1008DC006022DA61104B00225A600F4B01221A6120
:1008EC000D4801F033FC0346002B01D000F055FEFF
:1008FC0000237B600123BB600523FB603B1D194675
:10090C00054801F0FBFC0346002B01D000F045FE2E
:10091C0000BF1037BD4680BD2800002000240140D8
:10092C0080B500AF124B134A1A60114B124A5A6031
:10093C000F4B00229A600E4B0022DA600C4B4FF4E6
:10094C0080421A610A4B00225A61094B00229A61BB
:10095C00074B0022DA61064B00221A62044802F0AF
:10096C00A1F80346002B01D000F017FE00BF80BD9C
:10097C005800002000540040A086010080B586B0CD
:10098C0000AF07F1080300221A605A609A60DA601F
:10099C003B4600221A605A601D4B4FF080421A6091
:1009AC001B4B47225A601A4B00229A60184B4FF689
:1009BC00FF72DA60164B00221A61154B00229A6105
:1009CC00134803F0CDF90346002B01D000F0E5FDF0
:1009DC004FF48053BB6007F1080319460C4803F031
:1009EC0015FC0346002B01D000F0D7FD00233B6023
:1009FC0000237B603B461946054803F07FFF034606
:100A0C00002B01D000F0C9FD00BF1837BD4680BDDA
:100A1C00AC00002080B58EB000AF07F12803002297
:100A2C001A605A609A60DA6007F1200300221A609B
:100A3C005A603B1D00221A605A609A60DA601A6193
:100A4C005A619A61314B324A1A60304B47225A60D4
:100A5C002E4B00229A602D4B6322DA602B4B002226
:100A6C001A612A4B00229A61284803F079F903464F
:100A7C00002B01D000F091FD4FF48053BB6207F1C5
:100A8C0028031946214803F0C1FB0346002B01D073
:100A9C0000F083FD1D4803F0FDF90346002B01D047
:100AAC0000F07BFD00233B6200237B6207F12003F7
:100ABC001946164803F022FF0346002B01D000F024
:100ACC006CFD60237B600023BB600023FB60002374
:100ADC007B613B1D002219460C4803F0D5FA0346F6
:100AEC00002B01D000F059FD3B1D0422194607488C
:100AFC0003F0CAFA0346002B01D000F04EFD034868
:100B0C0001F014FA00BF3837BD4680BDF400002058
:100B1C000004004080B588B000AF07F1100300223C
:100B2C001A605A609A60DA603E4B9B693D4A43F00A
:100B3C00100393613B4B9B6903F01003FB60FB6854
:100B4C00384B9B69374A43F020039361354B9B69C3
:100B5C0003F02003BB60BB68324B9B69314A43F006
:100B6C00040393612F4B9B6903F004037B607B6848
:100B7C002C4B9B692B4A43F008039361294B9B69CF
:100B8C0003F008033B603B6800224FF400512648F9
:100B9C0001F056FF00223021244801F051FF0022C1
:100BAC0043F20301224801F04BFF4FF400533B6129
:100BBC0001237B610023BB610223FB6107F110035E
:100BCC001946194801F0B8FD30233B6101237B61C4
:100BDC000023BB610223FB6107F110031946134884
:100BEC0001F0AAFD43F203033B6101237B61002367
:100BFC00BB610223FB6107F1100319460C4801F09D
:100C0C009BFD4FF440433B6100237B610023BB61A0
:100C1C0007F110031946064801F08EFD00BF20377E
:100C2C00BD4680BD0010024000100140000801408C
:100C3C00000C014080B483B000AF78603960054A85
:100C4C007B681360044A3B68136000BF0C37BD46D9
:100C5C0080BC70473C0100204001002080B584B06E
:100C6C0002AF0346FB71002000F040FDFB79002B26
:100C7C0030D001230D221F212A2000F0D6FF0023A3
:100C8C0008221F212A2000F0D0FF01230322192162
:100C9C00252000F0CAFF0123022222212F2000F080
:100CAC00C4FF01230D221F21562000F0BEFF00239C
:100CBC0008221F21562000F0B8FF0123032219211E
:100CCC00512000F0B2FF0123022222215B2000F010
:100CDC00ACFF23E0012301938C230093C8230C2247
:100CEC001F212A2000F038FE012301938C2300934E
:100CFC00C8230C221F21562000F02EFE0123009346
:100D0C001F2336221F211E2000F082FD0123009399
:100D1C001F2362221F214A2000F07AFD0123009339
:100D2C002A231E222D21162000F072FD0123009390
:100D3C002E2320223121182000F06AFD012300937C
:100D4C002D236A222A21622000F062FD01230093E8
:100D5C00312368222E21602000F05AFD01230193DB
:100D6C008C23009314230A222E21402000F0F4FD42
:100D7C0000F0D4FC00BF0837BD4680BD80B584B000
:100D8C0002AF7860002000F0B1FC01230E221F217D
:100D9C002A2000F04AFF002309221F212A2000F0FC
:100DAC0044FF7B68DBB22A33D8B2012305221F2112
:100DBC0000F03BFF7B68DBB22733D8B20023022262
:100DCC001B2100F032FF01230E221F21562000F0C0
:100DDC002CFF002309221F21562000F026FF7B68E0
:100DEC00DBB25633D8B2012305221F2100F01DFFC0
:100DFC007B68DBB25333D8B2002302221B2100F0F4
:100E0C0014FF01230093122332220E211C2000F028
:100E1C00FFFC012300930E23642212214E2000F0CC
:100E2C00F7FC012304223421402000F077FE01233B
:100E3C000193DC230093E62305221221702000F09D
:100E4C008BFD01221C21702000F090FC01221D2141
:100E5C00702000F08BFC00F061FC00BF0837BD4631
:100E6C0080BD80B584B002AF0346FB71002000F05A
:100E7C003DFC012300931B2338221021182000F085
:100E8C00C7FC012300931C2338221121182000F0E9
:100E9C00BFFC01230093112368221C21482000F081
:100EAC00B7FC01230093102368221B21482000F07B
:100EBC00AFFC01230D2222212A2000F0B6FE0023D4
:100ECC00072222212A2000F0B0FE01230422232134
:100EDC002F2000F0AAFE01230D222221562000F023
:100EEC00A4FE002307222221562000F09EFE01239F
:100EFC0004222321512000F098FE00230093232389
:100F0C00382217211C2000F083FC002300931723A8
:100F1C0064222321482000F07BFCFB79002B1AD0A3
:100F2C0001230193B423009300230C22332140208E
:100F3C0000F012FD0123009333234C223321342083
:100F4C0000F066FC01230093372348223721382018
:100F5C0000F05EFC0FE00123009335234E22352177
:100F6C00322000F055FC0123009336234E2236210B
:100F7C00322000F04DFC012300931E2312221E216F
:100F8C00042000F045FC012300931E237C221E212B
:100F9C006E2000F03DFC00F0C1FB00BF0837BD46E1
:100FAC0080BD80B586B002AF0346FB71002000F017
:100FBC009DFBFB7903F00103DBB2002B01D1002375
:100FCC0000E00223FB73FB7B2A33D8B201230D22F2
:100FDC001E2100F0A3FDFB7B2A33D8B2012307228C
:100FEC001E2100F09BFDFB7B5633D8B201230D2252
:100FFC001E2100F093FDFB7B5633D8B20123072250
:10100C001E2100F08BFDFB7B2033D8B2FB7B3433ED
:10101C00DAB2012300932623162100F0F9FBFB7BA7
:10102C003433D8B2FB7B2033DAB20123009326236E
:10103C00162100F0EDFBFB7B4C33D8B2FB7B60330D
:10104C00DAB2012300932623162100F0E1FBFB7B8F
:10105C006033D8B2FB7B4C33DAB2012300932623E6
:10106C00162100F0D5FBFB7903F00103DBB2002B5A
:10107C0008D1FB7B4033D8B201230722342100F086
:10108C004DFD07E0FB7B4033D8B201230A2234210B
:10109C0000F044FD01230093182314220C21082096
:1010AC0000F0B6FB01230093182308220C21142016
:1010BC0000F0AEFB01230093182378220C216C2046
:1010CC0000F0A6FB0123009318236C220C2178203E
:1010DC0000F09EFB00F022FB00BF1037BD4680BD28
:1010EC0080B584B002AF0346FB71002000F0FEFA1D
:1010FC00012300931C232E2212212A2000F088FBAE
:10110C00012300931C2338221C212E2000F080FB8D
:10111C0001230093222330221C21382000F078FB7D
:10112C00012300932C2334222221302000F070FB69
:10113C000123009326232A222C21342000F068FB63
:10114C00012300932C23202226212A2000F060FB6F
:10115C0001230093222324222C21202000F058FB71
:10116C00012300931C231C222221242000F050FB7D
:10117C00012300931C2326221C211C2000F048FB79
:10118C000123009312232A221C21262000F040FB6D
:10119C00012300931C235A221221562000F038FB05
:1011AC00012300931C2364221C215A2000F030FBE5
:1011BC000123009322235C221C21642000F028FBD5
:1011CC00012300932C23602222215C2000F020FBC1
:1011DC0001230093262356222C21602000F018FBBB
:1011EC00012300932C234C222621562000F010FBC7
:1011FC0001230093222350222C214C2000F008FBC9
:10120C00012300931C2348222221502000F000FBD4
:10121C00012300931C2352221C21482000F0F8FAD1
:10122C0001230093122356221C21522000F0F0FAC5
:10123C00012300932A231A222D21102000F0E8FA12
:10124C00012300932F231C223221122000F0E0FAFC
:10125C00012300932D2370222A21662000F0D8FA56
:10126C000123009332236E222F21642000F0D0FA48
:10127C00012301938C230093142316222B2140204D
:10128C0000F06AFB012301938C2300931423162294
:10129C002C21402000F060FB012301938C23009350
:1012AC0014230E223021402000F056FB0123009322
:1012BC0030234E223021322000F0AAFAFB7903F0C1
:1012CC000103DBB2002B08D1012300933723482202
:1012DC003721382000F09CFA07E0012300933823D3
:1012EC00462238213A2000F093FAFB7903F00103EF
:1012FC00DBB2002B20D1012300930C2316220C21EE
:10130C000A2000F085FA01230093122310220621F3
:10131C00102000F07DFA012300930C2376220C217F
:10132C006A2000F075FA0123009312237022062123
:10133C00702000F06DFA1FE0012300931223182295
:10134C0012210E2000F064FA0123009317231322BC
:10135C000D21132000F05CFA01230093122370225C
:10136C001221662000F054FA0123009317236B22FC
:10137C000D216B2000F04CFA00F0D0F900BF0837BB
:10138C00BD4680BD80B584B002AF0346FB71002022
:10139C0000F0ACF901230C2220212A2000F045FC9E
:1013AC000023072220212A2000F03FFC01230322E6
:1013BC0024212D2000F039FC01230C222021562061
:1013CC0000F033FC002307222021562000F02DFCD6
:1013DC00012303222421592000F027FC0123009330
:1013EC000E23362212211C2000F012FA0123009346
:1013FC00122364220E214A2000F00AFAFB7903F032
:10140C000103DBB2002B06D1012302222B211F206A
:10141C0000F084FB05E00123022233211F2000F0A1
:10142C007DFB012301938C230093C8230F223A21C7
:10143C00402000F091FA00F071F900BF0837BD466A
:10144C0080BD80B500AF0120FFF708FC4FF42F7072
:10145C0000F058FE0020FFF701FC782000F052FE4F
:10146C000120FFF7FBFB4FF4FA7000F04BFE00BFBE
:10147C0080BD80B500AF6FF00600FFF77FFC7820D1
:10148C0000F040FE6FF00200FFF778FC782000F0CF
:10149C0039FE0020FFF772FC782000F033FE0320A9
:1014AC00FFF76CFC782000F02DFE0720FFF766FCA0
:1014BC00782000F027FE0020FFF760FC782000F079
:1014CC0021FE00BF80BD80B500AF0020FFF7C9FC36
:1014DC00782000F017FE0120FFF7C3FC782000F005
:1014EC0011FE0020FFF7BDFC782000F00BFE012060
:1014FC00FFF7B7FC782000F005FE00BF80BD80B57B
:10150C0000AF0020FFF74DFD782000F0FBFD01201F
:10151C00FFF747FD782000F0F5FD0020FFF741FDB7
:10152C00782000F0EFFD0120FFF73BFD782000F064
:10153C00E9FD00BF80BD80B500AF0020FFF7D0FDF6
:10154C00B42000F0DFFD0120FFF7CAFDB42000F04D
:10155C00D9FD0020FFF7C4FDB42000F0D3FD01201D
:10156C00FFF7BEFDB42000F0CDFD00BF80BD80B5FF
:10157C0000AF0020FFF706FFDC2000F0C3FD0120C8
:10158C00FFF700FFDC2000F0BDFD0020FFF7FAFEA6
:10159C00DC2000F0B7FD00BF80BD80B400AF72B698
:1015AC0000BF00BFFDE780B400AF00BFBD4680BCEC
:1015BC007047000080B586B004AF0346FB714FF056
:1015CC00FF33029301230193FB1D0093012300229F
:1015DC007821034801F0AAFB00BF0837BD4680BD47
:1015EC005800002080B586B004AF786039603B6845
:1015FC009BB24FF0FF32029201937B680093012360
:10160C0040227821034801F091FB00BF0837BD460A
:10161C0080BD00BF5800002080B500AFFFF7C3FFAE
:10162C00642000F06FFD002000F086FB2020FFF707
:10163C00C1FF0020FFF7BEFFB020FFF7BBFFC820A3
:10164C00FFF7B8FF0020FFF7B5FF1020FFF7B2FF40
:10165C004020FFF7AFFFFF2000F05AFBA120FFF75F
:10166C00A9FFA620FFF7A6FFA820FFF7A3FF3F20A6
:10167C00FFF7A0FFA420FFF79DFFD320FFF79AFFF1
:10168C000020FFF797FFD520FFF794FFF020FFF71E
:10169C0091FFD920FFF78EFF2220FFF78BFFDA2076
:1016AC00FFF788FF1220FFF785FFDB20FFF782FF93
:1016BC002020FFF77FFF8D20FFF77CFF1420FFF722
:1016CC0079FF012000F038FB002000F00FF800F04B
:1016DC0025F8054B00221A80034B00225A80024B3E
:1016EC0001221A7100BF80BD4405002080B582B074
:1016FC0000AF0346FB71FB79002B01D1002300E006
:10170C00FF234FF480621946034803F055F900BFDC
:10171C000837BD4680BD00BF4401002080B582B0B3
:10172C0000AF0023FB7116E0FB79503BDBB218468F
:10173C00FFF740FF0020FFF73DFF1020FFF73AFFB7
:10174C00FB79DB01084A134480211846FFF74AFF56
:10175C00FB790133FB71FB79072BE5D900BF00BF87
:10176C000837BD4680BD00BF4401002080B483B063
:10177C0000AF0346FB710B46BB7113467B7197F9A7
:10178C000730002B3DDBBB793F2B3AD87B79012B03
:10179C001AD1FA79BB79DB08D8B20346DB011344C2
:1017AC001A4AD35C5AB2BB7903F00703012101FA40
:1017BC0003F35BB2134359B2FA790346DB011344CA
:1017CC00C9B2124AD1541DE0FA79BB79DB08D8B200
:1017DC000346DB0113440D4AD35C5AB2BB7903F0C8
:1017EC000703012101FA03F35BB2DB435BB2134045
:1017FC0059B2FA790346DB011344C9B2034AD154F6
:10180C0000E000BF0C37BD4680BC7047440100208F
:10181C0090B589B000AF0446084611461A462346D7
:10182C00FB710346BB710B467B7113463B717A7996
:10183C00FB79D31A002BB8BF5B42BB613A79BB79F9
:10184C00D31A002BB8BF5B427B61FA797B799A4241
:10185C0001D2012301E04FF0FF333B61BA793B79B0
:10186C009A4201D2012301E04FF0FF33FB60BA69C9
:10187C007B69D31AFB6197F8302039797B7918464C
:10188C00FFF774FF24E097F83020B979FB791846FC
:10189C00FFF76CFFFB695B00BB607B695B42BA685E
:1018AC009A4208DDFA697B69D31AFB613B69DAB2AB
:1018BC00FB791344FB71BA68BB699A4208DAFA697E
:1018CC00BB691344FB61FB68DAB2BB791344BB718F
:1018DC00FA797B799A42D6D1BA793B799A42D2D1AC
:1018EC0000BF2437BD4690BD80B582B000AF786094
:1018FC0004497868FEF732FD034618460837BD46A2
:10190C0080BD00BFA7E78E3C80B485B000AF034616
:10191C00FB80FB88B3F5B47F02D8FB88FB8113E016
:10192C00FB88DA080B49A1FB021292084FF4B47140
:10193C0001FB02F29B1AFB81FB89002B01D0FB8976
:10194C0001E04FF4B473FB81FB8918461437BD4694
:10195C0080BC7047176CC11690B58BB002AF0446B3
:10196C00084611461A462346FB710346BB710B46CB
:10197C007B7113467B803B8E1846FFF7C5FF0346F1
:10198C007B617B881846FFF7BFFF03461A46604B06
:10199C001B7802FB03F35F4A82FB03121A441212F8
:1019AC00DB17D31AFB615A4B1B781A467B6902FB77
:1019BC0003F3DB08584AA2FB03239B083B617869BD
:1019CC00FEF774FC04463869FEF770FC03461946B2
:1019DC002046FEF777FD0346FB608FE0F869FEF7C3
:1019EC0065FC0346F9681846FEF7B8FC0346184632
:1019FC00FFF77AFFB861B86903F042F804467B79C7
:101A0C001846FEF757FC034619462046FEF7A6FC7F
:101A1C0003461846FEF768FE03465BB2DAB2FB7962
:101A2C001344FB72B86902F0F3FF04467B79184645
:101A3C00FEF740FC034619462046FEF78FFC034692
:101A4C001846FEF751FE03465BB2DAB2BB7913447B
:101A5C00BB72FB690133FB61FA693B699A420DD099
:101A6C00F869FEF723FC0346F9681846FEF776FC86
:101A7C0003461846FFF738FFB86107E07869FEF7B0
:101A8C0015FC03461846FFF72FFFB861B86902F042
:101A9C00F7FF04467B791846FEF70CFC0346194603
:101AAC002046FEF75BFC03461846FEF71DFE034678
:101ABC005BB2DAB2FB7913447B72B86902F0A8FF0F
:101ACC0004467B791846FEF7F5FB0346194620467B
:101ADC00FEF744FC03461846FEF706FE03465BB2CF
:101AEC00DAB2BB7913443B723C7A7A7AB97AF87AD7
:101AFC0097F8343000932346FFF78AFEFA693B6966
:101B0C009A42FFF46BAF00BF2437BD4690BD00BFB7
:101B1C0030560008B7600BB6176CC11690B587B07D
:101B2C0000AF0446084611461A462346FB7103468D
:101B3C00BB710B467B7113463B717B795B427B61BE
:101B4C0000233B617B79C3F101035B00FB6097F9D8
:101B5C000730002B65DBBB793F2B62D87B69DBB28E
:101B6C00FA79D31AD8B23B69DAB2BB791344DBB237
:101B7C003A791946FFF7FAFD7B69DAB2FB7913441F
:101B8C00D8B23B69DAB2BB791344DBB23A79194665
:101B9C00FFF7ECFD7B69DAB2FB791344D8B23B69F1
:101BAC00DBB2BA79D31ADBB23A791946FFF7DEFD0C
:101BBC007B69DBB2FA79D31AD8B23B69DBB2BA795A
:101BCC00D31ADBB23A791946FFF7D0FDFB68BB603C
:101BDC00BA683B699A4213DC3B6901333B613B6950
:101BEC005B000133FA681344FB607B695B423A6922
:101BFC009A4205D1BA687B699A4201DC0023BB602A
:101C0C00BA687B699A4208DD7B6901337B617B6929
:101C1C005B000133FA681344FB607B69002B9DDD8C
:101C2C0000E000BF1C37BD4690BD90B589B000AF39
:101C3C000446084611461A462346FB710346BB71FF
:101C4C000B467B7113463B717B795B42FB61002336
:101C5C00BB617B79C3F101035B007B6197F90730B2
:101C6C00002B51DBBB793F2B4ED8BB69DAB2BB7969
:101C7C001344FB7317E0FB69DBB2FA79D31ABB731D
:101C8C0008E03A79F97BBB7B1846FFF76FFDBB7B0D
:101C9C00013BBB73BA7BF979FB690B449A42F0DACE
:101CAC00FB7B013BFB73FA7BB979BB69CB1A9A427C
:101CBC00E1DA7B693B613A69BB699A4213DCBB6927
:101CCC000133BB61BB695B0001337A6913447B61EF
:101CDC00FB695B42BA699A4205D13A69FB699A423F
:101CEC0001DC00233B613A69FB699A4208DDFB6920
:101CFC000133FB61FB695B0001337A6913447B613F
:101D0C00FB69002BB1DD00E000BF2437BD4690BD60
:101D1C0080B584B000AF0346FB718123FB73FB7B62
:101D2C001846FFF747FCFB791846FFF743FC00BF4A
:101D3C001037BD4680BD000080B584B000AF0346AF
:101D4C00FB71FB79002B05D0AF23FB73084B0122F1
:101D5C005A7104E0AE23FB73054B00225A71FB7BD6
:101D6C001846FFF727FC00BF1037BD4680BD00BFEB
:101D7C004405002080B485B000AF154B9B69144A14
:101D8C0043F001039361124B9B6903F00103BB60A9
:101D9C00BB680F4BDB690E4A43F08053D3610C4B8D
:101DAC00DB6903F080537B607B680A4B5B68FB60EC
:101DBC00FB6823F0E063FB60FB6843F00073FB609F
:101DCC00044AFB68536000BF1437BD4680BC7047A3
:101DDC00001002400000014080B588B000AF786070
:101DEC0007F1100300221A605A609A60DA607B686F
:101DFC001B68144A934221D1134B9B69124A43F43A
:101E0C0000739361104B9B6903F40073FB60FB68D8
:101E1C000D4B9B690C4A43F0040393610A4B9B697D
:101E2C0003F00403BB60BB6801233B6103237B61AC
:101E3C0007F110031946054800F07EFC00BF20375F
:101E4C00BD4680BD00240140001002400008014046
:101E5C0080B588B000AF786007F1100300221A60DB
:101E6C005A609A60DA607B681B68154A934223D1EA
:101E7C00144B9B69134A43F008039361114B9B6904
:101E8C0003F00803FB60FB68C0233B6112237B61FA
:101E9C000323FB6107F1100319460B4800F04CFCBF
:101EAC00084BDB69074A43F40013D361054BDB692C
:101EBC0003F40013BB60BB6800BF2037BD4680BD78
:101ECC000054004000100240000C014080B485B06A
:101EDC0000AF78607B681B68B3F1804F0CD1114B5D
:101EEC00DB69104A43F00103D3610E4BDB6903F04D
:101EFC000103FB60FB6810E07B681B680A4A934295
:101F0C000BD1084BDB69074A43F00203D361054B45
:101F1C00DB6903F00203BB60BB6800BF1437BD462E
:101F2C0080BC7047001002400004004080B588B0AF
:101F3C0000AF786007F1100300221A605A609A60B3
:101F4C00DA607B681B680F4A934217D10E4B9B6972
:101F5C000D4A43F0040393610B4B9B6903F004039C
:101F6C00FB60FB68C0233B6102237B610223FB61A6
:101F7C0007F110031946054800F0DEFB00BF2037BF
:101F8C00BD4680BD00040040001002400008014026
:101F9C0080B400AF00BFFDE780B400AF00BFFDE729
:101FAC0080B400AF00BFFDE780B400AF00BFFDE719
:101FBC0080B400AF00BFFDE780B400AF00BFBD46EA
:101FCC0080BC704780B400AF00BFBD4680BC70477A
:101FDC0080B400AF00BFBD4680BC704780B500AF79
:101FEC0000F074F800BF80BD80B400AF00BFBD46E8
:101FFC0080BC7047FFF7F8FF0B480C490C4A0023D4
:10200C0002E0D458C4500433C4188C42F9D3094AA2
:10201C00094C002301E013600432A242FBD302F00E
:10202C00D3FCFEF787FB7047000000200C0000205B
:10203C00385A00080C00002050050020FEE7000074
:10204C0080B500AF084B1B68074A43F010031360C0
:10205C00032000F03DFB0F2000F008F8FFF78AFE8C
:10206C000023184680BD00BF0020024080B582B01E
:10207C0000AF7860124B1A68124B1B7819464FF45C
:10208C007A73B3FBF1F3B2FBF3F3184600F047FBA2
:10209C000346002B01D001230EE07B680F2B0AD8DE
:1020AC00002279684FF0FF3000F01DFB064A7B6878
:1020BC001360002300E0012318460837BD4680BD9D
:1020CC0000000020080000200400002080B400AFB5
:1020DC00054B1B781A46054B1B681344034A1360C7
:1020EC0000BFBD4680BC7047080000204C05002096
:1020FC0080B400AF024B1B681846BD4680BC7047CD
:10210C004C05002080B584B000AF7860FFF7F0FF7D
:10211C00B8607B68FB60FB68B3F1FF3F05D00A4BEE
:10212C001B781A46FB681344FB6000BFFFF7E0FF07
:10213C000246BB68D31AFA689A42F7D800BF00BFB0
:10214C001037BD4680BD00BF0800002080B586B0AA
:10215C0000AF78600023FB7500233B610023BB605C
:10216C000023FB607B68002B01D10123BEE07B6860
:10217C009B68002B7B689B6A002B09D17B68002233
:10218C00DA627B68002283F824207868FFF724FE4B
:10219C00786800F0ABF90346FB757B689B6A03F02B
:1021AC001003002B40F09980FB7D002B40F09580B4
:1021BC007B689B6A23F4885323F0020343F00202EA
:1021CC007B689A627B685A687B68DB691A437B6818
:1021DC001B7B5B001343BA681343BB607B689B6833
:1021EC00B3F5807F03D07B689B68012B02D14FF441
:1021FC00807300E000233A6913433B617B681B7DCD
:10220C00012B19D17B681B7B002B09D17B689B6947
:10221C00013B5A033B69134343F400633B610BE0FE
:10222C007B689B6A43F020027B689A627B68DB6A5E
:10223C0043F001027B68DA627B681B685B6823F4FD
:10224C0069417B681B683A690A435A607B681B6862
:10225C009A68284B13407A681268B9680B439360EC
:10226C007B689B68B3F5807F03D07B689B68012BF0
:10227C0004D17B681B69013B1B05FB607B681B68F9
:10228C00DB6A23F470017B681B68FA680A43DA6224
:10229C007B681B689A68184B1340BA689A420BD13A
:1022AC007B680022DA627B689B6A23F0030343F0AD
:1022BC0001027B689A6218E07B689B6A23F0120328
:1022CC0043F010027B689A627B68DB6A43F0010280
:1022DC007B68DA620123FB7507E07B689B6A43F03D
:1022EC0010027B689A620123FB75FB7D1846183738
:1022FC00BD4680BDFDF7E1FFFE0E1FFF80B485B02B
:10230C0000AF786039600023FB730023BB607B68EF
:10231C0093F82430012B01D10223DCE07B680122ED
:10232C0083F824203B685B68062B1CD87B681B68F1
:10233C00596B3B685A6813469B001344053B1F229C
:10234C0002FA03F3DB4319403B6818683B685A6890
:10235C0013469B001344053B00FA03F27B681B6891
:10236C000A435A633CE03B685B680C2B1CD87B68C7
:10237C001B68196B3B685A6813469B001344233B3C
:10238C001F2202FA03F3DB4319403B6818683B68D1
:10239C005A6813469B001344233B00FA03F27B68F4
:1023AC001B680A431A631BE07B681B68D96A3B688D
:1023BC005A6813469B001344413B1F2202FA03F355
:1023CC00DB4319403B6818683B685A6813469B000E
:1023DC001344413B00FA03F27B681B680A43DA6240
:1023EC003B681B68092B1CD97B681B68D9683B6848
:1023FC001A6813465B0013441E3B072202FA03F3D0
:10240C00DB4319403B6898683B681A6813465B00CD
:10241C0013441E3B00FA03F27B681B680A43DA6024
:10242C0019E07B681B6819693B681A6813465B00E6
:10243C001344072202FA03F3DB4319403B68986804
:10244C003B681A6813465B00134400FA03F27B687E
:10245C001B680A431A613B681B68102B03D03B684E
:10246C001B68112B32D17B681B681D4A934225D106
:10247C007B681B689B6803F40003002B26D17B68E8
:10248C001B689A687B681B6842F400029A603B6880
:10249C001B68102B1AD1134B1B68134AA2FB032386
:1024AC009A0C13469B0013445B00BB6002E0BB68B4
:1024BC00013BBB60BB68002BF9D107E07B689B6AD2
:1024CC0043F020027B689A620123FB737B68002235
:1024DC0083F82420FB7B18461437BD4680BC70471C
:1024EC00002401400000002083DE1B4380B584B033
:1024FC0000AF78600023FB607B681B689B6803F06F
:10250C000103012B2ED17B681B689A687B681B68C2
:10251C0022F001029A60FFF7EBFDF8601BE0FFF779
:10252C00E7FD0246FB68D31A022B14D97B681B68A3
:10253C009B6803F00103012B0DD17B689B6A43F070
:10254C0010027B689A627B68DB6A43F001027B684D
:10255C00DA62012307E07B681B689B6803F00103C8
:10256C00012BDCD0002318461037BD4680BD00007F
:10257C0080B485B000AF78607B6803F00703FB6024
:10258C000C4BDB68BB60BA684FF6FF031340BB60B3
:10259C00FB681A02BB68134343F0BF6343F4003378
:1025AC00BB60044ABB68D36000BF1437BD4680BC17
:1025BC00704700BF00ED00E080B400AF044BDB6857
:1025CC001B0A03F007031846BD4680BC704700BFCA
:1025DC0000ED00E080B483B000AF03463960FB71BE
:1025EC0097F90730002B0ADB3B68DAB20C4997F9F4
:1025FC0007301201D2B20B4483F800230AE03B6887
:10260C00DAB20849FB7903F00F03043B1201D2B292
:10261C000B441A7600BF0C37BD4680BC704700BF18
:10262C0000E100E000ED00E080B489B000AFF8609C
:10263C00B9607A60FB6803F00703FB61FB69C3F1C7
:10264C000703042B28BF0423BB61FB690433062B4F
:10265C0002D9FB69033B00E000237B614FF0FF32A2
:10266C00BB6902FA03F3DA43BB681A407B699A40F0
:10267C004FF0FF317B6901FA03F3D9437B680B40C0
:10268C00134318462437BD4680BC704780B582B0D2
:10269C0000AF78607B68013BB3F1807F01D30123ED
:1026AC000FE00A4A7B68013B53600F214FF0FF306B
:1026BC00FFF790FF054B00229A60044B07221A602B
:1026CC00002318460837BD4680BD00BF10E000E06F
:1026DC0080B582B000AF78607868FFF749FF00BF23
:1026EC000837BD4680BD80B586B000AF0346B960E3
:1026FC007A60FB7300237B61FFF75EFF78617A6879
:10270C00B9687869FFF790FF024697F90F301146C8
:10271C001846FFF75FFF00BF1837BD4680BD80B578
:10272C0082B000AF78607868FFF7B0FF03461846B8
:10273C000837BD4680BD000080B48BB000AF786018
:10274C00396000237B6200233B6269E101227B6AD2
:10275C0002FA03F3FB613B681B68FA691340BB6127
:10276C00BA69FB699A4240F058813B685B689A4AA7
:10277C0093425ED0984A934275D8984A934258D067
:10278C00964A93426FD8964A934252D0944A9342B7
:10279C0069D8944A93424CD0924A934263D8924A55
:1027AC00934246D0904A93425DD8122B2AD8122BD2
:1027BC0059D801A252F823F03F2800081928000824
:1027CC002B2800086D2800087328000873280008BF
:1027DC007328000873280008732800087328000861
:1027EC007328000873280008732800087328000851
:1027FC007328000873280008732800082128000893
:10280C0035280008794A934213D02CE03B68DB68EA
:10281C003B6229E03B68DB6804333B6224E03B68A5
:10282C00DB6808333B621FE03B68DB680C333B62C0
:10283C001AE03B689B68002B02D104233B6213E037
:10284C003B689B68012B05D108233B627B68FA69C6
:10285C001A6109E008233B627B68FA695A6103E05C
:10286C0000233B6200E000BFBB69FF2B01D87B68F3
:10287C0001E07B6804337B61BB69FF2B02D87B6A68
:10288C009B0002E07B6A083B9B003B617B691A68FA
:10289C000F213B6901FA03F3DB431A40396A3B69A8
:1028AC0001FA03F31A437B691A603B685B6803F017
:1028BC008053002B00F0B1804D4B9B694C4A43F088
:1028CC00010393614A4B9B6903F00103BB60BB6836
:1028DC00484A7B6A9B08023352F82330FB607B6AC0
:1028EC0003F003039B000F2202FA03F3DB43FA68A5
:1028FC001340FB607B68404A934213D07B683F4A8D
:10290C0093420DD07B683E4A934207D07B683D4A88
:10291C00934201D1032306E0042304E0022302E0E6
:10292C00012300E000237A6A02F003029200934034
:10293C00FA681343FB602F497B6A9B080233FA68E1
:10294C0041F823203B685B6803F48013002B06D00E
:10295C002D4B9A682C49BB6913438B6006E02A4BBC
:10296C009A68BB69DB43284913408B603B685B6802
:10297C0003F40013002B06D0234BDA682249BB6901
:10298C001343CB6006E0204BDA68BB69DB431E497E
:10299C001340CB603B685B6803F40033002B06D01C
:1029AC00194B5A681849BB6913434B6006E0164B28
:1029BC005A68BB69DB43144913404B603B685B6846
:1029CC0003F48033002B21D00F4B1A680E49BB69DE
:1029DC0013430B6021E000BF0000321000003110E7
:1029EC000000221000002110000012100000111035
:1029FC00001002400000014000080140000C0140A2
:102A0C000010014000140140000401400B4B1A68F7
:102A1C00BB69DB43094913400B607B6A01337B6262
:102A2C003B681A687B6A22FA03F3002B7FF48EAEA4
:102A3C0000BF00BF2C37BD4680BC7047000401406E
:102A4C0080B483B000AF78600B467B8013467B70FC
:102A5C007B78002B03D07A887B681A6103E07B8833
:102A6C001A047B681A6100BF0C37BD4680BC7047E6
:102A7C0080B485B000AF78600B467B807B68DB68E8
:102A8C00FB607A88FB6813401A04FB68D9437B8887
:102A9C000B401A437B681A6100BF1437BD4680BCDB
:102AAC007047000080B584B000AF78607B68002B65
:102ABC0001D101232BE17B6893F83D30DBB2002B75
:102ACC0006D17B68002283F83C207868FFF7C0F9B8
:102ADC007B68242283F83D207B681B681A687B681E
:102AEC001B6822F001021A607B681B681A687B68FD
:102AFC001B6842F400421A607B681B681A687B688A
:102B0C001B6822F400421A6001F042F8F8607B68FE
:102B1C005B68814A934207D8FB68804A934294BF12
:102B2C0001230023DBB206E0FB687D4A934294BF8D
:102B3C0001230023DBB2002B01D00123E7E0FB686B
:102B4C00784AA2FB03239B0CBB607B681B685B6809
:102B5C0023F03F017B681B68BA680A435A607B68A4
:102B6C001B681B6A23F03F017B685B686A4A9342CF
:102B7C0002D8BB68013309E0BB684FF4967202FBC4
:102B8C0003F3694AA2FB03239B0901337A68126899
:102B9C000B4313627B681B68DB6923F44F4222F002
:102BAC00FF027B685B685C498B4219D8FB68591E35
:102BBC007B685B685B00B1FBF3F3591C40F6FC735C
:102BCC000B40002B0AD0FB68591E7B685B685B00CE
:102BDC00B1FBF3F30133C3F30B0351E004234FE0D8
:102BEC007B689B68002B11D1FB68581E7B68596869
:102BFC000B465B000B44B0FBF3F30133C3F30B0345
:102C0C00002B0CBF01230023DBB212E0FB68581E23
:102C1C007B6859680B469B000B4499000B44B0FB36
:102C2C00F3F30133C3F30B03002B0CBF012300237D
:102C3C00DBB2002B01D0012322E07B689B68002BC8
:102C4C000ED1FB68581E7B6859680B465B000B4421
:102C5C00B0FBF3F30133C3F30B0343F400430FE076
:102C6C00FB68581E7B6859680B469B000B44990007
:102C7C000B44B0FBF3F30133C3F30B0343F44043B6
:102C8C00796809681343CB617B681B681B6823F068
:102C9C00C0017B68DA697B681B6A1A437B681B6816
:102CAC000A431A607B681B689B6823F4034323F078
:102CBC00FF037A6811697A68D26811437A681268DE
:102CCC000B4393607B681B68DB6823F0FF017B6818
:102CDC005A697B689B691A437B681B680A43DA60F4
:102CEC007B681B681A687B681B6842F001021A60DB
:102CFC007B6800221A647B68202283F83D207B6865
:102D0C0000221A637B68002283F83E2000231846B9
:102D1C001037BD4680BD00BFA08601007F841E0019
:102D2C00FF083D0083DE1B43D34D621080B588B095
:102D3C0002AFF860084611461A4603467B810B46E3
:102D4C003B811346FB80FFF7D3F97861FB6893F85E
:102D5C003D30DBB2202B40F0D9807B6900931923E6
:102D6C0001226D49F86800F071F90346002B01D07F
:102D7C000223CCE0FB6893F83C30012B01D10223F9
:102D8C00C5E0FB68012283F83C20FB681B681B68CC
:102D9C0003F00103012B07D0FB681B681A68FB6862
:102DAC001B6842F001021A60FB681B681A68FB681A
:102DBC001B6822F400621A60FB68212283F83D2014
:102DCC00FB68402283F83E20FB6800221A64FB68F3
:102DDC003A6A5A62FB68BA8C5A85FB685B8D9AB268
:102DEC00FB681A85FB684D4ADA62F8883A8979895A
:102DFC007B690193BB6A00930346F86800F090F876
:102E0C000346002B52D0012381E07A69B96AF86835
:102E1C0000F036FA0346002B0DD0FB681B6C042B1C
:102E2C0007D1FB681B681A68FB681B6842F40072C8
:102E3C001A6001236BE0FB685B6A1A78FB681B68FD
:102E4C001A61FB685B6A5A1CFB685A62FB681B8D33
:102E5C00013B9AB2FB681A85FB685B8D9BB2013B08
:102E6C009AB2FB685A85FB681B685B6903F0040324
:102E7C00042B1BD1FB681B8D002B17D0FB685B6AE6
:102E8C001A78FB681B681A61FB685B6A5A1CFB6842
:102E9C005A62FB681B8D013B9AB2FB681A85FB6872
:102EAC005B8D9BB2013B9AB2FB685A85FB681B8D0C
:102EBC00002BAAD17A69B96AF86800F029FA03469E
:102ECC00002B0DD0FB681B6C042B07D1FB681B6817
:102EDC001A68FB681B6842F400721A60012316E042
:102EEC00FB681B681A68FB681B6842F400721A6066
:102EFC00FB68202283F83D20FB68002283F83E20EB
:102F0C00FB68002283F83C20002300E002231846D3
:102F1C001837BD4680BD00BF020010000000FFFF47
:102F2C0080B588B002AFF860084611461A460346D1
:102F3C007B810B463B811346FB80FB681B681A6840
:102F4C00FB681B6842F480721A607B6A00933B6AD0
:102F5C0000224FF00111F86800F078F80346002BBE
:102F6C000DD0FB681B681B6803F48073B3F5807F7E
:102F7C0003D1FB684FF400721A6403235FE07B8972
:102F8C00DBB21A46FB681B6802F0FE021A617B6A10
:102F9C003A6A2D49F86800F0D3F80346002B01D0AB
:102FAC0001234CE000237B61FB681B685B697B6140
:102FBC00FB681B689B697B617B697A6A396AF86874
:102FCC0000F05EF90346002B0DD0FB681B6C042B44
:102FDC0007D1FB681B681A68FB681B6842F4007217
:102FEC001A6001232BE0FB88012B05D13B89DAB257
:102FFC00FB681B681A6121E03B891B0A9BB2DAB2A1
:10300C00FB681B681A617A6A396AF86800F038F94B
:10301C000346002B0DD0FB681B6C042B07D1FB68FF
:10302C001B681A68FB681B6842F400721A60012363
:10303C0005E03B89DAB2FB681B681A61002318466D
:10304C001837BD4680BD00BF0200010080B584B0BA
:10305C0000AFF860B9603B601346FB7148E03B6819
:10306C00B3F1FF3F44D0FFF743F80246BB69D31AD4
:10307C003A689A4202D33B68002B39D1BB681B0CCF
:10308C00DBB2012B0DD1FB681B685B69DA43BB68B3
:10309C0013409BB2002B0CBF01230023DBB21A465A
:1030AC000CE0FB681B689B69DA43BB6813409BB25E
:1030BC00002B0CBF01230023DBB21A46FB799A428A
:1030CC0016D1FB6800221A63FB68202283F83D208E
:1030DC00FB68002283F83E20FB681B6C43F0200247
:1030EC00FB681A64FB68002283F83C20012323E070
:1030FC00BB681B0CDBB2012B0DD1FB681B685B6939
:10310C00DA43BB6813409BB2002B0CBF0123002396
:10311C00DBB21A460CE0FB681B689B69DA43BB68A0
:10312C0013409BB2002B0CBF01230023DBB21A46C9
:10313C00FB799A4293D0002318461037BD4680BDC8
:10314C0080B584B000AFF860B9607A603B6071E024
:10315C00FB681B685B6903F48063B3F5806F23D154
:10316C00FB681B681A68FB681B6842F400721A60E3
:10317C00FB681B686FF480625A61FB6800221A635B
:10318C00FB68202283F83D20FB68002283F83E2058
:10319C00FB681B6C43F00402FB681A64FB6800229A
:1031AC0083F83C20012367E07B68B3F1FF3F41D0FB
:1031BC00FEF79EFF02463B68D31A7A689A4202D306
:1031CC007B68002B36D1BB681B0CDBB2012B0CD1FE
:1031DC00FB681B685B69DA43BB6813409BB2002B2E
:1031EC0014BF01230023DBB20BE0FB681B689B6957
:1031FC00DA43BB6813409BB2002B14BF012300239E
:10320C00DBB2002B16D0FB6800221A63FB6820226D
:10321C0083F83D20FB68002283F83E20FB681B6C82
:10322C0043F02002FB681A64FB68002283F83C2000
:10323C00012321E0BB681B0CDBB2012B0CD1FB681A
:10324C001B685B69DA43BB6813409BB2002B14BF4D
:10325C0001230023DBB20BE0FB681B689B69DA439C
:10326C00BB6813409BB2002B14BF01230023DBB2BD
:10327C00002B7FF46DAF002318461037BD4680BD80
:10328C0080B584B000AFF860B9607A6034E0F8685B
:10329C0000F086F80346002B01D0012334E0BB6814
:1032AC00B3F1FF3F28D0FEF723FF02467B68D31A09
:1032BC00BA689A4202D3BB68002B1DD1FB681B680D
:1032CC005B6903F08003802B16D0FB6800221A6325
:1032DC00FB68202283F83D20FB68002283F83E2007
:1032EC00FB681B6C43F02002FB681A64FB6800222D
:1032FC0083F83C20012307E0FB681B685B6903F043
:10330C008003802BC3D1002318461037BD4680BDE7
:10331C0080B584B000AFF860B9607A6034E0F868CA
:10332C0000F03EF80346002B01D0012334E0BB68CB
:10333C00B3F1FF3F28D0FEF7DBFE02467B68D31AC1
:10334C00BA689A4202D3BB68002B1DD1FB681B687C
:10335C005B6903F00403042B16D0FB6800221A638C
:10336C00FB68202283F83D20FB68002283F83E2076
:10337C00FB681B6C43F02002FB681A64FB6800229C
:10338C0083F83C20012307E0FB681B685B6903F0B2
:10339C000403042BC3D1002318461037BD4680BD4F
:1033AC0080B483B000AF78607B681B685B6903F402
:1033BC008063B3F5806F1BD17B681B686FF48062F0
:1033CC005A617B6800221A637B68202283F83D20B7
:1033DC007B68002283F83E207B681B6C43F0040260
:1033EC007B681A647B68002283F83C20012300E090
:1033FC00002318460C37BD4680BC704780B586B09C
:10340C0000AF78607B68002B01D1012372E27B68EE
:10341C001B6803F00103002B00F08780924B5B6864
:10342C0003F00C03042B0CD08F4B5B6803F00C03E4
:10343C00082B12D18C4B5B6803F48033B3F5803FBF
:10344C000BD1894B1B6803F40033002B6CD07B68C9
:10345C005B68002B68D101234CE27B685B68B3F599
:10346C00803F06D1804B1B687F4A43F48033136046
:10347C002EE07B685B68002B0CD17B4B1B687A4A77
:10348C0023F480331360784B1B68774A23F4802332
:10349C0013601DE07B685B68B3F5A02F0CD1724BF9
:1034AC001B68714A43F4802313606F4B1B686E4A90
:1034BC0043F4803313600BE06B4B1B686A4A23F4B4
:1034CC0080331360684B1B68674A23F480231360B6
:1034DC007B685B68002B13D0FEF70AFE386108E0AE
:1034EC00FEF706FE02463B69D31A642B01D903236F
:1034FC0000E25D4B1B6803F40033002BF0D014E0AA
:10350C00FEF7F6FD386108E0FEF7F2FD02463B6976
:10351C00D31A642B01D90323ECE1534B1B6803F43E
:10352C000033002BF0D100E000BF7B681B6803F078
:10353C000203002B63D04C4B5B6803F00C03002B95
:10354C000BD0494B5B6803F00C03082B1CD1464B8A
:10355C005B6803F48033002B16D1434B1B6803F0DC
:10356C000203002B05D07B681B69012B01D00123C2
:10357C00C0E13D4B1B6823F0F8027B685B69DB0004
:10358C00394913430B603AE07B681B69002B20D050
:10359C00364B01221A60FEF7ABFD386108E0FEF7EE
:1035AC00A7FD02463B69D31A022B01D90323A1E1E3
:1035BC002D4B1B6803F00203002BF0D02A4B1B6829
:1035CC0023F0F8027B685B69DB00274913430B602F
:1035DC0015E0264B00221A60FEF78AFD386108E0E0
:1035EC00FEF786FD02463B69D31A022B01D9032351
:1035FC0080E11D4B1B6803F00203002BF0D17B68AC
:10360C001B6803F00803002B3AD07B689B69002BE6
:10361C0019D0174B01221A60FEF76AFD386108E0D9
:10362C00FEF766FD02463B69D31A022B01D9032330
:10363C0060E10D4B5B6A03F00203002BF0D001201C
:10364C0000F0BAFA1CE00A4B00221A60FEF750FD9B
:10365C0038610FE0FEF74CFD02463B69D31A022B92
:10366C0008D9032346E100BF00100240000042428B
:10367C0080044242924B5B6A03F00203002BE9D1B7
:10368C007B681B6803F00403002B00F0A68000236A
:10369C00FB758B4BDB6903F08053002B0DD1884BF2
:1036AC00DB69874A43F08053D361854BDB6903F0B8
:1036BC008053BB60BB680123FB75824B1B6803F412
:1036CC008073002B18D17F4B1B687E4A43F48073A8
:1036DC001360FEF70DFD386108E0FEF709FD0246A8
:1036EC003B69D31A642B01D9032303E1754B1B6887
:1036FC0003F48073002BF0D07B68DB68012B06D1C0
:10370C006F4B1B6A6E4A43F0010313622DE07B681A
:10371C00DB68002B0CD16A4B1B6A694A23F001034E
:10372C001362674B1B6A664A23F0040313621CE0A6
:10373C007B68DB68052B0CD1614B1B6A604A43F03C
:10374C00040313625E4B1B6A5D4A43F00103136270
:10375C000BE05B4B1B6A5A4A23F001031362584B74
:10376C001B6A574A23F0040313627B68DB68002B47
:10377C0015D0FEF7BDFC38610AE0FEF7B9FC024635
:10378C003B69D31A41F28832934201D90323B1E049
:10379C004B4B1B6A03F00203002BEED014E0FEF738
:1037AC00A7FC38610AE0FEF7A3FC02463B69D31A7A
:1037BC0041F28832934201D903239BE0404B1B6AB0
:1037CC0003F00203002BEED1FB7D012B05D13C4B0A
:1037DC00DB693B4A23F08053D3617B68DB69002BA8
:1037EC0000F08780364B5B6803F00C03082B61D02C
:1037FC007B68DB69022B46D1334B00221A60FEF743
:10380C0077FC386108E0FEF773FC02463B69D31A7B
:10381C00022B01D903236DE0294B1B6803F00073C5
:10382C00002BF0D17B681B6AB3F5803F08D1244B89
:10383C005B6823F400327B689B68214913434B601F
:10384C001F4B5B6823F474127B68196A7B685B6A94
:10385C000B431B4913434B601B4B01221A60FEF7B1
:10386C0047FC386108E0FEF743FC02463B69D31A7B
:10387C00022B01D903233DE0114B1B6803F00073AD
:10388C00002BF0D035E0104B00221A60FEF730FC14
:10389C00386108E0FEF72CFC02463B69D31A022B78
:1038AC0001D9032326E0064B1B6803F00073002BA1
:1038BC00F0D11EE07B68DB69012B07D1012319E0F5
:1038CC000010024000700040600042420B4B5B68ED
:1038DC00FB60FB6803F480327B681B6A9A4206D15A
:1038EC00FB6803F470127B685B6A9A4201D0012377
:1038FC0000E0002318461837BD4680BD001002407A
:10390C0080B584B000AF786039607B68002B01D142
:10391C000123D0E06A4B1B6803F007033A689A4214
:10392C0010D9674B1B6823F0070265493B681343AA
:10393C000B60634B1B6803F007033A689A4201D093
:10394C000123B8E07B681B6803F00203002B20D036
:10395C007B681B6803F00403002B05D0594B5B6894
:10396C00584A43F4E06353607B681B6803F0080318
:10397C00002B05D0534B5B68524A43F460535360A1
:10398C00504B5B6823F0F0027B689B684D491343F6
:10399C004B607B681B6803F00103002B40D07B68F5
:1039AC005B68012B07D1474B1B6803F40033002BDA
:1039BC0015D101237FE07B685B68022B07D1414B5B
:1039CC001B6803F00073002B09D1012373E03D4BFE
:1039DC001B6803F00203002B01D101236BE0394B70
:1039EC005B6823F003027B685B68364913434B60CA
:1039FC00FEF77EFBF8600AE0FEF77AFB0246FB68F6
:103A0C00D31A41F28832934201D9032353E02D4B50
:103A1C005B6803F00C027B685B689B009A42EBD1FD
:103A2C00274B1B6803F007033A689A4210D2244BC9
:103A3C001B6823F0070222493B6813430B60204BA1
:103A4C001B6803F007033A689A4201D0012332E065
:103A5C007B681B6803F00403002B08D0194B5B68D0
:103A6C0023F4E0627B68DB68164913434B607B6888
:103A7C001B6803F00803002B09D0124B5B6823F47E
:103A8C0060527B681B69DB000E4913434B6000F0EE
:103A9C0021F802460B4B5B681B0903F00F030A4924
:103AAC00CB5C22FA03F3094A1360094B1B681846D6
:103ABC00FEF7DCFA002318461037BD4680BD00BF68
:103ACC000020024000100240345600080000002084
:103ADC000400002080B487B000AF0023FB600023FB
:103AEC00BB6000237B6100237B6000233B611E4B8A
:103AFC005B68FB60FB6803F00C03042B02D0082B03
:103B0C0003D027E0194B3B6127E0FB689B0C03F0CB
:103B1C000F03174AD35C7B60FB6803F48033002BE4
:103B2C0010D0114B5B685B0C03F00103114AD35CA2
:103B3C00BB607B680D4A03FB02F2BB68B2FBF3F37C
:103B4C007B6104E07B680C4A02FB03F37B617B69BD
:103B5C003B6102E0054B3B6100BF3B6918461C37DB
:103B6C00BD4680BC704700BF0010024000127A00B6
:103B7C004C5600085C56000800093D0080B400AFAC
:103B8C00024B1B681846BD4680BC704700000020E5
:103B9C0080B500AFFFF7F2FF0246054B5B681B0ACE
:103BAC0003F007030349CB5C22FA03F3184680BDEC
:103BBC00001002404456000880B485B000AF786015
:103BCC000A4B1B680A4AA2FB03235B0A7A6802FBB6
:103BDC0003F3FB6000BFFB685A1EFA60002BF9D19F
:103BEC0000BF00BF1437BD4680BC704700000020EA
:103BFC00D34D621080B586B000AF786000233B6176
:103C0C000023FB607B681B6803F00103002B7DD055
:103C1C000023FB754F4BDB6903F08053002B0DD158
:103C2C004C4BDB694B4A43F08053D361494BDB6906
:103C3C0003F08053BB60BB680123FB75464B1B68CC
:103C4C0003F48073002B18D1434B1B68424A43F496
:103C5C0080731360FEF74CFA386108E0FEF748FAFF
:103C6C0002463B69D31A642B01D903236DE03A4B0E
:103C7C001B6803F48073002BF0D0364B1B6A03F4E3
:103C8C004073FB60FB68002B2ED07B685B6803F4F1
:103C9C004073FA689A4227D02E4B1B6A23F4407368
:103CAC00FB602E4B01221A602C4B00221A60294A11
:103CBC00FB681362FB6803F00103002B14D0FEF7C2
:103CCC0017FA38610AE0FEF713FA02463B69D31A79
:103CDC0041F28832934201D9032336E01D4B1B6A13
:103CEC0003F00203002BEED01A4B1B6A23F4407234
:103CFC007B685B68174913430B62FB7D012B05D175
:103D0C00144BDB69134A23F08053D3617B681B6827
:103D1C0003F00203002B08D00E4B5B6823F44042E7
:103D2C007B689B680B4913434B607B681B6803F0F3
:103D3C001003002B08D0074B5B6823F480027B68D0
:103D4C00DB68044913434B60002318461837BD4603
:103D5C0080BD00BF00100240007000404004424291
:103D6C0080B582B000AF78607B68002B01D1012355
:103D7C0041E07B6893F83D30DBB2002B06D17B68C9
:103D8C00002283F83C207868FEF7A0F87B680222BA
:103D9C0083F83D207B681A687B680433194610460B
:103DAC0000F0FCFA7B68012283F846207B68012234
:103DBC0083F83E207B68012283F83F207B68012238
:103DCC0083F840207B68012283F841207B68012224
:103DDC0083F842207B68012283F843207B68012210
:103DEC0083F844207B68012283F845207B680122FC
:103DFC0083F83D20002318460837BD4680BD0000DF
:103E0C0080B485B000AF78607B6893F83D30DBB24E
:103E1C00012B01D0012332E07B68022283F83D2084
:103E2C007B681B68184A93420ED07B681B68B3F101
:103E3C00804F09D07B681B68144A934204D07B687E
:103E4C001B68134A934211D17B681B689B6803F073
:103E5C000703FB60FB68062B10D07B681B681A6895
:103E6C007B681B6842F001021A6007E07B681B68E4
:103E7C001A687B681B6842F001021A60002318461E
:103E8C001437BD4680BC7047002C01400004004034
:103E9C000008004080B582B000AF78607B68002BD2
:103EAC0001D1012341E07B6893F83D30DBB2002B5C
:103EBC0006D17B68002283F83C20786800F039F842
:103ECC007B68022283F83D207B681A687B68043388
:103EDC001946104600F062FA7B68012283F84620EE
:103EEC007B68012283F83E207B68012283F83F2007
:103EFC007B68012283F840207B68012283F84120F3
:103F0C007B68012283F842207B68012283F84320DE
:103F1C007B68012283F844207B68012283F84520CA
:103F2C007B68012283F83D20002318460837BD46E4
:103F3C0080BD80B483B000AF786000BF0C37BD4645
:103F4C0080BC704780B584B000AF786039603B6846
:103F5C00002B09D17B6893F83E30DBB2012B14BFE8
:103F6C0001230023DBB222E03B68042B09D17B68E0
:103F7C0093F83F30DBB2012B14BF01230023DBB2DB
:103F8C0015E03B68082B09D17B6893F84030DBB215
:103F9C00012B14BF01230023DBB208E07B6893F8EC
:103FAC004130DBB2012B14BF01230023DBB2002B09
:103FBC0001D001235EE03B68002B04D17B68022218
:103FCC0083F83E2013E03B68042B04D17B6802226B
:103FDC0083F83F200BE03B68082B04D17B6802225E
:103FEC0083F8402003E07B68022283F841207B6841
:103FFC001B6801223968184600F05CFC7B681B6862
:10400C001E4A934207D17B681B685A6C7B681B68FD
:10401C0042F400425A647B681B68184A93420ED0E3
:10402C007B681B68B3F1804F09D07B681B68144A0E
:10403C00934204D07B681B68124A934211D17B686F
:10404C001B689B6803F00703FB60FB68062B10D012
:10405C007B681B681A687B681B6842F001021A6057
:10406C0007E07B681B681A687B681B6842F00102DA
:10407C001A60002318461037BD4680BD002C014045
:10408C00000400400008004080B586B000AFF86026
:10409C00B9607A600023FB75FB6893F83C30012B08
:1040AC0001D10223AEE0FB68012283F83C207B683F
:1040BC000C2B00F29F8001A252F823F0FD40000867
:1040CC000142000801420008014200083D4100087D
:1040DC000142000801420008014200087F4100082B
:1040EC00014200080142000801420008BF410008DB
:1040FC00FB681B68B968184600F0BEF9FB681B68C2
:10410C009A69FB681B6842F008029A61FB681B689D
:10411C009A69FB681B6822F004029A61FB681B68B1
:10412C009969BB681A69FB681B680A439A6164E069
:10413C00FB681B68B968184600F004FAFB681B683A
:10414C009A69FB681B6842F400629A61FB681B6801
:10415C009A69FB681B6822F480629A61FB681B6891
:10416C009969BB681B691A02FB681B680A439A6150
:10417C0043E0FB681B68B968184600F04DFAFB6811
:10418C001B68DA69FB681B6842F00802DA61FB689D
:10419C001B68DA69FB681B6822F00402DA61FB68B1
:1041AC001B68D969BB681A69FB681B680A43DA612A
:1041BC0023E0FB681B68B968184600F097FAFB68A7
:1041CC001B68DA69FB681B6842F40062DA61FB6801
:1041DC001B68DA69FB681B6822F48062DA61FB6891
:1041EC001B68D969BB681B691A02FB681B680A4308
:1041FC00DA6102E00123FB7500BFFB68002283F843
:10420C003C20FB7D18461837BD4680BD80B584B078
:10421C0000AF786039600023FB737B6893F83C3007
:10422C00012B01D10223B4E07B68012283F83C20EE
:10423C007B68022283F83D207B681B689B68BB600F
:10424C00BB6823F07703BB60BB6823F47F43BB6080
:10425C007B681B68BA689A603B681B68B3F5005FA3
:10426C003ED0B3F5005F00F28780B3F5805F00F0BD
:10427C008680B3F5805F7FD8702B1AD0702B7BD8DB
:10428C00602B50D0602B77D8502B3CD0502B73D850
:10429C00402B58D0402B6FD8302B64D0302B6BD8A0
:1042AC00202B60D0202B67D8002B5CD0102B5AD041
:1042BC0062E07B6818683B6899683B685A683B68A1
:1042CC00DB6800F0D8FA7B681B689B68BB60BB6836
:1042DC0043F07703BB607B681B68BA689A604FE059
:1042EC007B6818683B6899683B685A683B68DB6870
:1042FC0000F0C1FA7B681B689A687B681B6842F403
:10430C0080429A603CE07B6818683B6859683B685F
:10431C00DB681A4600F038FA7B681B685021184697
:10432C0000F08FFA2CE07B6818683B6859683B6892
:10433C00DB681A4600F056FA7B681B686021184649
:10434C0000F07FFA1CE07B6818683B6859683B6892
:10435C00DB681A4600F018FA7B681B684021184687
:10436C0000F06FFA0CE07B681A683B681B68194612
:10437C00104600F066FA03E00123FB7300E000BF77
:10438C007B68012283F83D207B68002283F83C2067
:10439C00FB7B18461037BD4680BD000080B485B04D
:1043AC0000AF786039607B681B68FB607B682F4AC4
:1043BC0093420BD07B68B3F1804F07D07B682C4ABB
:1043CC00934203D07B682B4A934208D1FB6823F0BD
:1043DC007003FB603B685B68FA681343FB607B68A7
:1043EC00224A93420BD07B68B3F1804F07D07B6895
:1043FC001F4A934203D07B681E4A934208D1FB6844
:10440C0023F44073FB603B68DB68FA681343FB6082
:10441C00FB6823F080023B685B691343FB607B689D
:10442C00FA681A603B689A687B68DA623B681A68BB
:10443C007B689A627B680D4A934203D13B681A6988
:10444C007B681A637B6801225A617B681B6903F0E5
:10445C000103002B05D07B681B6923F001027B68EC
:10446C001A6100BF1437BD4680BC7047002C014058
:10447C00000400400008004080B487B000AF7860B2
:10448C0039607B681B6A7B617B681B6A23F00102C5
:10449C007B681A627B685B683B617B689B69FB602D
:1044AC00FB6823F07003FB60FB6823F00303FB60E5
:1044BC003B681B68FA681343FB607B6923F00203BB
:1044CC007B613B689B687A6913437B617B681C4A00
:1044DC0093420CD17B6923F008037B613B68DB685A
:1044EC007A6913437B617B6923F004037B617B68EE
:1044FC00134A934211D13B6923F480733B613B69AE
:10450C0023F400733B613B685B693A6913433B617D
:10451C003B689B693A6913433B617B683A695A6013
:10452C007B68FA689A613B685A687B685A637B6857
:10453C007A691A6200BF1C37BD4680BC704700BF49
:10454C00002C014080B487B000AF786039607B6884
:10455C001B6A7B617B681B6A23F010027B681A6202
:10456C007B685B683B617B689B69FB60FB6823F441
:10457C00E043FB60FB6823F44073FB603B681B6803
:10458C001B02FA681343FB607B6923F020037B61F9
:10459C003B689B681B017A6913437B617B681D4AEE
:1045AC0093420DD17B6923F080037B613B68DB6810
:1045BC001B017A6913437B617B6923F040037B61A8
:1045CC007B68144A934213D13B6923F480633B61AB
:1045DC003B6923F400633B613B685B699B003A6970
:1045EC0013433B613B689B699B003A6913433B61F6
:1045FC007B683A695A607B68FA689A613B685A68CA
:10460C007B689A637B687A691A6200BF1C37BD4667
:10461C0080BC7047002C014080B487B000AF78603C
:10462C0039607B681B6A7B617B681B6A23F4807230
:10463C007B681A627B685B683B617B68DB69FB604B
:10464C00FB6823F07003FB60FB6823F00303FB6043
:10465C003B681B68FA681343FB607B6923F40073A7
:10466C007B613B689B681B027A6913437B617B68A7
:10467C001D4A93420DD17B6923F400637B613B6837
:10468C00DB681B027A6913437B617B6923F48063CB
:10469C007B617B68144A934213D13B6923F48053AA
:1046AC003B613B6923F400533B613B685B691B0135
:1046BC003A6913433B613B689B691B013A6913439D
:1046CC003B617B683A695A607B68FA68DA613B68DF
:1046DC005A687B68DA637B687A691A6200BF1C3798
:1046EC00BD4680BC704700BF002C014080B487B031
:1046FC0000AF786039607B681B6A3B617B681B6A22
:10470C0023F480527B681A627B685B687B617B68F0
:10471C00DB69FB60FB6823F4E043FB60FB6823F47C
:10472C004073FB603B681B681B02FA681343FB6019
:10473C003B6923F400533B613B689B681B033A695C
:10474C0013433B617B680F4A934209D17B6923F485
:10475C0080437B613B685B699B017A6913437B6196
:10476C007B687A695A607B68FA68DA613B685A68D8
:10477C007B681A647B683A691A6200BF1C37BD46B5
:10478C0080BC7047002C014080B487B000AFF8604B
:10479C00B9607A60FB681B6A7B61FB681B6A23F05B
:1047AC000102FB681A62FB689B693B613B6923F061
:1047BC00F0033B617B681B013A6913433B617B69E6
:1047CC0023F00A037B617A69BB6813437B61FB6846
:1047DC003A699A61FB687A691A6200BF1C37BD4658
:1047EC0080BC704780B487B000AFF860B9607A6065
:1047FC00FB681B6A7B61FB681B6A23F01002FB6879
:10480C001A62FB689B693B613B6923F470433B6113
:10481C007B681B033A6913433B617B6923F0A0035C
:10482C007B61BB681B017A6913437B61FB683A6946
:10483C009A61FB687A691A6200BF1C37BD4680BC5E
:10484C00704780B485B000AF786039607B689B6836
:10485C00FB60FB6823F07003FB603A68FB68134352
:10486C0043F00703FB607B68FA689A6000BF14375B
:10487C00BD4680BC704780B487B000AFF860B960AB
:10488C007A603B60FB689B687B617B6923F47F43A8
:10489C007B613B681A027B681A43BB6813437A69D5
:1048AC0013437B61FB687A699A6000BF1C37BD4675
:1048BC0080BC704780B487B000AFF860B9607A6094
:1048CC00BB6803F01F03012202FA03F37B61FB6850
:1048DC001A6A7B69DB431A40FB681A62FB681A6A26
:1048EC00BB6803F01F03796801FA03F31A43FB68F2
:1048FC001A6200BF1C37BD4680BC704780B485B0BF
:10490C0000AF786039607B6893F83C30012B01D1A3
:10491C00022346E07B68012283F83C207B6802225C
:10492C0083F83D207B681B685B68FB607B681B68B9
:10493C009B68BB60FB6823F07003FB603B681B68E3
:10494C00FA681343FB607B681B68FA685A607B68E3
:10495C001B68164A93420ED07B681B68B3F1804FDC
:10496C0009D07B681B68124A934204D07B681B6891
:10497C00104A93420CD1BB6823F08003BB603B68A8
:10498C005B68BA681343BB607B681B68BA689A6043
:10499C007B68012283F83D207B68002283F83C2051
:1049AC00002318461437BD4680BC7047002C0140CC
:1049BC00000400400008004003460244934200D12A
:1049CC00704703F8011BF9E770B500260C4D0D4C30
:1049DC00641BA410A64209D100F018FE00260A4D53
:1049EC000A4C641BA410A64205D170BD55F8043BBB
:1049FC0098470136EEE755F8043B98470136F2E745
:104A0C00305A0008305A0008305A0008345A00084E
:104A1C0007B51A4A20F000439342014605D80021FD
:104A2C0003B05DF804EB00F065B8B3F1FF4F04D3AD
:104A3C00FBF78AFB03B05DF804FB694600F050F904
:104A4C0000F00302012A07D0022A0CD082B9019986
:104A5C00009800F04FF8EDE70199009800F0CAF8C3
:104A6C0000F10040E6E70199009800F043F8F7E701
:104A7C0001220199009800F0BDF8DBE7D80F493FFF
:104A8C0007B51B4A20F000439342014606D800228A
:104A9C00002103B05DF804EB00F0ACB8B3F1FF4FAC
:104AAC0004D3FBF751FB03B05DF804FB694600F03F
:104ABC0017F900F00300012808D002280BD090B998
:104ACC0001220199009800F095F8ECE70199009803
:104ADC0000F010F8E7E701220199009800F08AF83D
:104AEC0000F10040DFE70199009800F003F8F7E7C8
:104AFC00D80F493F2DE9F04120F00045B5F1485F52
:104B0C000646884603D2FBF7EFFD00285CD0314601
:104B1C003046FBF723FC4FF07C510446FBF71EFCA0
:104B2C002B4907462046FBF719FC2A49FBF70EFBDD
:104B3C002146FBF713FC2849FBF706FB2146FBF744
:104B4C000DFC2649FBF702FB2146FBF707FC244929
:104B5C00FBF7FAFA2146FBF701FC2249FBF7F6FAC0
:104B6C002146FBF7FBFB2146FBF7F8FB41460446CD
:104B7C003046FBF7F3FB01462046FBF7E5FA1A4BF0
:104B8C0004469D420AD801463846FBF7DDFA014639
:104B9C004FF07E50FBF7D8FABDE8F081134B4FF085
:104BAC007E509D428CBF124D05F17F452946FBF787
:104BBC00CBFA294606463846FBF7C6FA2146FBF7E0
:104BCC00C3FA01463046E5E74FF07E50E4E700BFFC
:104BDC004ED747ADF6740F317CF29334010DD037BC
:104BEC00610BB63AABAA2A3D9999993E0000483F11
:104BFC000000903E2DE9F84320F00043B3F1485FEC
:104C0C0004460F46914603D2FBF76EFD002835D0C3
:104C1C0021462046FBF7A2FB054601462046FBF742
:104C2C009DFB294906462846FBF798FB2749FBF7CD
:104C3C008BFA2946FBF792FB2549FBF787FA2946A5
:104C4C00FBF78CFB2349FBF77FFA2946FBF786FB26
:104C5C002149FBF77BFA8046B9F1000F11D10146CF
:104C6C002846FBF77BFB1D49FBF76EFA3146FBF739
:104C7C0075FB01462046FBF769FA04462046BDE861
:104C8C00F8834FF07C513846FBF768FB4146814670
:104C9C003046FBF763FB01464846FBF755FA2946BD
:104CAC00FBF75CFB3946FBF74FFA0C4905463046DF
:104CBC00FBF754FB01462846FBF748FA0146204611
:104CCC00FBF742FAD9E700BFD3C92E2F342FD732C6
:104CDC001BEF3836010D50398988083CABAA2A3EA7
:104CEC002DE9F04FA44A20F0004890450C4682462E
:104CFC0087B004D8002308604B6000251DE09F4A54
:104D0C0090454FD820F0004500289D499D4F25F037
:104D1C000F0524DDFBF718FABD42064611D09A495F
:104D2C00FBF712FA014605463046FBF70DFA964999
:104D3C00FBF70AFA256001256060284607B0BDE83C
:104D4C00F08F9249FBF700FA91490646FBF7FCF904
:104D5C00014605463046FBF7F7F98D49E8E7FBF7C6
:104D6C00F5F9BD4206460FD08749FBF7EFF901462E
:104D7C0005463046FBF7E8F98349FBF7E7F9256070
:104D8C0060604FF0FF35D8E78049FBF7DFF98049C9
:104D9C000646FBF7DBF9014605463046FBF7D4F92E
:104DAC007B49EAE77B4A904500F2958000F0FEF8DB
:104DBC0079490646FBF7D2FA4FF07C51FBF7C6F95E
:104DCC00FBF792FC0546FBF775FA6D498146FBF73C
:104DDC00C5FA01463046FBF7B7F96B49074648461A
:104DEC00FBF7BCFA1F2D06460EDC6C4A691E52F806
:104DFC0021202AF0004323F0FF03934204D03146D4
:104E0C003846FBF7A1F90BE031463846FBF79CF925
:104E1C00C0F3C753C3EBD853082B4FEAE85B01DC54
:104E2C00206026E059494846FBF798FA06460146A9
:104E3C003846FBF789F9014680463846FBF784F97A
:104E4C003146FBF781F9064651494846FBF786FA8D
:104E5C003146FBF779F9014606464046FBF774F9F3
:104E6C00C0F3C753ABEB030BBBF1190F18DC474670
:104E7C002060D4F8008038464146FBF765F931468E
:104E8C00FBF762F9BAF1000F6060BFF656AF08F19C
:104E9C00004800F10040C4F8008060606D424CE7AF
:104EAC003F494846FBF75AFA064601464046FBF78F
:104EBC004BF9014607464046FBF746F93146FBF7EE
:104ECC0043F9064637494846FBF748FA3146FBF7A3
:104EDC003BF9064693E7B8F1FF4F05D30146FBF7C4
:104EEC0033F96060206008E74FEAE856863EA8EB8D
:104EFC00C6584046FBF7F8FBFBF7DCF9014603907C
:104F0C004046FBF721F94FF08741FBF727FA07469C
:104F1C00FBF7EAFBFBF7CEF9014604900546384651
:104F2C00FBF712F94FF08741FBF718FA00210590B7
:104F3C00FBF7A8FBF0B100212846FBF7A3FB0028E8
:104F4C0014BF01230223184A21460192022203A80E
:104F5C000092324600F02EF8BAF1000F0546BFF66B
:104F6C00ECAE236803F100432360636803F1004354
:104F7C00636093E70323E6E7D80F493FE3CB164082
:104F8C00800FC93FD00FC93F4344353700443537F4
:104F9C0008A3852E800F494384F9223F60560008F0
:104FAC0000A3852E32318D24E056000820F00040FD
:104FBC00704700002DE9F04FDBB002920493649A25
:104FCC00AC4B059053F8223000910193049B013BAC
:104FDC000393029B1A1DC0F29980DC1E48BF1C1D56
:104FEC00E41000254FF0000B671CFB000693029B9E
:104FFC00039AA3EBC707019BA4EB020803EB02097E
:10500C00659B1EAE03EB880A4D4540F38180049AE4
:10501C001EAB03EB82054FF0000900230DF58C7AD3
:10502C00019A914540F39A8013460AAA02EB830336
:10503C000893659B03EB8403019C07930DF12808EF
:10504C00464625464FF087495AAB03EB840353F889
:10505C0050BC0DF58C7A002D00F3858039465846EE
:10506C0000F046FA4FF078510546FBF777F900F05F
:10507C008BFA4FF08241FBF771F901462846FBF79A
:10508C0063F80546FBF730FB0646FBF713F90146C0
:10509C002846FBF759F8002F814640F38180621EA9
:1050AC000AAB53F82250C7F1080145FA01F31E442C
:1050BC008B40ED1A0AAB43F82250C7F107031D4190
:1050CC00002D7ADD002292460136944200F3AA802C
:1050DC00002F05DD012F00F0B680022F00F0BD80FF
:1050EC00022D6AD149464FF07E50FBF72DF88146D0
:1050FC00BAF1000F61D039464FF07E5000F0F8F94C
:10510C0001464846FBF720F8814656E0002468E744
:10511C0018EB050F07D45AF82500FBF7CBF846F827
:10512C00040B013570E75846F9E70793059B5BF8CC
:10513C00041D53F82800FBF711F901463046FBF724
:10514C0005F80646079B08F10108039A9045ECDD2B
:10515C004AF8046B09F10109043561E7AB461E46B8
:10516C004FF00008F1E74FF06E515846FBF7F6F898
:10517C00FBF7BAFAFBF79EF849460990FBF7EEF8F5
:10518C0001465846FAF7E0FFFBF7AEFA013D46F848
:10519C00040B5AF825100998FAF7D8FF83465AE7FA
:1051AC0005D1631E0AAA52F82350ED1188E74FF07F
:1051BC007C51FBF785FA054690BB00214846FBF76E
:1051CC0061FA002800F090800022631E01998B4246
:1051DC004ADA002A76D0013C0AAB53F82430083F57
:1051EC00002BF8D039464FF07E5000F081F9A246E2
:1051FC0007464FF06E590DF58C78BAF1000F80F21E
:10520C00A18027460022002FC0F2CB8046A99046F1
:10521C004FF0000A184B01EB870BA4EB0709B4E025
:10522C0002254FE758F8043BBAF1000F08D123B11F
:10523C00C3F5807348F8043C01239A46013244E7D5
:10524C00C3F1FF03F6E7621E0AAB53F8223003F0FA
:10525C007F030AA941F8223042E7621E0AAB53F8D9
:10526C00223003F03F03F4E70AA951F82310013B65
:10527C000A43ABE7245A0008F8590008013352F8E6
:10528C00041D0029FAD0049A1EA9A218661C01EB71
:10529C0082051C440DF58C79B442FFF6CFAE079B0A
:1052AC00AB4653F82600FBF705F84FF0000A4FF019
:1052BC0000082860039B9A4507DD49F826800435D1
:1052CC000136E9E70123089AD9E7059B5BF8040945
:1052DC0053F82A10FBF742F801464046FAF736FF1E
:1052EC000AF1010A8046E5E7069B029A4846991A9C
:1052FC0000F0FEF84FF087418046FBF7E1F9F8B17A
:10530C004FF06E514046FBF729F8FBF7EDF9FAF731
:10531C00D1FF4FF087418146FBF720F8014640460C
:10532C00FAF712FFFBF7E0F90AAB43F82400484602
:10533C0001340837FBF7D8F90AAB43F8240051E7DE
:10534C004046F7E70AAB53F82A00FAF7B3FF3946A1
:10535C00FBF704F8494648F82A003846FAF7FEFFEE
:10536C000AF1FF3A074648E753F8040B5BF8041BB5
:10537C0003920293FAF7F2FF01464046FAF7E6FE73
:10538C00DDE9023280460AF1010A01998A4501DC05
:10539C00CA45E9DD5AAB03EB890949F8A08C013FFA
:1053AC0031E7649B022B07DC002B4EDC2ED006F081
:1053BC0007005BB0BDE8F08F649B032BF7D10DF1B8
:1053CC00C80B0BEB8407B846A246BAF1000F49DCB8
:1053DC00A146B9F1010F60DC0020012C76DC329A79
:1053EC00339B002D78D100990A600A464B6090607F
:1053FC00DDE757F82410FAF7A9FE013C002CF8DA87
:10540C000DB100F10040009B1860D0E7002032AFD6
:10541C00F4E757F82810FAF799FE08F1FF38B8F1BD
:10542C00000FF6DAADB100F10043009A01461360AB
:10543C003298FAF789FE4FF0010844450BDA0DB1AA
:10544C0000F10040009B5860B1E7A046002032AF4D
:10545C00E5E70346E9E757F8041FFAF777FE08F18A
:10546C000108EAE7D8F8003058F8042C1946104621
:10547C0002930192FAF76AFE019A014681461046A0
:10548C00FAF762FE029B0AF1FF3A1946FAF75EFE42
:10549C0048F80409C8F8009097E757F8043CD7F887
:1054AC0000A0184651460193FAF750FE019B0146A5
:1054BC0080461846FAF748FE5146FAF747FE47F879
:1054CC00040909F1FF39C7F8008082E75BF8241062
:1054DC00FAF73CFE013C80E7009902F1004203F12F
:1054EC0000430A604B600A4600F100407FE700BFB2
:1054FC0030F0004238B503460D4604462ED0B2F1CA
:10550C00FF4F04D30146FAF721FE034626E010F0C4
:10551C00FF4F18D14FF09841FAF720FF174A034676
:10552C0095420CDB0446C0F3C752193A4CF2503189
:10553C008D420ADD1249184661F31E0000E0114944
:10554C00FAF70CFFE1E7D20DF0E75119FE29F1DC77
:10555C00002905DD24F0FF4444EAC153184638BD48
:10556C0011F1160F01DA0749E5E701F1190024F0F2
:10557C00FF444FF04C5144EAC050E1E7B03CFFFF10
:10558C00CAF249716042A20D70B5C0F3C7557F3D98
:10559C00162D0146044620F0004626DC002D0FDABD
:1055AC001749FAF7D3FD0021FBF794F830B1002C22
:1055BC0023DA002E134C08BF4FF0004421461AE0AA
:1055CC00114E2E41304216D00D49FAF7BFFD002185
:1055DC00FBF780F80028F1D0002CBEBF4FF400037D
:1055EC002B41E41824EA0604E8E7B6F1FF4F02D396
:1055FC00FAF7ACFD0146084670BD0024DEE700BF9B
:10560C00CAF24971000080BFFFFF7F00F8B500BFF0
:10561C00F8BC08BC9E467047F8B500BFF8BC08BC87
:04562C009E467047DF
:10563000240000000000000000000000010203043C
:105640000607080900000000010203040203040524
:10565000060708090A0B0C0D0E0F101001020000BE
:10566000000FC93F000F494000CB9640000FC940D2
:105670000053FB4000CB164100ED2F41000F494184
:105680000031624100537B41003A8A4100CB964190
:10569000005CA34100EDAF41007EBC41000FC94159
:1056A00000A0D5410031E24100C2EE410053FB4170
:1056B00000F20342003A0A420083104200CB164235
:1056C00000141D42005C234200A5294200ED2F4238
:1056D00000363642007E3C4200C74242000F49423B
:1056E000A2000000F9000000830000006E0000002E
:1056F0004E000000440000001500000029000000DA
:10570000FC0000002700000057000000D10000004E
:10571000F500000034000000DD000000C0000000C3
:10572000DB0000006200000095000000990000000E
:105730003C00000043000000900000004100000019
:10574000FE0000005100000063000000AB000000FC
:10575000DE000000BB000000C5000000610000008A
:10576000B7000000240000006E0000003A000000B6
:10577000420000004D000000D2000000E0000000E8
:1057800006000000490000002E000000EA000000B2
:1057900009000000D1000000920000001C00000081
:1057A000FE0000001D000000EB0000001C000000D7
:1057B000B100000029000000A70000003E0000002A
:1057C000E80000008200000035000000F500000045
:1057D0002E000000BB000000440000008400000018
:1057E000E90000009C00000070000000260000009E
:1057F000B40000005F0000007E00000041000000D7
:105800003900000091000000D600000039000000BF
:10581000830000005300000039000000F400000085
:105820009C000000840000005F0000008B0000006E
:10583000BD000000F9000000280000003B0000004F
:105840001F000000F800000097000000FF000000AB
:10585000DE00000005000000980000000F000000BE
:10586000EF0000002F000000110000008B0000007E
:105870005A0000000A0000006D0000001F00000038
:105880006D000000360000007E000000CF00000028
:1058900027000000CB00000009000000B700000056
:1058A0004F000000460000003F00000066000000BE
:1058B0009E0000005F000000EA0000002D000000D4
:1058C0007500000027000000BA000000C7000000BB
:1058D000EB000000E5000000F10000007B0000008C
:1058E0003D0000000700000039000000F700000044
:1058F0008A0000005200000092000000EA00000050
:105900006B000000FB0000005F000000B100000021
:105910001F0000008D0000005D0000000800000076
:1059200056000000030000003000000046000000A8
:10593000FC0000007B0000006B000000AB000000DA
:10594000F0000000CF000000BC00000020000000BC
:105950009A000000F4000000360000001D00000066
:10596000A9000000E30000009100000061000000B9
:105970005E000000E60000001B00000008000000C0
:105980006500000099000000850000005F00000035
:1059900014000000A00000006800000040000000AB
:1059A0008D000000FF000000D80000008000000013
:1059B0004D000000730000002700000031000000CF
:1059C0000600000006000000150000005600000060
:1059D000CA00000073000000A8000000C900000019
:1059E00060000000E20000007B000000C00000003A
:1059F0008C0000006B0000000000C93F0000F0397F
:105A00000000DA370000A2330000842E0000502B83
:105A10000000C2270000D0220000C41F0000C61BE7
:105A20000000441704000000070000000900000007
:045A30003101000838
:045A34000D01000858
:0C5A380000127A001000000001000000C5
:0400000508002001CE
:00000001FF
